{
	"data": {
		"bytecode": {
			"linkReferences": {},
			"object": "60c060405234801561000f575f5ffd5b5060405161524138038061524183398181016040528101906100319190610349565b818181600390816100429190610611565b5080600490816100529190610611565b50505060016005819055503360075f6101000a81548173ffffffffffffffffffffffffffffffffffffffff021916908373ffffffffffffffffffffffffffffffffffffffff1602179055508560085f6101000a81548173ffffffffffffffffffffffffffffffffffffffff021916908373ffffffffffffffffffffffffffffffffffffffff1602179055508460095f6101000a81548173ffffffffffffffffffffffffffffffffffffffff021916908373ffffffffffffffffffffffffffffffffffffffff16021790555083600a5f6101000a81548173ffffffffffffffffffffffffffffffffffffffff021916908373ffffffffffffffffffffffffffffffffffffffff160217905550826006819055505050505050506106e0565b5f604051905090565b5f5ffd5b5f5ffd5b5f73ffffffffffffffffffffffffffffffffffffffff82169050919050565b5f6101a982610180565b9050919050565b6101b98161019f565b81146101c3575f5ffd5b50565b5f815190506101d4816101b0565b92915050565b5f819050919050565b6101ec816101da565b81146101f6575f5ffd5b50565b5f81519050610207816101e3565b92915050565b5f5ffd5b5f5ffd5b5f601f19601f8301169050919050565b7f4e487b71000000000000000000000000000000000000000000000000000000005f52604160045260245ffd5b61025b82610215565b810181811067ffffffffffffffff8211171561027a57610279610225565b5b80604052505050565b5f61028c61016f565b90506102988282610252565b919050565b5f67ffffffffffffffff8211156102b7576102b6610225565b5b6102c082610215565b9050602081019050919050565b8281835e5f83830152505050565b5f6102ed6102e88461029d565b610283565b90508281526020810184848401111561030957610308610211565b5b6103148482856102cd565b509392505050565b5f82601f8301126103305761032f61020d565b5b81516103408482602086016102db565b91505092915050565b5f5f5f5f5f5f60c0878903121561036357610362610178565b5b5f61037089828a016101c6565b965050602061038189828a016101c6565b955050604061039289828a016101c6565b94505060606103a389828a016101f9565b935050608087015167ffffffffffffffff8111156103c4576103c361017c565b5b6103d089828a0161031c565b92505060a087015167ffffffffffffffff8111156103f1576103f061017c565b5b6103fd89828a0161031c565b9150509295509295509295565b5f81519050919050565b7f4e487b71000000000000000000000000000000000000000000000000000000005f52602260045260245ffd5b5f600282049050600182168061045857607f821691505b60208210810361046b5761046a610414565b5b50919050565b5f819050815f5260205f209050919050565b5f6020601f8301049050919050565b5f82821b905092915050565b5f600883026104cd7fffffffffffffffffffffffffffffffffffffffffffffffffffffffffffffffff82610492565b6104d78683610492565b95508019841693508086168417925050509392505050565b5f819050919050565b5f61051261050d610508846101da565b6104ef565b6101da565b9050919050565b5f819050919050565b61052b836104f8565b61053f61053782610519565b84845461049e565b825550505050565b5f5f905090565b610556610547565b610561818484610522565b505050565b5b81811015610584576105795f8261054e565b600181019050610567565b5050565b601f8211156105c95761059a81610471565b6105a384610483565b810160208510156105b2578190505b6105c66105be85610483565b830182610566565b50505b505050565b5f82821c905092915050565b5f6105e95f19846008026105ce565b1980831691505092915050565b5f61060183836105da565b9150826002028217905092915050565b61061a8261040a565b67ffffffffffffffff81111561063357610632610225565b5b61063d8254610441565b610648828285610588565b5f60209050601f831160018114610679575f8415610667578287015190505b61067185826105f6565b8655506106d8565b601f19841661068786610471565b5f5b828110156106ae57848901518255600182019150602085019450602081019050610689565b868310156106cb57848901516106c7601f8916826105da565b8355505b6001600288020188555050505b505050505050565b60805160a051614af361074e5f395f818161099a01528181610bf701528181610f73015281816111ff015281816115c701528181611a3001528181611b9c01528181612029015281816123a8015261277701525f818161062d015281816108740152611f9f0152614af35ff3fe608060405234801561000f575f5ffd5b50600436106101f9575f3560e01c80634fb2e45d1161011857806395d89b41116100ab578063bc2c13a41161007a578063bc2c13a414610587578063c45a0155146105a5578063dd62ed3e146105c3578063e1a8b76c146105f3578063fa43b69c1461060f576101f9565b806395d89b41146104ff578063a9059cbb1461051d578063af640d0f1461054d578063ba0e930a1461056b576101f9565b806370a08231116100e757806370a0823114610479578063724aa479146104a95780638475e033146104c55780638da5cb5b146104e1576101f9565b80634fb2e45d146103f557806351cff8d9146104115780635236908b1461042d578063668fb6dc1461045d576101f9565b80632757d58c1161019057806339a156471161015f57806339a156471461037f57806340cfce1b1461039b57806346be9c48146103b9578063481c6a75146103d7576101f9565b80632757d58c14610309578063294e3305146103275780632d1ecd2114610343578063313ce56714610361576101f9565b806318160ddd116101cc57806318160ddd146102835780631ac3ddeb146102a15780632266c1ab146102bd57806323b872dd146102d9576101f9565b806302d95251146101fd57806306fdde0314610219578063095ea7b31461023757806311dc2bba14610267575b5f5ffd5b6102176004803603810190610212919061352a565b61062b565b005b6102216107b8565b60405161022e91906135c5565b60405180910390f35b610251600480360381019061024c9190613618565b610848565b60405161025e9190613670565b60405180910390f35b610281600480360381019061027c91906136c6565b61086a565b005b61028b610caf565b6040516102989190613739565b60405180910390f35b6102bb60048036038101906102b6919061352a565b610cb8565b005b6102d760048036038101906102d29190613752565b610f5b565b005b6102f360048036038101906102ee9190613752565b61101d565b6040516103009190613670565b60405180910390f35b61031161104b565b60405161031e91906137b1565b60405180910390f35b610341600480360381019061033c919061381f565b611070565b005b61034b611096565b6040516103589190613859565b60405180910390f35b6103696110a9565b604051610376919061388d565b60405180910390f35b610399600480360381019061039491906138c8565b6110b1565b005b6103a36112a9565b6040516103b09190613739565b60405180910390f35b6103c16112af565b6040516103ce9190613859565b60405180910390f35b6103df6112c2565b6040516103ec91906137b1565b60405180910390f35b61040f600480360381019061040a919061352a565b6112e7565b005b61042b6004803603810190610426919061352a565b611332565b005b6104476004803603810190610442919061352a565b61167e565b604051610454919061394b565b60405180910390f35b6104776004803603810190610472919061352a565b611736565b005b610493600480360381019061048e919061352a565b6119d3565b6040516104a09190613739565b60405180910390f35b6104c360048036038101906104be9190613752565b611a18565b005b6104df60048036038101906104da9190613982565b611ada565b005b6104e9611ca8565b6040516104f691906137b1565b60405180910390f35b610507611ccd565b60405161051491906135c5565b60405180910390f35b61053760048036038101906105329190613618565b611d5d565b6040516105449190613670565b60405180910390f35b610555611d7f565b6040516105629190613739565b60405180910390f35b6105856004803603810190610580919061352a565b611d85565b005b61058f611dd0565b60405161059c91906139bc565b60405180910390f35b6105ad611dea565b6040516105ba91906137b1565b60405180910390f35b6105dd60048036038101906105d891906139d5565b611e0f565b6040516105ea9190613739565b60405180910390f35b61060d60048036038101906106089190613a4c565b611e91565b005b61062960048036038101906106249190613ae7565b611ec1565b005b7f00000000000000000000000000000000000000000000000000000000000000007effffffffffffffffffffffffffffffffffffffffffffffffffffffffffffff1916600a60159054906101000a900460f81b7effffffffffffffffffffffffffffffffffffffffffffffffffffffffffffff1916146106e0576040517f08c379a00000000000000000000000000000000000000000000000000000000081526004016106d790613b5c565b60405180910390fd5b600a5f9054906101000a900473ffffffffffffffffffffffffffffffffffffffff1673ffffffffffffffffffffffffffffffffffffffff163373ffffffffffffffffffffffffffffffffffffffff16148061076d575061073e611ee9565b73ffffffffffffffffffffffffffffffffffffffff163373ffffffffffffffffffffffffffffffffffffffff16145b6107ac576040517f08c379a00000000000000000000000000000000000000000000000000000000081526004016107a390613bc4565b60405180910390fd5b6107b581611f7d565b50565b6060600380546107c790613c0f565b80601f01602080910402602001604051908101604052809291908181526020018280546107f390613c0f565b801561083e5780601f106108155761010080835404028352916020019161083e565b820191905f5260205f20905b81548152906001019060200180831161082157829003601f168201915b5050505050905090565b5f5f610852612068565b905061085f81858561206f565b600191505092915050565b610872612081565b7f00000000000000000000000000000000000000000000000000000000000000007effffffffffffffffffffffffffffffffffffffffffffffffffffffffffffff1916600a60149054906101000a900460f81b7effffffffffffffffffffffffffffffffffffffffffffffffffffffffffffff191614610927576040517f08c379a000000000000000000000000000000000000000000000000000000000815260040161091e90613c89565b60405180910390fd5b5f4290505f6109346120c7565b6060015190505f6109436120c7565b60800151905061098033308967ffffffffffffffff168973ffffffffffffffffffffffffffffffffffffffff16612170909392919063ffffffff16565b5f61099686888a67ffffffffffffffff166121f2565b90507f00000000000000000000000000000000000000000000000000000000000000007effffffffffffffffffffffffffffffffffffffffffffffffffffffffffffff1916817effffffffffffffffffffffffffffffffffffffffffffffffffffffffffffff191614610a3e576040517f08c379a0000000000000000000000000000000000000000000000000000000008152600401610a3590613cf1565b60405180910390fd5b5f888584610a4c9190613d3c565b610a569190613d77565b67ffffffffffffffff16905088600a60188282829054906101000a900467ffffffffffffffff16610a879190613db3565b92506101000a81548167ffffffffffffffff021916908367ffffffffffffffff16021790555088600c5f8873ffffffffffffffffffffffffffffffffffffffff1673ffffffffffffffffffffffffffffffffffffffff1681526020019081526020015f205f0160088282829054906101000a900467ffffffffffffffff16610b0f9190613db3565b92506101000a81548167ffffffffffffffff021916908367ffffffffffffffff16021790555084600c5f8873ffffffffffffffffffffffffffffffffffffffff1673ffffffffffffffffffffffffffffffffffffffff1681526020019081526020015f205f015f6101000a81548167ffffffffffffffff021916908367ffffffffffffffff1602179055508867ffffffffffffffff168673ffffffffffffffffffffffffffffffffffffffff167ff6e1f23e731f4e7e928ae854aa205a984e7570d342ccb028d781c80f9cf7243360405160405180910390a35f610bf387836123d2565b90507f00000000000000000000000000000000000000000000000000000000000000007effffffffffffffffffffffffffffffffffffffffffffffffffffffffffffff1916817effffffffffffffffffffffffffffffffffffffffffffffffffffffffffffff191614610c9b576040517f08c379a0000000000000000000000000000000000000000000000000000000008152600401610c9290613e38565b60405180910390fd5b505050505050610ca96123ea565b50505050565b5f600254905090565b610cc0612081565b610cc86123f4565b5f610cd16120c7565b6020015190505f610ce06120c7565b6080015190505f610cef6120c7565b60e0015190505f73ffffffffffffffffffffffffffffffffffffffff168173ffffffffffffffffffffffffffffffffffffffff1603610d2c575f5ffd5b5f1515600d5f600a5f9054906101000a900473ffffffffffffffffffffffffffffffffffffffff1673ffffffffffffffffffffffffffffffffffffffff1673ffffffffffffffffffffffffffffffffffffffff1681526020019081526020015f205f9054906101000a900460ff16151514610ddc576040517f08c379a0000000000000000000000000000000000000000000000000000000008152600401610dd390613ea0565b60405180910390fd5b600a60189054906101000a900467ffffffffffffffff1667ffffffffffffffff16600b541115610f4d575f610e2a84600a60189054906101000a900467ffffffffffffffff16600b54612485565b90508473ffffffffffffffffffffffffffffffffffffffff1663095ea7b383836040518363ffffffff1660e01b8152600401610e67929190613ebe565b6020604051808303815f875af1158015610e83573d5f5f3e3d5ffd5b505050506040513d601f19601f82011682018060405250810190610ea79190613f0f565b506001600d5f600a5f9054906101000a900473ffffffffffffffffffffffffffffffffffffffff1673ffffffffffffffffffffffffffffffffffffffff1673ffffffffffffffffffffffffffffffffffffffff1681526020019081526020015f205f6101000a81548160ff021916908315150217905550610f4b3083838873ffffffffffffffffffffffffffffffffffffffff16612170909392919063ffffffff16565b505b505050610f586123ea565b50565b610f636124e8565b5f610f6f848484612579565b90507f00000000000000000000000000000000000000000000000000000000000000007effffffffffffffffffffffffffffffffffffffffffffffffffffffffffffff1916817effffffffffffffffffffffffffffffffffffffffffffffffffffffffffffff191614611017576040517f08c379a000000000000000000000000000000000000000000000000000000000815260040161100e90613f84565b60405180910390fd5b50505050565b5f5f611027612068565b90506110348582856127a2565b61103f858585612834565b60019150509392505050565b60085f9054906101000a900473ffffffffffffffffffffffffffffffffffffffff1681565b6110786124e8565b80600a60146101000a81548160ff021916908360f81c021790555050565b600a60159054906101000a900460f81b81565b5f600a905090565b6110b96124e8565b6110d48160400160208101906110cf919061352a565b611f7d565b5f6110dd6120c7565b60c0015190508073ffffffffffffffffffffffffffffffffffffffff16637332f2b583805f019061110e9190613fae565b85806020019061111e9190613fae565b6040518563ffffffff1660e01b815260040161113d949392919061405a565b5f604051808303815f87803b158015611154575f5ffd5b505af1158015611166573d5f5f3e3d5ffd5b505050505f611187836040016020810190611181919061352a565b30612924565b90505f81116111cb576040517f08c379a00000000000000000000000000000000000000000000000000000000081526004016111c2906140dd565b60405180910390fd5b5f6111fb8460600160208101906111e2919061352a565b8560400160208101906111f5919061352a565b846121f2565b90507f00000000000000000000000000000000000000000000000000000000000000007effffffffffffffffffffffffffffffffffffffffffffffffffffffffffffff1916817effffffffffffffffffffffffffffffffffffffffffffffffffffffffffffff1916146112a3576040517f08c379a000000000000000000000000000000000000000000000000000000000815260040161129a90614145565b60405180910390fd5b50505050565b600b5481565b600a60149054906101000a900460f81b81565b600a5f9054906101000a900473ffffffffffffffffffffffffffffffffffffffff1681565b6112ef6123f4565b8060095f6101000a81548173ffffffffffffffffffffffffffffffffffffffff021916908373ffffffffffffffffffffffffffffffffffffffff16021790555050565b61133a612081565b5f6113436120c7565b6080015190505f6113526120c7565b6020015190505f6113616120c7565b6040015190505f600c5f3373ffffffffffffffffffffffffffffffffffffffff1673ffffffffffffffffffffffffffffffffffffffff1681526020019081526020015f205f0160089054906101000a900467ffffffffffffffff1690505f6113c8336119d3565b90505f6113d3610caf565b90505f600b5411611419576040517f08c379a0000000000000000000000000000000000000000000000000000000008152600401611410906141ad565b60405180910390fd5b5f611441868686600a60189054906101000a900467ffffffffffffffff1687600b54886129a5565b90505f8111611485576040517f08c379a000000000000000000000000000000000000000000000000000000000815260040161147c90614215565b60405180910390fd5b6114b033828a73ffffffffffffffffffffffffffffffffffffffff16612a7c9092919063ffffffff16565b5f8467ffffffffffffffff161115611574575f600c5f3373ffffffffffffffffffffffffffffffffffffffff1673ffffffffffffffffffffffffffffffffffffffff1681526020019081526020015f205f0160086101000a81548167ffffffffffffffff021916908367ffffffffffffffff16021790555083600a60188282829054906101000a900467ffffffffffffffff1661154d9190613d3c565b92506101000a81548167ffffffffffffffff021916908367ffffffffffffffff1602179055505b803373ffffffffffffffffffffffffffffffffffffffff167f98824d89d47225910d3e61aa38b640d29d58b43e2dc47b4d986a588c88e0a2a860405160405180910390a35f6115c33385612afb565b90507f00000000000000000000000000000000000000000000000000000000000000007effffffffffffffffffffffffffffffffffffffffffffffffffffffffffffff1916817effffffffffffffffffffffffffffffffffffffffffffffffffffffffffffff19161461166b576040517f08c379a00000000000000000000000000000000000000000000000000000000081526004016116629061427d565b60405180910390fd5b505050505050505061167b6123ea565b50565b6116866133be565b600c5f8373ffffffffffffffffffffffffffffffffffffffff1673ffffffffffffffffffffffffffffffffffffffff1681526020019081526020015f206040518060400160405290815f82015f9054906101000a900467ffffffffffffffff1667ffffffffffffffff1667ffffffffffffffff1681526020015f820160089054906101000a900467ffffffffffffffff1667ffffffffffffffff1667ffffffffffffffff16815250509050919050565b61173e612081565b5f611747611ee9565b90508073ffffffffffffffffffffffffffffffffffffffff163373ffffffffffffffffffffffffffffffffffffffff1614611780575f5ffd5b5f6117896120c7565b6040015190505f6117986120c7565b6080015190505f6117a76120c7565b610100015190505f73ffffffffffffffffffffffffffffffffffffffff168173ffffffffffffffffffffffffffffffffffffffff16036117e5575f5ffd5b5f1515600e5f8673ffffffffffffffffffffffffffffffffffffffff1673ffffffffffffffffffffffffffffffffffffffff1681526020019081526020015f205f9054906101000a900460ff16151514611874576040517f08c379a000000000000000000000000000000000000000000000000000000000815260040161186b90613ea0565b60405180910390fd5b600a60189054906101000a900467ffffffffffffffff1667ffffffffffffffff16600b5411156119c4575f6118c284600a60189054906101000a900467ffffffffffffffff16600b54612485565b90508573ffffffffffffffffffffffffffffffffffffffff1663095ea7b383836040518363ffffffff1660e01b81526004016118ff929190613ebe565b6020604051808303815f875af115801561191b573d5f5f3e3d5ffd5b505050506040513d601f19601f8201168201806040525081019061193f9190613f0f565b506001600e5f8773ffffffffffffffffffffffffffffffffffffffff1673ffffffffffffffffffffffffffffffffffffffff1681526020019081526020015f205f6101000a81548160ff0219169083151502179055506119c23083838973ffffffffffffffffffffffffffffffffffffffff16612170909392919063ffffffff16565b505b505050506119d06123ea565b50565b5f5f5f8373ffffffffffffffffffffffffffffffffffffffff1673ffffffffffffffffffffffffffffffffffffffff1681526020019081526020015f20549050919050565b611a206124e8565b5f611a2c8484846121f2565b90507f00000000000000000000000000000000000000000000000000000000000000007effffffffffffffffffffffffffffffffffffffffffffffffffffffffffffff1916817effffffffffffffffffffffffffffffffffffffffffffffffffffffffffffff191614611ad4576040517f08c379a0000000000000000000000000000000000000000000000000000000008152600401611acb90614145565b60405180910390fd5b50505050565b611ae26124e8565b611aea612b9d565b5f611b05825f016020810190611b00919061429b565b612bfb565b90505f611b24836060016020810190611b1e919061352a565b30612924565b90505f8111611b68576040517f08c379a0000000000000000000000000000000000000000000000000000000008152600401611b5f90614310565b60405180910390fd5b5f611b98846040016020810190611b7f919061352a565b856060016020810190611b92919061352a565b84612579565b90507f00000000000000000000000000000000000000000000000000000000000000007effffffffffffffffffffffffffffffffffffffffffffffffffffffffffffff1916817effffffffffffffffffffffffffffffffffffffffffffffffffffffffffffff191614611c40576040517f08c379a0000000000000000000000000000000000000000000000000000000008152600401611c3790614378565b60405180910390fd5b5f611c5d856080016020810190611c57919061352a565b30612924565b9050611ca1855f016020810190611c74919061429b565b866020016020810190611c879190614396565b86886080016020810190611c9b919061352a565b85612ca0565b5050505050565b60095f9054906101000a900473ffffffffffffffffffffffffffffffffffffffff1681565b606060048054611cdc90613c0f565b80601f0160208091040260200160405190810160405280929190818152602001828054611d0890613c0f565b8015611d535780601f10611d2a57610100808354040283529160200191611d53565b820191905f5260205f20905b815481529060010190602001808311611d3657829003601f168201915b5050505050905090565b5f5f611d67612068565b9050611d74818585612834565b600191505092915050565b60065481565b611d8d6123f4565b80600a5f6101000a81548173ffffffffffffffffffffffffffffffffffffffff021916908373ffffffffffffffffffffffffffffffffffffffff16021790555050565b600a60189054906101000a900467ffffffffffffffff1681565b60075f9054906101000a900473ffffffffffffffffffffffffffffffffffffffff1681565b5f60015f8473ffffffffffffffffffffffffffffffffffffffff1673ffffffffffffffffffffffffffffffffffffffff1681526020019081526020015f205f8373ffffffffffffffffffffffffffffffffffffffff1673ffffffffffffffffffffffffffffffffffffffff1681526020019081526020015f2054905092915050565b611e996124e8565b611ea1612b9d565b5f611eab85612bfb565b9050611eba8585838686612ca0565b5050505050565b611ec96124e8565b80600a60166101000a81548161ffff021916908361ffff16021790555050565b5f60085f9054906101000a900473ffffffffffffffffffffffffffffffffffffffff1673ffffffffffffffffffffffffffffffffffffffff1663481c6a756040518163ffffffff1660e01b8152600401602060405180830381865afa158015611f54573d5f5f3e3d5ffd5b505050506040513d601f19601f82011682018060405250810190611f7891906143d5565b905090565b5f611f866120c7565b6080015190508067ffffffffffffffff164210612064577f00000000000000000000000000000000000000000000000000000000000000007effffffffffffffffffffffffffffffffffffffffffffffffffffffffffffff1916600a60159054906101000a900460f81b7effffffffffffffffffffffffffffffffffffffffffffffffffffffffffffff191603612063576120218230612924565b600b819055507f0000000000000000000000000000000000000000000000000000000000000000600a60156101000a81548160ff021916908360f81c02179055505b5b5050565b5f33905090565b61207c8383836001612da9565b505050565b6002600554036120bd576040517f3ee5aeb500000000000000000000000000000000000000000000000000000000815260040160405180910390fd5b6002600581905550565b6120cf6133ea565b60085f9054906101000a900473ffffffffffffffffffffffffffffffffffffffff1673ffffffffffffffffffffffffffffffffffffffff16633ec791936006546040518263ffffffff1660e01b815260040161212b9190613739565b61014060405180830381865afa158015612147573d5f5f3e3d5ffd5b505050506040513d601f19601f8201168201806040525081019061216b9190614597565b905090565b6121ec848573ffffffffffffffffffffffffffffffffffffffff166323b872dd8686866040516024016121a5939291906145c3565b604051602081830303815290604052915060e01b6020820180517bffffffffffffffffffffffffffffffffffffffffffffffffffffffff8381831617835250505050612f78565b50505050565b5f8273ffffffffffffffffffffffffffffffffffffffff1663095ea7b385846040518363ffffffff1660e01b815260040161222e929190613ebe565b6020604051808303815f875af115801561224a573d5f5f3e3d5ffd5b505050506040513d601f19601f8201168201806040525081019061226e9190613f0f565b505f612278613013565b90505f8173ffffffffffffffffffffffffffffffffffffffff1663b76398e48686600a60169054906101000a900461ffff166040518463ffffffff1660e01b81526004016122c893929190614607565b602060405180830381865afa1580156122e3573d5f5f3e3d5ffd5b505050506040513d601f19601f82011682018060405250810190612307919061466f565b90508573ffffffffffffffffffffffffffffffffffffffff1663f7a73840826040518263ffffffff1660e01b815260040161234291906146a9565b5f604051808303815f87803b158015612359575f5ffd5b505af115801561236b573d5f5f3e3d5ffd5b505050507f06fc8a16d4b8d9a104fb940a7ce2e4a92ef3a57c2d1350923af278ab30d85f4e8460405161239e9190613739565b60405180910390a17f0000000000000000000000000000000000000000000000000000000000000000925050509392505050565b5f6123dd83836130a7565b600160f81b905092915050565b6001600581905550565b60095f9054906101000a900473ffffffffffffffffffffffffffffffffffffffff1673ffffffffffffffffffffffffffffffffffffffff163373ffffffffffffffffffffffffffffffffffffffff1614612483576040517f08c379a000000000000000000000000000000000000000000000000000000000815260040161247a9061470c565b60405180910390fd5b565b5f612710836124949190613db3565b67ffffffffffffffff1682106124dd576127108461ffff168467ffffffffffffffff16846124c2919061472a565b6124cc919061475d565b6124d691906147cb565b90506124e1565b5f90505b9392505050565b600a5f9054906101000a900473ffffffffffffffffffffffffffffffffffffffff1673ffffffffffffffffffffffffffffffffffffffff163373ffffffffffffffffffffffffffffffffffffffff1614612577576040517f08c379a000000000000000000000000000000000000000000000000000000000815260040161256e90614845565b60405180910390fd5b565b5f5f82116125bc576040517f08c379a00000000000000000000000000000000000000000000000000000000081526004016125b3906148ad565b60405180910390fd5b5f6125c5613013565b90505f8173ffffffffffffffffffffffffffffffffffffffff16635cc7bc1086866040518363ffffffff1660e01b8152600401612603929190613ebe565b602060405180830381865afa15801561261e573d5f5f3e3d5ffd5b505050506040513d601f19601f82011682018060405250810190612642919061466f565b90508473ffffffffffffffffffffffffffffffffffffffff1663095ea7b387866040518363ffffffff1660e01b815260040161267f929190613ebe565b6020604051808303815f875af115801561269b573d5f5f3e3d5ffd5b505050506040513d601f19601f820116820180604052508101906126bf9190613f0f565b505f8673ffffffffffffffffffffffffffffffffffffffff16638e19899e836040518263ffffffff1660e01b81526004016126fa91906146a9565b6020604051808303815f875af1158015612716573d5f5f3e3d5ffd5b505050506040513d601f19601f8201168201806040525081019061273a91906148df565b90507f5f8861d7f28eca31bb813f4c03fcb457e2e56a7bf99cc46ed1a2576dba5953ea818660405161276d92919061490a565b60405180910390a17f000000000000000000000000000000000000000000000000000000000000000093505050509392505050565b5f6127ad8484611e0f565b90507fffffffffffffffffffffffffffffffffffffffffffffffffffffffffffffffff811461282e578181101561281f578281836040517ffb8f41b200000000000000000000000000000000000000000000000000000000815260040161281693929190614931565b60405180910390fd5b61282d84848484035f612da9565b5b50505050565b5f73ffffffffffffffffffffffffffffffffffffffff168373ffffffffffffffffffffffffffffffffffffffff16036128a4575f6040517f96c6fd1e00000000000000000000000000000000000000000000000000000000815260040161289b91906137b1565b60405180910390fd5b5f73ffffffffffffffffffffffffffffffffffffffff168273ffffffffffffffffffffffffffffffffffffffff1603612914575f6040517fec442f0500000000000000000000000000000000000000000000000000000000815260040161290b91906137b1565b60405180910390fd5b61291f838383613126565b505050565b5f8273ffffffffffffffffffffffffffffffffffffffff166370a08231836040518263ffffffff1660e01b815260040161295e91906137b1565b602060405180830381865afa158015612979573d5f5f3e3d5ffd5b505050506040513d601f19601f8201168201806040525081019061299d91906148df565b905092915050565b5f8467ffffffffffffffff1683116129f9575f83036129c6575f90506129f4565b8467ffffffffffffffff16838767ffffffffffffffff166129e7919061475d565b6129f191906147cb565b90505b612a71565b81612710888a612710612a0c9190614966565b612a169190614966565b61ffff168767ffffffffffffffff1686612a30919061472a565b87612a3b919061475d565b612a45919061475d565b612a4f91906147cb565b612a5991906147cb565b8667ffffffffffffffff16612a6e919061499b565b90505b979650505050505050565b612af6838473ffffffffffffffffffffffffffffffffffffffff1663a9059cbb8585604051602401612aaf929190613ebe565b604051602081830303815290604052915060e01b6020820180517bffffffffffffffffffffffffffffffffffffffffffffffffffffffff8381831617835250505050612f78565b505050565b5f5f5f5f8573ffffffffffffffffffffffffffffffffffffffff1673ffffffffffffffffffffffffffffffffffffffff1681526020019081526020015f2054905082811015612b85578381846040517fe450d38c000000000000000000000000000000000000000000000000000000008152600401612b7c93929190614931565b60405180910390fd5b612b8f848461333f565b600160f81b91505092915050565b5f612ba66120c7565b6080015190508067ffffffffffffffff164210612bf8576040517f08c379a0000000000000000000000000000000000000000000000000000000008152600401612bef90614a18565b60405180910390fd5b50565b5f60085f9054906101000a900473ffffffffffffffffffffffffffffffffffffffff1673ffffffffffffffffffffffffffffffffffffffff166357b30c98600654846040518363ffffffff1660e01b8152600401612c5a929190614a45565b602060405180830381865afa158015612c75573d5f5f3e3d5ffd5b505050506040513d601f19601f82011682018060405250810190612c99919061466f565b9050919050565b612ca8612b9d565b5f612cb16120c7565b60c0015190508273ffffffffffffffffffffffffffffffffffffffff1663095ea7b382846040518363ffffffff1660e01b8152600401612cf2929190613ebe565b6020604051808303815f875af1158015612d0e573d5f5f3e3d5ffd5b505050506040513d601f19601f82011682018060405250810190612d329190613f0f565b508073ffffffffffffffffffffffffffffffffffffffff166365887a9d87878787876040518663ffffffff1660e01b8152600401612d74959493929190614a6c565b5f604051808303815f87803b158015612d8b575f5ffd5b505af1158015612d9d573d5f5f3e3d5ffd5b50505050505050505050565b5f73ffffffffffffffffffffffffffffffffffffffff168473ffffffffffffffffffffffffffffffffffffffff1603612e19575f6040517fe602df05000000000000000000000000000000000000000000000000000000008152600401612e1091906137b1565b60405180910390fd5b5f73ffffffffffffffffffffffffffffffffffffffff168373ffffffffffffffffffffffffffffffffffffffff1603612e89575f6040517f94280d62000000000000000000000000000000000000000000000000000000008152600401612e8091906137b1565b60405180910390fd5b8160015f8673ffffffffffffffffffffffffffffffffffffffff1673ffffffffffffffffffffffffffffffffffffffff1681526020019081526020015f205f8573ffffffffffffffffffffffffffffffffffffffff1673ffffffffffffffffffffffffffffffffffffffff1681526020019081526020015f20819055508015612f72578273ffffffffffffffffffffffffffffffffffffffff168473ffffffffffffffffffffffffffffffffffffffff167f8c5be1e5ebec7d5bd14f71427d1e84f3dd0314c0f7b2291e5b200ac8c7c3b92584604051612f699190613739565b60405180910390a35b50505050565b5f5f60205f8451602086015f885af180612f97576040513d5f823e3d81fd5b3d92505f519150505f8214612fb0576001811415612fcb565b5f8473ffffffffffffffffffffffffffffffffffffffff163b145b1561300d57836040517f5274afe700000000000000000000000000000000000000000000000000000000815260040161300491906137b1565b60405180910390fd5b50505050565b5f60085f9054906101000a900473ffffffffffffffffffffffffffffffffffffffff1673ffffffffffffffffffffffffffffffffffffffff1663e2a405826040518163ffffffff1660e01b8152600401602060405180830381865afa15801561307e573d5f5f3e3d5ffd5b505050506040513d601f19601f820116820180604052508101906130a291906143d5565b905090565b5f73ffffffffffffffffffffffffffffffffffffffff168273ffffffffffffffffffffffffffffffffffffffff1603613117575f6040517fec442f0500000000000000000000000000000000000000000000000000000000815260040161310e91906137b1565b60405180910390fd5b6131225f8383613126565b5050565b5f73ffffffffffffffffffffffffffffffffffffffff168373ffffffffffffffffffffffffffffffffffffffff1603613176578060025f82825461316a919061499b565b92505081905550613244565b5f5f5f8573ffffffffffffffffffffffffffffffffffffffff1673ffffffffffffffffffffffffffffffffffffffff1681526020019081526020015f20549050818110156131ff578381836040517fe450d38c0000000000000000000000000000000000000000000000000000000081526004016131f693929190614931565b60405180910390fd5b8181035f5f8673ffffffffffffffffffffffffffffffffffffffff1673ffffffffffffffffffffffffffffffffffffffff1681526020019081526020015f2081905550505b5f73ffffffffffffffffffffffffffffffffffffffff168273ffffffffffffffffffffffffffffffffffffffff160361328b578060025f82825403925050819055506132d5565b805f5f8473ffffffffffffffffffffffffffffffffffffffff1673ffffffffffffffffffffffffffffffffffffffff1681526020019081526020015f205f82825401925050819055505b8173ffffffffffffffffffffffffffffffffffffffff168373ffffffffffffffffffffffffffffffffffffffff167fddf252ad1be2c89b69c2b068fc378daa952ba7f163c4a11628f55a4df523b3ef836040516133329190613739565b60405180910390a3505050565b5f73ffffffffffffffffffffffffffffffffffffffff168273ffffffffffffffffffffffffffffffffffffffff16036133af575f6040517f96c6fd1e0000000000000000000000000000000000000000000000000000000081526004016133a691906137b1565b60405180910390fd5b6133ba825f83613126565b5050565b60405180604001604052805f67ffffffffffffffff1681526020015f67ffffffffffffffff1681525090565b6040518061014001604052805f151581526020015f61ffff1681526020015f61ffff1681526020015f67ffffffffffffffff1681526020015f67ffffffffffffffff1681526020015f73ffffffffffffffffffffffffffffffffffffffff1681526020015f73ffffffffffffffffffffffffffffffffffffffff1681526020015f73ffffffffffffffffffffffffffffffffffffffff1681526020015f73ffffffffffffffffffffffffffffffffffffffff1681526020015f73ffffffffffffffffffffffffffffffffffffffff1681525090565b5f604051905090565b5f5ffd5b5f5ffd5b5f73ffffffffffffffffffffffffffffffffffffffff82169050919050565b5f6134f9826134d0565b9050919050565b613509816134ef565b8114613513575f5ffd5b50565b5f8135905061352481613500565b92915050565b5f6020828403121561353f5761353e6134c8565b5b5f61354c84828501613516565b91505092915050565b5f81519050919050565b5f82825260208201905092915050565b8281835e5f83830152505050565b5f601f19601f8301169050919050565b5f61359782613555565b6135a1818561355f565b93506135b181856020860161356f565b6135ba8161357d565b840191505092915050565b5f6020820190508181035f8301526135dd818461358d565b905092915050565b5f819050919050565b6135f7816135e5565b8114613601575f5ffd5b50565b5f81359050613612816135ee565b92915050565b5f5f6040838503121561362e5761362d6134c8565b5b5f61363b85828601613516565b925050602061364c85828601613604565b9150509250929050565b5f8115159050919050565b61366a81613656565b82525050565b5f6020820190506136835f830184613661565b92915050565b5f67ffffffffffffffff82169050919050565b6136a581613689565b81146136af575f5ffd5b50565b5f813590506136c08161369c565b92915050565b5f5f5f5f608085870312156136de576136dd6134c8565b5b5f6136eb878288016136b2565b94505060206136fc87828801613516565b935050604061370d87828801613516565b925050606061371e87828801613516565b91505092959194509250565b613733816135e5565b82525050565b5f60208201905061374c5f83018461372a565b92915050565b5f5f5f60608486031215613769576137686134c8565b5b5f61377686828701613516565b935050602061378786828701613516565b925050604061379886828701613604565b9150509250925092565b6137ab816134ef565b82525050565b5f6020820190506137c45f8301846137a2565b92915050565b5f7fff0000000000000000000000000000000000000000000000000000000000000082169050919050565b6137fe816137ca565b8114613808575f5ffd5b50565b5f81359050613819816137f5565b92915050565b5f60208284031215613834576138336134c8565b5b5f6138418482850161380b565b91505092915050565b613853816137ca565b82525050565b5f60208201905061386c5f83018461384a565b92915050565b5f60ff82169050919050565b61388781613872565b82525050565b5f6020820190506138a05f83018461387e565b92915050565b5f5ffd5b5f608082840312156138bf576138be6138a6565b5b81905092915050565b5f602082840312156138dd576138dc6134c8565b5b5f82013567ffffffffffffffff8111156138fa576138f96134cc565b5b613906848285016138aa565b91505092915050565b61391881613689565b82525050565b604082015f8201516139325f85018261390f565b506020820151613945602085018261390f565b50505050565b5f60408201905061395e5f83018461391e565b92915050565b5f60a08284031215613979576139786138a6565b5b81905092915050565b5f60a08284031215613997576139966134c8565b5b5f6139a484828501613964565b91505092915050565b6139b681613689565b82525050565b5f6020820190506139cf5f8301846139ad565b92915050565b5f5f604083850312156139eb576139ea6134c8565b5b5f6139f885828601613516565b9250506020613a0985828601613516565b9150509250929050565b5f63ffffffff82169050919050565b613a2b81613a13565b8114613a35575f5ffd5b50565b5f81359050613a4681613a22565b92915050565b5f5f5f5f60808587031215613a6457613a636134c8565b5b5f613a7187828801613a38565b9450506020613a82878288016136b2565b9350506040613a9387828801613516565b9250506060613aa487828801613604565b91505092959194509250565b5f61ffff82169050919050565b613ac681613ab0565b8114613ad0575f5ffd5b50565b5f81359050613ae181613abd565b92915050565b5f60208284031215613afc57613afb6134c8565b5b5f613b0984828501613ad3565b91505092915050565b7f416c7265616479207570646174650000000000000000000000000000000000005f82015250565b5f613b46600e8361355f565b9150613b5182613b12565b602082019050919050565b5f6020820190508181035f830152613b7381613b3a565b9050919050565b7f4e6f6e20737570657220757365720000000000000000000000000000000000005f82015250565b5f613bae600e8361355f565b9150613bb982613b7a565b602082019050919050565b5f6020820190508181035f830152613bdb81613ba2565b9050919050565b7f4e487b71000000000000000000000000000000000000000000000000000000005f52602260045260245ffd5b5f6002820490506001821680613c2657607f821691505b602082108103613c3957613c38613be2565b5b50919050565b7f4c6f636b000000000000000000000000000000000000000000000000000000005f82015250565b5f613c7360048361355f565b9150613c7e82613c3f565b602082019050919050565b5f6020820190508181035f830152613ca081613c67565b9050919050565b7f537570706c79206661696c0000000000000000000000000000000000000000005f82015250565b5f613cdb600b8361355f565b9150613ce682613ca7565b602082019050919050565b5f6020820190508181035f830152613d0881613ccf565b9050919050565b7f4e487b71000000000000000000000000000000000000000000000000000000005f52601160045260245ffd5b5f613d4682613689565b9150613d5183613689565b9250828203905067ffffffffffffffff811115613d7157613d70613d0f565b5b92915050565b5f613d8182613689565b9150613d8c83613689565b9250828202613d9a81613689565b9150808214613dac57613dab613d0f565b5b5092915050565b5f613dbd82613689565b9150613dc883613689565b9250828201905067ffffffffffffffff811115613de857613de7613d0f565b5b92915050565b7f4d696e74206661696c00000000000000000000000000000000000000000000005f82015250565b5f613e2260098361355f565b9150613e2d82613dee565b602082019050919050565b5f6020820190508181035f830152613e4f81613e16565b9050919050565b7f416c7265616479207769746864726177000000000000000000000000000000005f82015250565b5f613e8a60108361355f565b9150613e9582613e56565b602082019050919050565b5f6020820190508181035f830152613eb781613e7e565b9050919050565b5f604082019050613ed15f8301856137a2565b613ede602083018461372a565b9392505050565b613eee81613656565b8114613ef8575f5ffd5b50565b5f81519050613f0981613ee5565b92915050565b5f60208284031215613f2457613f236134c8565b5b5f613f3184828501613efb565b91505092915050565b7f4c325769746864726177206661696c00000000000000000000000000000000005f82015250565b5f613f6e600f8361355f565b9150613f7982613f3a565b602082019050919050565b5f6020820190508181035f830152613f9b81613f62565b9050919050565b5f5ffd5b5f5ffd5b5f5ffd5b5f5f83356001602003843603038112613fca57613fc9613fa2565b5b80840192508235915067ffffffffffffffff821115613fec57613feb613fa6565b5b60208301925060018202360383131561400857614007613faa565b5b509250929050565b5f82825260208201905092915050565b828183375f83830152505050565b5f6140398385614010565b9350614046838584614020565b61404f8361357d565b840190509392505050565b5f6040820190508181035f83015261407381868861402e565b9050818103602083015261408881848661402e565b905095945050505050565b7f55534443207a65726f2062616c616e63650000000000000000000000000000005f82015250565b5f6140c760118361355f565b91506140d282614093565b602082019050919050565b5f6020820190508181035f8301526140f4816140bb565b9050919050565b7f4c324465706f73697465206661696c00000000000000000000000000000000005f82015250565b5f61412f600f8361355f565b915061413a826140fb565b602082019050919050565b5f6020820190508181035f83015261415c81614123565b9050919050565b7f5a65726f20776974686472617720616d6f756e740000000000000000000000005f82015250565b5f61419760148361355f565b91506141a282614163565b602082019050919050565b5f6020820190508181035f8301526141c48161418b565b9050919050565b7f5a65726f000000000000000000000000000000000000000000000000000000005f82015250565b5f6141ff60048361355f565b915061420a826141cb565b602082019050919050565b5f6020820190508181035f83015261422c816141f3565b9050919050565b7f4275726e206661696c00000000000000000000000000000000000000000000005f82015250565b5f61426760098361355f565b915061427282614233565b602082019050919050565b5f6020820190508181035f8301526142948161425b565b9050919050565b5f602082840312156142b0576142af6134c8565b5b5f6142bd84828501613a38565b91505092915050565b7f41555344435a65726f2062616c616e63650000000000000000000000000000005f82015250565b5f6142fa60118361355f565b9150614305826142c6565b602082019050919050565b5f6020820190508181035f830152614327816142ee565b9050919050565b7f5769746864726177206661696c000000000000000000000000000000000000005f82015250565b5f614362600d8361355f565b915061436d8261432e565b602082019050919050565b5f6020820190508181035f83015261438f81614356565b9050919050565b5f602082840312156143ab576143aa6134c8565b5b5f6143b8848285016136b2565b91505092915050565b5f815190506143cf81613500565b92915050565b5f602082840312156143ea576143e96134c8565b5b5f6143f7848285016143c1565b91505092915050565b5f5ffd5b7f4e487b71000000000000000000000000000000000000000000000000000000005f52604160045260245ffd5b61443a8261357d565b810181811067ffffffffffffffff8211171561445957614458614404565b5b80604052505050565b5f61446b6134bf565b90506144778282614431565b919050565b5f8151905061448a81613abd565b92915050565b5f8151905061449e8161369c565b92915050565b5f61014082840312156144ba576144b9614400565b5b6144c5610140614462565b90505f6144d484828501613efb565b5f8301525060206144e78482850161447c565b60208301525060406144fb8482850161447c565b604083015250606061450f84828501614490565b606083015250608061452384828501614490565b60808301525060a0614537848285016143c1565b60a08301525060c061454b848285016143c1565b60c08301525060e061455f848285016143c1565b60e083015250610100614574848285016143c1565b6101008301525061012061458a848285016143c1565b6101208301525092915050565b5f61014082840312156145ad576145ac6134c8565b5b5f6145ba848285016144a4565b91505092915050565b5f6060820190506145d65f8301866137a2565b6145e360208301856137a2565b6145f0604083018461372a565b949350505050565b61460181613ab0565b82525050565b5f60608201905061461a5f8301866137a2565b614627602083018561372a565b61463460408301846145f8565b949350505050565b5f819050919050565b61464e8161463c565b8114614658575f5ffd5b50565b5f8151905061466981614645565b92915050565b5f60208284031215614684576146836134c8565b5b5f6146918482850161465b565b91505092915050565b6146a38161463c565b82525050565b5f6020820190506146bc5f83018461469a565b92915050565b7f4e6f6e206f776e657200000000000000000000000000000000000000000000005f82015250565b5f6146f660098361355f565b9150614701826146c2565b602082019050919050565b5f6020820190508181035f830152614723816146ea565b9050919050565b5f614734826135e5565b915061473f836135e5565b925082820390508181111561475757614756613d0f565b5b92915050565b5f614767826135e5565b9150614772836135e5565b9250828202614780816135e5565b9150828204841483151761479757614796613d0f565b5b5092915050565b7f4e487b71000000000000000000000000000000000000000000000000000000005f52601260045260245ffd5b5f6147d5826135e5565b91506147e0836135e5565b9250826147f0576147ef61479e565b5b828204905092915050565b7f4e6f6e206d616e616765720000000000000000000000000000000000000000005f82015250565b5f61482f600b8361355f565b915061483a826147fb565b602082019050919050565b5f6020820190508181035f83015261485c81614823565b9050919050565b7f415553444320616d6f756e74207a65726f0000000000000000000000000000005f82015250565b5f61489760118361355f565b91506148a282614863565b602082019050919050565b5f6020820190508181035f8301526148c48161488b565b9050919050565b5f815190506148d9816135ee565b92915050565b5f602082840312156148f4576148f36134c8565b5b5f614901848285016148cb565b91505092915050565b5f60408201905061491d5f83018561372a565b61492a602083018461372a565b9392505050565b5f6060820190506149445f8301866137a2565b614951602083018561372a565b61495e604083018461372a565b949350505050565b5f61497082613ab0565b915061497b83613ab0565b9250828203905061ffff81111561499557614994613d0f565b5b92915050565b5f6149a5826135e5565b91506149b0836135e5565b92508282019050808211156149c8576149c7613d0f565b5b92915050565b7f4e6f6e2063726f73732074696d650000000000000000000000000000000000005f82015250565b5f614a02600e8361355f565b9150614a0d826149ce565b602082019050919050565b5f6020820190508181035f830152614a2f816149f6565b9050919050565b614a3f81613a13565b82525050565b5f604082019050614a585f83018561372a565b614a656020830184614a36565b9392505050565b5f60a082019050614a7f5f830188614a36565b614a8c60208301876139ad565b614a99604083018661469a565b614aa660608301856137a2565b614ab3608083018461372a565b969550505050505056fea264697066735822122049990b7fc8b00a9d84ea6e3b5f880e28a73605dadd831f63694339339ac22acc64736f6c634300081c0033",
			"opcodes": "PUSH1 0xC0 PUSH1 0x40 MSTORE CALLVALUE DUP1 ISZERO PUSH2 0xF JUMPI PUSH0 PUSH0 REVERT JUMPDEST POP PUSH1 0x40 MLOAD PUSH2 0x5241 CODESIZE SUB DUP1 PUSH2 0x5241 DUP4 CODECOPY DUP2 DUP2 ADD PUSH1 0x40 MSTORE DUP2 ADD SWAP1 PUSH2 0x31 SWAP2 SWAP1 PUSH2 0x349 JUMP JUMPDEST DUP2 DUP2 DUP2 PUSH1 0x3 SWAP1 DUP2 PUSH2 0x42 SWAP2 SWAP1 PUSH2 0x611 JUMP JUMPDEST POP DUP1 PUSH1 0x4 SWAP1 DUP2 PUSH2 0x52 SWAP2 SWAP1 PUSH2 0x611 JUMP JUMPDEST POP POP POP PUSH1 0x1 PUSH1 0x5 DUP2 SWAP1 SSTORE POP CALLER PUSH1 0x7 PUSH0 PUSH2 0x100 EXP DUP2 SLOAD DUP2 PUSH20 0xFFFFFFFFFFFFFFFFFFFFFFFFFFFFFFFFFFFFFFFF MUL NOT AND SWAP1 DUP4 PUSH20 0xFFFFFFFFFFFFFFFFFFFFFFFFFFFFFFFFFFFFFFFF AND MUL OR SWAP1 SSTORE POP DUP6 PUSH1 0x8 PUSH0 PUSH2 0x100 EXP DUP2 SLOAD DUP2 PUSH20 0xFFFFFFFFFFFFFFFFFFFFFFFFFFFFFFFFFFFFFFFF MUL NOT AND SWAP1 DUP4 PUSH20 0xFFFFFFFFFFFFFFFFFFFFFFFFFFFFFFFFFFFFFFFF AND MUL OR SWAP1 SSTORE POP DUP5 PUSH1 0x9 PUSH0 PUSH2 0x100 EXP DUP2 SLOAD DUP2 PUSH20 0xFFFFFFFFFFFFFFFFFFFFFFFFFFFFFFFFFFFFFFFF MUL NOT AND SWAP1 DUP4 PUSH20 0xFFFFFFFFFFFFFFFFFFFFFFFFFFFFFFFFFFFFFFFF AND MUL OR SWAP1 SSTORE POP DUP4 PUSH1 0xA PUSH0 PUSH2 0x100 EXP DUP2 SLOAD DUP2 PUSH20 0xFFFFFFFFFFFFFFFFFFFFFFFFFFFFFFFFFFFFFFFF MUL NOT AND SWAP1 DUP4 PUSH20 0xFFFFFFFFFFFFFFFFFFFFFFFFFFFFFFFFFFFFFFFF AND MUL OR SWAP1 SSTORE POP DUP3 PUSH1 0x6 DUP2 SWAP1 SSTORE POP POP POP POP POP POP POP PUSH2 0x6E0 JUMP JUMPDEST PUSH0 PUSH1 0x40 MLOAD SWAP1 POP SWAP1 JUMP JUMPDEST PUSH0 PUSH0 REVERT JUMPDEST PUSH0 PUSH0 REVERT JUMPDEST PUSH0 PUSH20 0xFFFFFFFFFFFFFFFFFFFFFFFFFFFFFFFFFFFFFFFF DUP3 AND SWAP1 POP SWAP2 SWAP1 POP JUMP JUMPDEST PUSH0 PUSH2 0x1A9 DUP3 PUSH2 0x180 JUMP JUMPDEST SWAP1 POP SWAP2 SWAP1 POP JUMP JUMPDEST PUSH2 0x1B9 DUP2 PUSH2 0x19F JUMP JUMPDEST DUP2 EQ PUSH2 0x1C3 JUMPI PUSH0 PUSH0 REVERT JUMPDEST POP JUMP JUMPDEST PUSH0 DUP2 MLOAD SWAP1 POP PUSH2 0x1D4 DUP2 PUSH2 0x1B0 JUMP JUMPDEST SWAP3 SWAP2 POP POP JUMP JUMPDEST PUSH0 DUP2 SWAP1 POP SWAP2 SWAP1 POP JUMP JUMPDEST PUSH2 0x1EC DUP2 PUSH2 0x1DA JUMP JUMPDEST DUP2 EQ PUSH2 0x1F6 JUMPI PUSH0 PUSH0 REVERT JUMPDEST POP JUMP JUMPDEST PUSH0 DUP2 MLOAD SWAP1 POP PUSH2 0x207 DUP2 PUSH2 0x1E3 JUMP JUMPDEST SWAP3 SWAP2 POP POP JUMP JUMPDEST PUSH0 PUSH0 REVERT JUMPDEST PUSH0 PUSH0 REVERT JUMPDEST PUSH0 PUSH1 0x1F NOT PUSH1 0x1F DUP4 ADD AND SWAP1 POP SWAP2 SWAP1 POP JUMP JUMPDEST PUSH32 0x4E487B7100000000000000000000000000000000000000000000000000000000 PUSH0 MSTORE PUSH1 0x41 PUSH1 0x4 MSTORE PUSH1 0x24 PUSH0 REVERT JUMPDEST PUSH2 0x25B DUP3 PUSH2 0x215 JUMP JUMPDEST DUP2 ADD DUP2 DUP2 LT PUSH8 0xFFFFFFFFFFFFFFFF DUP3 GT OR ISZERO PUSH2 0x27A JUMPI PUSH2 0x279 PUSH2 0x225 JUMP JUMPDEST JUMPDEST DUP1 PUSH1 0x40 MSTORE POP POP POP JUMP JUMPDEST PUSH0 PUSH2 0x28C PUSH2 0x16F JUMP JUMPDEST SWAP1 POP PUSH2 0x298 DUP3 DUP3 PUSH2 0x252 JUMP JUMPDEST SWAP2 SWAP1 POP JUMP JUMPDEST PUSH0 PUSH8 0xFFFFFFFFFFFFFFFF DUP3 GT ISZERO PUSH2 0x2B7 JUMPI PUSH2 0x2B6 PUSH2 0x225 JUMP JUMPDEST JUMPDEST PUSH2 0x2C0 DUP3 PUSH2 0x215 JUMP JUMPDEST SWAP1 POP PUSH1 0x20 DUP2 ADD SWAP1 POP SWAP2 SWAP1 POP JUMP JUMPDEST DUP3 DUP2 DUP4 MCOPY PUSH0 DUP4 DUP4 ADD MSTORE POP POP POP JUMP JUMPDEST PUSH0 PUSH2 0x2ED PUSH2 0x2E8 DUP5 PUSH2 0x29D JUMP JUMPDEST PUSH2 0x283 JUMP JUMPDEST SWAP1 POP DUP3 DUP2 MSTORE PUSH1 0x20 DUP2 ADD DUP5 DUP5 DUP5 ADD GT ISZERO PUSH2 0x309 JUMPI PUSH2 0x308 PUSH2 0x211 JUMP JUMPDEST JUMPDEST PUSH2 0x314 DUP5 DUP3 DUP6 PUSH2 0x2CD JUMP JUMPDEST POP SWAP4 SWAP3 POP POP POP JUMP JUMPDEST PUSH0 DUP3 PUSH1 0x1F DUP4 ADD SLT PUSH2 0x330 JUMPI PUSH2 0x32F PUSH2 0x20D JUMP JUMPDEST JUMPDEST DUP2 MLOAD PUSH2 0x340 DUP5 DUP3 PUSH1 0x20 DUP7 ADD PUSH2 0x2DB JUMP JUMPDEST SWAP2 POP POP SWAP3 SWAP2 POP POP JUMP JUMPDEST PUSH0 PUSH0 PUSH0 PUSH0 PUSH0 PUSH0 PUSH1 0xC0 DUP8 DUP10 SUB SLT ISZERO PUSH2 0x363 JUMPI PUSH2 0x362 PUSH2 0x178 JUMP JUMPDEST JUMPDEST PUSH0 PUSH2 0x370 DUP10 DUP3 DUP11 ADD PUSH2 0x1C6 JUMP JUMPDEST SWAP7 POP POP PUSH1 0x20 PUSH2 0x381 DUP10 DUP3 DUP11 ADD PUSH2 0x1C6 JUMP JUMPDEST SWAP6 POP POP PUSH1 0x40 PUSH2 0x392 DUP10 DUP3 DUP11 ADD PUSH2 0x1C6 JUMP JUMPDEST SWAP5 POP POP PUSH1 0x60 PUSH2 0x3A3 DUP10 DUP3 DUP11 ADD PUSH2 0x1F9 JUMP JUMPDEST SWAP4 POP POP PUSH1 0x80 DUP8 ADD MLOAD PUSH8 0xFFFFFFFFFFFFFFFF DUP2 GT ISZERO PUSH2 0x3C4 JUMPI PUSH2 0x3C3 PUSH2 0x17C JUMP JUMPDEST JUMPDEST PUSH2 0x3D0 DUP10 DUP3 DUP11 ADD PUSH2 0x31C JUMP JUMPDEST SWAP3 POP POP PUSH1 0xA0 DUP8 ADD MLOAD PUSH8 0xFFFFFFFFFFFFFFFF DUP2 GT ISZERO PUSH2 0x3F1 JUMPI PUSH2 0x3F0 PUSH2 0x17C JUMP JUMPDEST JUMPDEST PUSH2 0x3FD DUP10 DUP3 DUP11 ADD PUSH2 0x31C JUMP JUMPDEST SWAP2 POP POP SWAP3 SWAP6 POP SWAP3 SWAP6 POP SWAP3 SWAP6 JUMP JUMPDEST PUSH0 DUP2 MLOAD SWAP1 POP SWAP2 SWAP1 POP JUMP JUMPDEST PUSH32 0x4E487B7100000000000000000000000000000000000000000000000000000000 PUSH0 MSTORE PUSH1 0x22 PUSH1 0x4 MSTORE PUSH1 0x24 PUSH0 REVERT JUMPDEST PUSH0 PUSH1 0x2 DUP3 DIV SWAP1 POP PUSH1 0x1 DUP3 AND DUP1 PUSH2 0x458 JUMPI PUSH1 0x7F DUP3 AND SWAP2 POP JUMPDEST PUSH1 0x20 DUP3 LT DUP2 SUB PUSH2 0x46B JUMPI PUSH2 0x46A PUSH2 0x414 JUMP JUMPDEST JUMPDEST POP SWAP2 SWAP1 POP JUMP JUMPDEST PUSH0 DUP2 SWAP1 POP DUP2 PUSH0 MSTORE PUSH1 0x20 PUSH0 KECCAK256 SWAP1 POP SWAP2 SWAP1 POP JUMP JUMPDEST PUSH0 PUSH1 0x20 PUSH1 0x1F DUP4 ADD DIV SWAP1 POP SWAP2 SWAP1 POP JUMP JUMPDEST PUSH0 DUP3 DUP3 SHL SWAP1 POP SWAP3 SWAP2 POP POP JUMP JUMPDEST PUSH0 PUSH1 0x8 DUP4 MUL PUSH2 0x4CD PUSH32 0xFFFFFFFFFFFFFFFFFFFFFFFFFFFFFFFFFFFFFFFFFFFFFFFFFFFFFFFFFFFFFFFF DUP3 PUSH2 0x492 JUMP JUMPDEST PUSH2 0x4D7 DUP7 DUP4 PUSH2 0x492 JUMP JUMPDEST SWAP6 POP DUP1 NOT DUP5 AND SWAP4 POP DUP1 DUP7 AND DUP5 OR SWAP3 POP POP POP SWAP4 SWAP3 POP POP POP JUMP JUMPDEST PUSH0 DUP2 SWAP1 POP SWAP2 SWAP1 POP JUMP JUMPDEST PUSH0 PUSH2 0x512 PUSH2 0x50D PUSH2 0x508 DUP5 PUSH2 0x1DA JUMP JUMPDEST PUSH2 0x4EF JUMP JUMPDEST PUSH2 0x1DA JUMP JUMPDEST SWAP1 POP SWAP2 SWAP1 POP JUMP JUMPDEST PUSH0 DUP2 SWAP1 POP SWAP2 SWAP1 POP JUMP JUMPDEST PUSH2 0x52B DUP4 PUSH2 0x4F8 JUMP JUMPDEST PUSH2 0x53F PUSH2 0x537 DUP3 PUSH2 0x519 JUMP JUMPDEST DUP5 DUP5 SLOAD PUSH2 0x49E JUMP JUMPDEST DUP3 SSTORE POP POP POP POP JUMP JUMPDEST PUSH0 PUSH0 SWAP1 POP SWAP1 JUMP JUMPDEST PUSH2 0x556 PUSH2 0x547 JUMP JUMPDEST PUSH2 0x561 DUP2 DUP5 DUP5 PUSH2 0x522 JUMP JUMPDEST POP POP POP JUMP JUMPDEST JUMPDEST DUP2 DUP2 LT ISZERO PUSH2 0x584 JUMPI PUSH2 0x579 PUSH0 DUP3 PUSH2 0x54E JUMP JUMPDEST PUSH1 0x1 DUP2 ADD SWAP1 POP PUSH2 0x567 JUMP JUMPDEST POP POP JUMP JUMPDEST PUSH1 0x1F DUP3 GT ISZERO PUSH2 0x5C9 JUMPI PUSH2 0x59A DUP2 PUSH2 0x471 JUMP JUMPDEST PUSH2 0x5A3 DUP5 PUSH2 0x483 JUMP JUMPDEST DUP2 ADD PUSH1 0x20 DUP6 LT ISZERO PUSH2 0x5B2 JUMPI DUP2 SWAP1 POP JUMPDEST PUSH2 0x5C6 PUSH2 0x5BE DUP6 PUSH2 0x483 JUMP JUMPDEST DUP4 ADD DUP3 PUSH2 0x566 JUMP JUMPDEST POP POP JUMPDEST POP POP POP JUMP JUMPDEST PUSH0 DUP3 DUP3 SHR SWAP1 POP SWAP3 SWAP2 POP POP JUMP JUMPDEST PUSH0 PUSH2 0x5E9 PUSH0 NOT DUP5 PUSH1 0x8 MUL PUSH2 0x5CE JUMP JUMPDEST NOT DUP1 DUP4 AND SWAP2 POP POP SWAP3 SWAP2 POP POP JUMP JUMPDEST PUSH0 PUSH2 0x601 DUP4 DUP4 PUSH2 0x5DA JUMP JUMPDEST SWAP2 POP DUP3 PUSH1 0x2 MUL DUP3 OR SWAP1 POP SWAP3 SWAP2 POP POP JUMP JUMPDEST PUSH2 0x61A DUP3 PUSH2 0x40A JUMP JUMPDEST PUSH8 0xFFFFFFFFFFFFFFFF DUP2 GT ISZERO PUSH2 0x633 JUMPI PUSH2 0x632 PUSH2 0x225 JUMP JUMPDEST JUMPDEST PUSH2 0x63D DUP3 SLOAD PUSH2 0x441 JUMP JUMPDEST PUSH2 0x648 DUP3 DUP3 DUP6 PUSH2 0x588 JUMP JUMPDEST PUSH0 PUSH1 0x20 SWAP1 POP PUSH1 0x1F DUP4 GT PUSH1 0x1 DUP2 EQ PUSH2 0x679 JUMPI PUSH0 DUP5 ISZERO PUSH2 0x667 JUMPI DUP3 DUP8 ADD MLOAD SWAP1 POP JUMPDEST PUSH2 0x671 DUP6 DUP3 PUSH2 0x5F6 JUMP JUMPDEST DUP7 SSTORE POP PUSH2 0x6D8 JUMP JUMPDEST PUSH1 0x1F NOT DUP5 AND PUSH2 0x687 DUP7 PUSH2 0x471 JUMP JUMPDEST PUSH0 JUMPDEST DUP3 DUP2 LT ISZERO PUSH2 0x6AE JUMPI DUP5 DUP10 ADD MLOAD DUP3 SSTORE PUSH1 0x1 DUP3 ADD SWAP2 POP PUSH1 0x20 DUP6 ADD SWAP5 POP PUSH1 0x20 DUP2 ADD SWAP1 POP PUSH2 0x689 JUMP JUMPDEST DUP7 DUP4 LT ISZERO PUSH2 0x6CB JUMPI DUP5 DUP10 ADD MLOAD PUSH2 0x6C7 PUSH1 0x1F DUP10 AND DUP3 PUSH2 0x5DA JUMP JUMPDEST DUP4 SSTORE POP JUMPDEST PUSH1 0x1 PUSH1 0x2 DUP9 MUL ADD DUP9 SSTORE POP POP POP JUMPDEST POP POP POP POP POP POP JUMP JUMPDEST PUSH1 0x80 MLOAD PUSH1 0xA0 MLOAD PUSH2 0x4AF3 PUSH2 0x74E PUSH0 CODECOPY PUSH0 DUP2 DUP2 PUSH2 0x99A ADD MSTORE DUP2 DUP2 PUSH2 0xBF7 ADD MSTORE DUP2 DUP2 PUSH2 0xF73 ADD MSTORE DUP2 DUP2 PUSH2 0x11FF ADD MSTORE DUP2 DUP2 PUSH2 0x15C7 ADD MSTORE DUP2 DUP2 PUSH2 0x1A30 ADD MSTORE DUP2 DUP2 PUSH2 0x1B9C ADD MSTORE DUP2 DUP2 PUSH2 0x2029 ADD MSTORE DUP2 DUP2 PUSH2 0x23A8 ADD MSTORE PUSH2 0x2777 ADD MSTORE PUSH0 DUP2 DUP2 PUSH2 0x62D ADD MSTORE DUP2 DUP2 PUSH2 0x874 ADD MSTORE PUSH2 0x1F9F ADD MSTORE PUSH2 0x4AF3 PUSH0 RETURN INVALID PUSH1 0x80 PUSH1 0x40 MSTORE CALLVALUE DUP1 ISZERO PUSH2 0xF JUMPI PUSH0 PUSH0 REVERT JUMPDEST POP PUSH1 0x4 CALLDATASIZE LT PUSH2 0x1F9 JUMPI PUSH0 CALLDATALOAD PUSH1 0xE0 SHR DUP1 PUSH4 0x4FB2E45D GT PUSH2 0x118 JUMPI DUP1 PUSH4 0x95D89B41 GT PUSH2 0xAB JUMPI DUP1 PUSH4 0xBC2C13A4 GT PUSH2 0x7A JUMPI DUP1 PUSH4 0xBC2C13A4 EQ PUSH2 0x587 JUMPI DUP1 PUSH4 0xC45A0155 EQ PUSH2 0x5A5 JUMPI DUP1 PUSH4 0xDD62ED3E EQ PUSH2 0x5C3 JUMPI DUP1 PUSH4 0xE1A8B76C EQ PUSH2 0x5F3 JUMPI DUP1 PUSH4 0xFA43B69C EQ PUSH2 0x60F JUMPI PUSH2 0x1F9 JUMP JUMPDEST DUP1 PUSH4 0x95D89B41 EQ PUSH2 0x4FF JUMPI DUP1 PUSH4 0xA9059CBB EQ PUSH2 0x51D JUMPI DUP1 PUSH4 0xAF640D0F EQ PUSH2 0x54D JUMPI DUP1 PUSH4 0xBA0E930A EQ PUSH2 0x56B JUMPI PUSH2 0x1F9 JUMP JUMPDEST DUP1 PUSH4 0x70A08231 GT PUSH2 0xE7 JUMPI DUP1 PUSH4 0x70A08231 EQ PUSH2 0x479 JUMPI DUP1 PUSH4 0x724AA479 EQ PUSH2 0x4A9 JUMPI DUP1 PUSH4 0x8475E033 EQ PUSH2 0x4C5 JUMPI DUP1 PUSH4 0x8DA5CB5B EQ PUSH2 0x4E1 JUMPI PUSH2 0x1F9 JUMP JUMPDEST DUP1 PUSH4 0x4FB2E45D EQ PUSH2 0x3F5 JUMPI DUP1 PUSH4 0x51CFF8D9 EQ PUSH2 0x411 JUMPI DUP1 PUSH4 0x5236908B EQ PUSH2 0x42D JUMPI DUP1 PUSH4 0x668FB6DC EQ PUSH2 0x45D JUMPI PUSH2 0x1F9 JUMP JUMPDEST DUP1 PUSH4 0x2757D58C GT PUSH2 0x190 JUMPI DUP1 PUSH4 0x39A15647 GT PUSH2 0x15F JUMPI DUP1 PUSH4 0x39A15647 EQ PUSH2 0x37F JUMPI DUP1 PUSH4 0x40CFCE1B EQ PUSH2 0x39B JUMPI DUP1 PUSH4 0x46BE9C48 EQ PUSH2 0x3B9 JUMPI DUP1 PUSH4 0x481C6A75 EQ PUSH2 0x3D7 JUMPI PUSH2 0x1F9 JUMP JUMPDEST DUP1 PUSH4 0x2757D58C EQ PUSH2 0x309 JUMPI DUP1 PUSH4 0x294E3305 EQ PUSH2 0x327 JUMPI DUP1 PUSH4 0x2D1ECD21 EQ PUSH2 0x343 JUMPI DUP1 PUSH4 0x313CE567 EQ PUSH2 0x361 JUMPI PUSH2 0x1F9 JUMP JUMPDEST DUP1 PUSH4 0x18160DDD GT PUSH2 0x1CC JUMPI DUP1 PUSH4 0x18160DDD EQ PUSH2 0x283 JUMPI DUP1 PUSH4 0x1AC3DDEB EQ PUSH2 0x2A1 JUMPI DUP1 PUSH4 0x2266C1AB EQ PUSH2 0x2BD JUMPI DUP1 PUSH4 0x23B872DD EQ PUSH2 0x2D9 JUMPI PUSH2 0x1F9 JUMP JUMPDEST DUP1 PUSH4 0x2D95251 EQ PUSH2 0x1FD JUMPI DUP1 PUSH4 0x6FDDE03 EQ PUSH2 0x219 JUMPI DUP1 PUSH4 0x95EA7B3 EQ PUSH2 0x237 JUMPI DUP1 PUSH4 0x11DC2BBA EQ PUSH2 0x267 JUMPI JUMPDEST PUSH0 PUSH0 REVERT JUMPDEST PUSH2 0x217 PUSH1 0x4 DUP1 CALLDATASIZE SUB DUP2 ADD SWAP1 PUSH2 0x212 SWAP2 SWAP1 PUSH2 0x352A JUMP JUMPDEST PUSH2 0x62B JUMP JUMPDEST STOP JUMPDEST PUSH2 0x221 PUSH2 0x7B8 JUMP JUMPDEST PUSH1 0x40 MLOAD PUSH2 0x22E SWAP2 SWAP1 PUSH2 0x35C5 JUMP JUMPDEST PUSH1 0x40 MLOAD DUP1 SWAP2 SUB SWAP1 RETURN JUMPDEST PUSH2 0x251 PUSH1 0x4 DUP1 CALLDATASIZE SUB DUP2 ADD SWAP1 PUSH2 0x24C SWAP2 SWAP1 PUSH2 0x3618 JUMP JUMPDEST PUSH2 0x848 JUMP JUMPDEST PUSH1 0x40 MLOAD PUSH2 0x25E SWAP2 SWAP1 PUSH2 0x3670 JUMP JUMPDEST PUSH1 0x40 MLOAD DUP1 SWAP2 SUB SWAP1 RETURN JUMPDEST PUSH2 0x281 PUSH1 0x4 DUP1 CALLDATASIZE SUB DUP2 ADD SWAP1 PUSH2 0x27C SWAP2 SWAP1 PUSH2 0x36C6 JUMP JUMPDEST PUSH2 0x86A JUMP JUMPDEST STOP JUMPDEST PUSH2 0x28B PUSH2 0xCAF JUMP JUMPDEST PUSH1 0x40 MLOAD PUSH2 0x298 SWAP2 SWAP1 PUSH2 0x3739 JUMP JUMPDEST PUSH1 0x40 MLOAD DUP1 SWAP2 SUB SWAP1 RETURN JUMPDEST PUSH2 0x2BB PUSH1 0x4 DUP1 CALLDATASIZE SUB DUP2 ADD SWAP1 PUSH2 0x2B6 SWAP2 SWAP1 PUSH2 0x352A JUMP JUMPDEST PUSH2 0xCB8 JUMP JUMPDEST STOP JUMPDEST PUSH2 0x2D7 PUSH1 0x4 DUP1 CALLDATASIZE SUB DUP2 ADD SWAP1 PUSH2 0x2D2 SWAP2 SWAP1 PUSH2 0x3752 JUMP JUMPDEST PUSH2 0xF5B JUMP JUMPDEST STOP JUMPDEST PUSH2 0x2F3 PUSH1 0x4 DUP1 CALLDATASIZE SUB DUP2 ADD SWAP1 PUSH2 0x2EE SWAP2 SWAP1 PUSH2 0x3752 JUMP JUMPDEST PUSH2 0x101D JUMP JUMPDEST PUSH1 0x40 MLOAD PUSH2 0x300 SWAP2 SWAP1 PUSH2 0x3670 JUMP JUMPDEST PUSH1 0x40 MLOAD DUP1 SWAP2 SUB SWAP1 RETURN JUMPDEST PUSH2 0x311 PUSH2 0x104B JUMP JUMPDEST PUSH1 0x40 MLOAD PUSH2 0x31E SWAP2 SWAP1 PUSH2 0x37B1 JUMP JUMPDEST PUSH1 0x40 MLOAD DUP1 SWAP2 SUB SWAP1 RETURN JUMPDEST PUSH2 0x341 PUSH1 0x4 DUP1 CALLDATASIZE SUB DUP2 ADD SWAP1 PUSH2 0x33C SWAP2 SWAP1 PUSH2 0x381F JUMP JUMPDEST PUSH2 0x1070 JUMP JUMPDEST STOP JUMPDEST PUSH2 0x34B PUSH2 0x1096 JUMP JUMPDEST PUSH1 0x40 MLOAD PUSH2 0x358 SWAP2 SWAP1 PUSH2 0x3859 JUMP JUMPDEST PUSH1 0x40 MLOAD DUP1 SWAP2 SUB SWAP1 RETURN JUMPDEST PUSH2 0x369 PUSH2 0x10A9 JUMP JUMPDEST PUSH1 0x40 MLOAD PUSH2 0x376 SWAP2 SWAP1 PUSH2 0x388D JUMP JUMPDEST PUSH1 0x40 MLOAD DUP1 SWAP2 SUB SWAP1 RETURN JUMPDEST PUSH2 0x399 PUSH1 0x4 DUP1 CALLDATASIZE SUB DUP2 ADD SWAP1 PUSH2 0x394 SWAP2 SWAP1 PUSH2 0x38C8 JUMP JUMPDEST PUSH2 0x10B1 JUMP JUMPDEST STOP JUMPDEST PUSH2 0x3A3 PUSH2 0x12A9 JUMP JUMPDEST PUSH1 0x40 MLOAD PUSH2 0x3B0 SWAP2 SWAP1 PUSH2 0x3739 JUMP JUMPDEST PUSH1 0x40 MLOAD DUP1 SWAP2 SUB SWAP1 RETURN JUMPDEST PUSH2 0x3C1 PUSH2 0x12AF JUMP JUMPDEST PUSH1 0x40 MLOAD PUSH2 0x3CE SWAP2 SWAP1 PUSH2 0x3859 JUMP JUMPDEST PUSH1 0x40 MLOAD DUP1 SWAP2 SUB SWAP1 RETURN JUMPDEST PUSH2 0x3DF PUSH2 0x12C2 JUMP JUMPDEST PUSH1 0x40 MLOAD PUSH2 0x3EC SWAP2 SWAP1 PUSH2 0x37B1 JUMP JUMPDEST PUSH1 0x40 MLOAD DUP1 SWAP2 SUB SWAP1 RETURN JUMPDEST PUSH2 0x40F PUSH1 0x4 DUP1 CALLDATASIZE SUB DUP2 ADD SWAP1 PUSH2 0x40A SWAP2 SWAP1 PUSH2 0x352A JUMP JUMPDEST PUSH2 0x12E7 JUMP JUMPDEST STOP JUMPDEST PUSH2 0x42B PUSH1 0x4 DUP1 CALLDATASIZE SUB DUP2 ADD SWAP1 PUSH2 0x426 SWAP2 SWAP1 PUSH2 0x352A JUMP JUMPDEST PUSH2 0x1332 JUMP JUMPDEST STOP JUMPDEST PUSH2 0x447 PUSH1 0x4 DUP1 CALLDATASIZE SUB DUP2 ADD SWAP1 PUSH2 0x442 SWAP2 SWAP1 PUSH2 0x352A JUMP JUMPDEST PUSH2 0x167E JUMP JUMPDEST PUSH1 0x40 MLOAD PUSH2 0x454 SWAP2 SWAP1 PUSH2 0x394B JUMP JUMPDEST PUSH1 0x40 MLOAD DUP1 SWAP2 SUB SWAP1 RETURN JUMPDEST PUSH2 0x477 PUSH1 0x4 DUP1 CALLDATASIZE SUB DUP2 ADD SWAP1 PUSH2 0x472 SWAP2 SWAP1 PUSH2 0x352A JUMP JUMPDEST PUSH2 0x1736 JUMP JUMPDEST STOP JUMPDEST PUSH2 0x493 PUSH1 0x4 DUP1 CALLDATASIZE SUB DUP2 ADD SWAP1 PUSH2 0x48E SWAP2 SWAP1 PUSH2 0x352A JUMP JUMPDEST PUSH2 0x19D3 JUMP JUMPDEST PUSH1 0x40 MLOAD PUSH2 0x4A0 SWAP2 SWAP1 PUSH2 0x3739 JUMP JUMPDEST PUSH1 0x40 MLOAD DUP1 SWAP2 SUB SWAP1 RETURN JUMPDEST PUSH2 0x4C3 PUSH1 0x4 DUP1 CALLDATASIZE SUB DUP2 ADD SWAP1 PUSH2 0x4BE SWAP2 SWAP1 PUSH2 0x3752 JUMP JUMPDEST PUSH2 0x1A18 JUMP JUMPDEST STOP JUMPDEST PUSH2 0x4DF PUSH1 0x4 DUP1 CALLDATASIZE SUB DUP2 ADD SWAP1 PUSH2 0x4DA SWAP2 SWAP1 PUSH2 0x3982 JUMP JUMPDEST PUSH2 0x1ADA JUMP JUMPDEST STOP JUMPDEST PUSH2 0x4E9 PUSH2 0x1CA8 JUMP JUMPDEST PUSH1 0x40 MLOAD PUSH2 0x4F6 SWAP2 SWAP1 PUSH2 0x37B1 JUMP JUMPDEST PUSH1 0x40 MLOAD DUP1 SWAP2 SUB SWAP1 RETURN JUMPDEST PUSH2 0x507 PUSH2 0x1CCD JUMP JUMPDEST PUSH1 0x40 MLOAD PUSH2 0x514 SWAP2 SWAP1 PUSH2 0x35C5 JUMP JUMPDEST PUSH1 0x40 MLOAD DUP1 SWAP2 SUB SWAP1 RETURN JUMPDEST PUSH2 0x537 PUSH1 0x4 DUP1 CALLDATASIZE SUB DUP2 ADD SWAP1 PUSH2 0x532 SWAP2 SWAP1 PUSH2 0x3618 JUMP JUMPDEST PUSH2 0x1D5D JUMP JUMPDEST PUSH1 0x40 MLOAD PUSH2 0x544 SWAP2 SWAP1 PUSH2 0x3670 JUMP JUMPDEST PUSH1 0x40 MLOAD DUP1 SWAP2 SUB SWAP1 RETURN JUMPDEST PUSH2 0x555 PUSH2 0x1D7F JUMP JUMPDEST PUSH1 0x40 MLOAD PUSH2 0x562 SWAP2 SWAP1 PUSH2 0x3739 JUMP JUMPDEST PUSH1 0x40 MLOAD DUP1 SWAP2 SUB SWAP1 RETURN JUMPDEST PUSH2 0x585 PUSH1 0x4 DUP1 CALLDATASIZE SUB DUP2 ADD SWAP1 PUSH2 0x580 SWAP2 SWAP1 PUSH2 0x352A JUMP JUMPDEST PUSH2 0x1D85 JUMP JUMPDEST STOP JUMPDEST PUSH2 0x58F PUSH2 0x1DD0 JUMP JUMPDEST PUSH1 0x40 MLOAD PUSH2 0x59C SWAP2 SWAP1 PUSH2 0x39BC JUMP JUMPDEST PUSH1 0x40 MLOAD DUP1 SWAP2 SUB SWAP1 RETURN JUMPDEST PUSH2 0x5AD PUSH2 0x1DEA JUMP JUMPDEST PUSH1 0x40 MLOAD PUSH2 0x5BA SWAP2 SWAP1 PUSH2 0x37B1 JUMP JUMPDEST PUSH1 0x40 MLOAD DUP1 SWAP2 SUB SWAP1 RETURN JUMPDEST PUSH2 0x5DD PUSH1 0x4 DUP1 CALLDATASIZE SUB DUP2 ADD SWAP1 PUSH2 0x5D8 SWAP2 SWAP1 PUSH2 0x39D5 JUMP JUMPDEST PUSH2 0x1E0F JUMP JUMPDEST PUSH1 0x40 MLOAD PUSH2 0x5EA SWAP2 SWAP1 PUSH2 0x3739 JUMP JUMPDEST PUSH1 0x40 MLOAD DUP1 SWAP2 SUB SWAP1 RETURN JUMPDEST PUSH2 0x60D PUSH1 0x4 DUP1 CALLDATASIZE SUB DUP2 ADD SWAP1 PUSH2 0x608 SWAP2 SWAP1 PUSH2 0x3A4C JUMP JUMPDEST PUSH2 0x1E91 JUMP JUMPDEST STOP JUMPDEST PUSH2 0x629 PUSH1 0x4 DUP1 CALLDATASIZE SUB DUP2 ADD SWAP1 PUSH2 0x624 SWAP2 SWAP1 PUSH2 0x3AE7 JUMP JUMPDEST PUSH2 0x1EC1 JUMP JUMPDEST STOP JUMPDEST PUSH32 0x0 PUSH31 0xFFFFFFFFFFFFFFFFFFFFFFFFFFFFFFFFFFFFFFFFFFFFFFFFFFFFFFFFFFFFFF NOT AND PUSH1 0xA PUSH1 0x15 SWAP1 SLOAD SWAP1 PUSH2 0x100 EXP SWAP1 DIV PUSH1 0xF8 SHL PUSH31 0xFFFFFFFFFFFFFFFFFFFFFFFFFFFFFFFFFFFFFFFFFFFFFFFFFFFFFFFFFFFFFF NOT AND EQ PUSH2 0x6E0 JUMPI PUSH1 0x40 MLOAD PUSH32 0x8C379A000000000000000000000000000000000000000000000000000000000 DUP2 MSTORE PUSH1 0x4 ADD PUSH2 0x6D7 SWAP1 PUSH2 0x3B5C JUMP JUMPDEST PUSH1 0x40 MLOAD DUP1 SWAP2 SUB SWAP1 REVERT JUMPDEST PUSH1 0xA PUSH0 SWAP1 SLOAD SWAP1 PUSH2 0x100 EXP SWAP1 DIV PUSH20 0xFFFFFFFFFFFFFFFFFFFFFFFFFFFFFFFFFFFFFFFF AND PUSH20 0xFFFFFFFFFFFFFFFFFFFFFFFFFFFFFFFFFFFFFFFF AND CALLER PUSH20 0xFFFFFFFFFFFFFFFFFFFFFFFFFFFFFFFFFFFFFFFF AND EQ DUP1 PUSH2 0x76D JUMPI POP PUSH2 0x73E PUSH2 0x1EE9 JUMP JUMPDEST PUSH20 0xFFFFFFFFFFFFFFFFFFFFFFFFFFFFFFFFFFFFFFFF AND CALLER PUSH20 0xFFFFFFFFFFFFFFFFFFFFFFFFFFFFFFFFFFFFFFFF AND EQ JUMPDEST PUSH2 0x7AC JUMPI PUSH1 0x40 MLOAD PUSH32 0x8C379A000000000000000000000000000000000000000000000000000000000 DUP2 MSTORE PUSH1 0x4 ADD PUSH2 0x7A3 SWAP1 PUSH2 0x3BC4 JUMP JUMPDEST PUSH1 0x40 MLOAD DUP1 SWAP2 SUB SWAP1 REVERT JUMPDEST PUSH2 0x7B5 DUP2 PUSH2 0x1F7D JUMP JUMPDEST POP JUMP JUMPDEST PUSH1 0x60 PUSH1 0x3 DUP1 SLOAD PUSH2 0x7C7 SWAP1 PUSH2 0x3C0F JUMP JUMPDEST DUP1 PUSH1 0x1F ADD PUSH1 0x20 DUP1 SWAP2 DIV MUL PUSH1 0x20 ADD PUSH1 0x40 MLOAD SWAP1 DUP2 ADD PUSH1 0x40 MSTORE DUP1 SWAP3 SWAP2 SWAP1 DUP2 DUP2 MSTORE PUSH1 0x20 ADD DUP3 DUP1 SLOAD PUSH2 0x7F3 SWAP1 PUSH2 0x3C0F JUMP JUMPDEST DUP1 ISZERO PUSH2 0x83E JUMPI DUP1 PUSH1 0x1F LT PUSH2 0x815 JUMPI PUSH2 0x100 DUP1 DUP4 SLOAD DIV MUL DUP4 MSTORE SWAP2 PUSH1 0x20 ADD SWAP2 PUSH2 0x83E JUMP JUMPDEST DUP3 ADD SWAP2 SWAP1 PUSH0 MSTORE PUSH1 0x20 PUSH0 KECCAK256 SWAP1 JUMPDEST DUP2 SLOAD DUP2 MSTORE SWAP1 PUSH1 0x1 ADD SWAP1 PUSH1 0x20 ADD DUP1 DUP4 GT PUSH2 0x821 JUMPI DUP3 SWAP1 SUB PUSH1 0x1F AND DUP3 ADD SWAP2 JUMPDEST POP POP POP POP POP SWAP1 POP SWAP1 JUMP JUMPDEST PUSH0 PUSH0 PUSH2 0x852 PUSH2 0x2068 JUMP JUMPDEST SWAP1 POP PUSH2 0x85F DUP2 DUP6 DUP6 PUSH2 0x206F JUMP JUMPDEST PUSH1 0x1 SWAP2 POP POP SWAP3 SWAP2 POP POP JUMP JUMPDEST PUSH2 0x872 PUSH2 0x2081 JUMP JUMPDEST PUSH32 0x0 PUSH31 0xFFFFFFFFFFFFFFFFFFFFFFFFFFFFFFFFFFFFFFFFFFFFFFFFFFFFFFFFFFFFFF NOT AND PUSH1 0xA PUSH1 0x14 SWAP1 SLOAD SWAP1 PUSH2 0x100 EXP SWAP1 DIV PUSH1 0xF8 SHL PUSH31 0xFFFFFFFFFFFFFFFFFFFFFFFFFFFFFFFFFFFFFFFFFFFFFFFFFFFFFFFFFFFFFF NOT AND EQ PUSH2 0x927 JUMPI PUSH1 0x40 MLOAD PUSH32 0x8C379A000000000000000000000000000000000000000000000000000000000 DUP2 MSTORE PUSH1 0x4 ADD PUSH2 0x91E SWAP1 PUSH2 0x3C89 JUMP JUMPDEST PUSH1 0x40 MLOAD DUP1 SWAP2 SUB SWAP1 REVERT JUMPDEST PUSH0 TIMESTAMP SWAP1 POP PUSH0 PUSH2 0x934 PUSH2 0x20C7 JUMP JUMPDEST PUSH1 0x60 ADD MLOAD SWAP1 POP PUSH0 PUSH2 0x943 PUSH2 0x20C7 JUMP JUMPDEST PUSH1 0x80 ADD MLOAD SWAP1 POP PUSH2 0x980 CALLER ADDRESS DUP10 PUSH8 0xFFFFFFFFFFFFFFFF AND DUP10 PUSH20 0xFFFFFFFFFFFFFFFFFFFFFFFFFFFFFFFFFFFFFFFF AND PUSH2 0x2170 SWAP1 SWAP4 SWAP3 SWAP2 SWAP1 PUSH4 0xFFFFFFFF AND JUMP JUMPDEST PUSH0 PUSH2 0x996 DUP7 DUP9 DUP11 PUSH8 0xFFFFFFFFFFFFFFFF AND PUSH2 0x21F2 JUMP JUMPDEST SWAP1 POP PUSH32 0x0 PUSH31 0xFFFFFFFFFFFFFFFFFFFFFFFFFFFFFFFFFFFFFFFFFFFFFFFFFFFFFFFFFFFFFF NOT AND DUP2 PUSH31 0xFFFFFFFFFFFFFFFFFFFFFFFFFFFFFFFFFFFFFFFFFFFFFFFFFFFFFFFFFFFFFF NOT AND EQ PUSH2 0xA3E JUMPI PUSH1 0x40 MLOAD PUSH32 0x8C379A000000000000000000000000000000000000000000000000000000000 DUP2 MSTORE PUSH1 0x4 ADD PUSH2 0xA35 SWAP1 PUSH2 0x3CF1 JUMP JUMPDEST PUSH1 0x40 MLOAD DUP1 SWAP2 SUB SWAP1 REVERT JUMPDEST PUSH0 DUP9 DUP6 DUP5 PUSH2 0xA4C SWAP2 SWAP1 PUSH2 0x3D3C JUMP JUMPDEST PUSH2 0xA56 SWAP2 SWAP1 PUSH2 0x3D77 JUMP JUMPDEST PUSH8 0xFFFFFFFFFFFFFFFF AND SWAP1 POP DUP9 PUSH1 0xA PUSH1 0x18 DUP3 DUP3 DUP3 SWAP1 SLOAD SWAP1 PUSH2 0x100 EXP SWAP1 DIV PUSH8 0xFFFFFFFFFFFFFFFF AND PUSH2 0xA87 SWAP2 SWAP1 PUSH2 0x3DB3 JUMP JUMPDEST SWAP3 POP PUSH2 0x100 EXP DUP2 SLOAD DUP2 PUSH8 0xFFFFFFFFFFFFFFFF MUL NOT AND SWAP1 DUP4 PUSH8 0xFFFFFFFFFFFFFFFF AND MUL OR SWAP1 SSTORE POP DUP9 PUSH1 0xC PUSH0 DUP9 PUSH20 0xFFFFFFFFFFFFFFFFFFFFFFFFFFFFFFFFFFFFFFFF AND PUSH20 0xFFFFFFFFFFFFFFFFFFFFFFFFFFFFFFFFFFFFFFFF AND DUP2 MSTORE PUSH1 0x20 ADD SWAP1 DUP2 MSTORE PUSH1 0x20 ADD PUSH0 KECCAK256 PUSH0 ADD PUSH1 0x8 DUP3 DUP3 DUP3 SWAP1 SLOAD SWAP1 PUSH2 0x100 EXP SWAP1 DIV PUSH8 0xFFFFFFFFFFFFFFFF AND PUSH2 0xB0F SWAP2 SWAP1 PUSH2 0x3DB3 JUMP JUMPDEST SWAP3 POP PUSH2 0x100 EXP DUP2 SLOAD DUP2 PUSH8 0xFFFFFFFFFFFFFFFF MUL NOT AND SWAP1 DUP4 PUSH8 0xFFFFFFFFFFFFFFFF AND MUL OR SWAP1 SSTORE POP DUP5 PUSH1 0xC PUSH0 DUP9 PUSH20 0xFFFFFFFFFFFFFFFFFFFFFFFFFFFFFFFFFFFFFFFF AND PUSH20 0xFFFFFFFFFFFFFFFFFFFFFFFFFFFFFFFFFFFFFFFF AND DUP2 MSTORE PUSH1 0x20 ADD SWAP1 DUP2 MSTORE PUSH1 0x20 ADD PUSH0 KECCAK256 PUSH0 ADD PUSH0 PUSH2 0x100 EXP DUP2 SLOAD DUP2 PUSH8 0xFFFFFFFFFFFFFFFF MUL NOT AND SWAP1 DUP4 PUSH8 0xFFFFFFFFFFFFFFFF AND MUL OR SWAP1 SSTORE POP DUP9 PUSH8 0xFFFFFFFFFFFFFFFF AND DUP7 PUSH20 0xFFFFFFFFFFFFFFFFFFFFFFFFFFFFFFFFFFFFFFFF AND PUSH32 0xF6E1F23E731F4E7E928AE854AA205A984E7570D342CCB028D781C80F9CF72433 PUSH1 0x40 MLOAD PUSH1 0x40 MLOAD DUP1 SWAP2 SUB SWAP1 LOG3 PUSH0 PUSH2 0xBF3 DUP8 DUP4 PUSH2 0x23D2 JUMP JUMPDEST SWAP1 POP PUSH32 0x0 PUSH31 0xFFFFFFFFFFFFFFFFFFFFFFFFFFFFFFFFFFFFFFFFFFFFFFFFFFFFFFFFFFFFFF NOT AND DUP2 PUSH31 0xFFFFFFFFFFFFFFFFFFFFFFFFFFFFFFFFFFFFFFFFFFFFFFFFFFFFFFFFFFFFFF NOT AND EQ PUSH2 0xC9B JUMPI PUSH1 0x40 MLOAD PUSH32 0x8C379A000000000000000000000000000000000000000000000000000000000 DUP2 MSTORE PUSH1 0x4 ADD PUSH2 0xC92 SWAP1 PUSH2 0x3E38 JUMP JUMPDEST PUSH1 0x40 MLOAD DUP1 SWAP2 SUB SWAP1 REVERT JUMPDEST POP POP POP POP POP POP PUSH2 0xCA9 PUSH2 0x23EA JUMP JUMPDEST POP POP POP POP JUMP JUMPDEST PUSH0 PUSH1 0x2 SLOAD SWAP1 POP SWAP1 JUMP JUMPDEST PUSH2 0xCC0 PUSH2 0x2081 JUMP JUMPDEST PUSH2 0xCC8 PUSH2 0x23F4 JUMP JUMPDEST PUSH0 PUSH2 0xCD1 PUSH2 0x20C7 JUMP JUMPDEST PUSH1 0x20 ADD MLOAD SWAP1 POP PUSH0 PUSH2 0xCE0 PUSH2 0x20C7 JUMP JUMPDEST PUSH1 0x80 ADD MLOAD SWAP1 POP PUSH0 PUSH2 0xCEF PUSH2 0x20C7 JUMP JUMPDEST PUSH1 0xE0 ADD MLOAD SWAP1 POP PUSH0 PUSH20 0xFFFFFFFFFFFFFFFFFFFFFFFFFFFFFFFFFFFFFFFF AND DUP2 PUSH20 0xFFFFFFFFFFFFFFFFFFFFFFFFFFFFFFFFFFFFFFFF AND SUB PUSH2 0xD2C JUMPI PUSH0 PUSH0 REVERT JUMPDEST PUSH0 ISZERO ISZERO PUSH1 0xD PUSH0 PUSH1 0xA PUSH0 SWAP1 SLOAD SWAP1 PUSH2 0x100 EXP SWAP1 DIV PUSH20 0xFFFFFFFFFFFFFFFFFFFFFFFFFFFFFFFFFFFFFFFF AND PUSH20 0xFFFFFFFFFFFFFFFFFFFFFFFFFFFFFFFFFFFFFFFF AND PUSH20 0xFFFFFFFFFFFFFFFFFFFFFFFFFFFFFFFFFFFFFFFF AND DUP2 MSTORE PUSH1 0x20 ADD SWAP1 DUP2 MSTORE PUSH1 0x20 ADD PUSH0 KECCAK256 PUSH0 SWAP1 SLOAD SWAP1 PUSH2 0x100 EXP SWAP1 DIV PUSH1 0xFF AND ISZERO ISZERO EQ PUSH2 0xDDC JUMPI PUSH1 0x40 MLOAD PUSH32 0x8C379A000000000000000000000000000000000000000000000000000000000 DUP2 MSTORE PUSH1 0x4 ADD PUSH2 0xDD3 SWAP1 PUSH2 0x3EA0 JUMP JUMPDEST PUSH1 0x40 MLOAD DUP1 SWAP2 SUB SWAP1 REVERT JUMPDEST PUSH1 0xA PUSH1 0x18 SWAP1 SLOAD SWAP1 PUSH2 0x100 EXP SWAP1 DIV PUSH8 0xFFFFFFFFFFFFFFFF AND PUSH8 0xFFFFFFFFFFFFFFFF AND PUSH1 0xB SLOAD GT ISZERO PUSH2 0xF4D JUMPI PUSH0 PUSH2 0xE2A DUP5 PUSH1 0xA PUSH1 0x18 SWAP1 SLOAD SWAP1 PUSH2 0x100 EXP SWAP1 DIV PUSH8 0xFFFFFFFFFFFFFFFF AND PUSH1 0xB SLOAD PUSH2 0x2485 JUMP JUMPDEST SWAP1 POP DUP5 PUSH20 0xFFFFFFFFFFFFFFFFFFFFFFFFFFFFFFFFFFFFFFFF AND PUSH4 0x95EA7B3 DUP4 DUP4 PUSH1 0x40 MLOAD DUP4 PUSH4 0xFFFFFFFF AND PUSH1 0xE0 SHL DUP2 MSTORE PUSH1 0x4 ADD PUSH2 0xE67 SWAP3 SWAP2 SWAP1 PUSH2 0x3EBE JUMP JUMPDEST PUSH1 0x20 PUSH1 0x40 MLOAD DUP1 DUP4 SUB DUP2 PUSH0 DUP8 GAS CALL ISZERO DUP1 ISZERO PUSH2 0xE83 JUMPI RETURNDATASIZE PUSH0 PUSH0 RETURNDATACOPY RETURNDATASIZE PUSH0 REVERT JUMPDEST POP POP POP POP PUSH1 0x40 MLOAD RETURNDATASIZE PUSH1 0x1F NOT PUSH1 0x1F DUP3 ADD AND DUP3 ADD DUP1 PUSH1 0x40 MSTORE POP DUP2 ADD SWAP1 PUSH2 0xEA7 SWAP2 SWAP1 PUSH2 0x3F0F JUMP JUMPDEST POP PUSH1 0x1 PUSH1 0xD PUSH0 PUSH1 0xA PUSH0 SWAP1 SLOAD SWAP1 PUSH2 0x100 EXP SWAP1 DIV PUSH20 0xFFFFFFFFFFFFFFFFFFFFFFFFFFFFFFFFFFFFFFFF AND PUSH20 0xFFFFFFFFFFFFFFFFFFFFFFFFFFFFFFFFFFFFFFFF AND PUSH20 0xFFFFFFFFFFFFFFFFFFFFFFFFFFFFFFFFFFFFFFFF AND DUP2 MSTORE PUSH1 0x20 ADD SWAP1 DUP2 MSTORE PUSH1 0x20 ADD PUSH0 KECCAK256 PUSH0 PUSH2 0x100 EXP DUP2 SLOAD DUP2 PUSH1 0xFF MUL NOT AND SWAP1 DUP4 ISZERO ISZERO MUL OR SWAP1 SSTORE POP PUSH2 0xF4B ADDRESS DUP4 DUP4 DUP9 PUSH20 0xFFFFFFFFFFFFFFFFFFFFFFFFFFFFFFFFFFFFFFFF AND PUSH2 0x2170 SWAP1 SWAP4 SWAP3 SWAP2 SWAP1 PUSH4 0xFFFFFFFF AND JUMP JUMPDEST POP JUMPDEST POP POP POP PUSH2 0xF58 PUSH2 0x23EA JUMP JUMPDEST POP JUMP JUMPDEST PUSH2 0xF63 PUSH2 0x24E8 JUMP JUMPDEST PUSH0 PUSH2 0xF6F DUP5 DUP5 DUP5 PUSH2 0x2579 JUMP JUMPDEST SWAP1 POP PUSH32 0x0 PUSH31 0xFFFFFFFFFFFFFFFFFFFFFFFFFFFFFFFFFFFFFFFFFFFFFFFFFFFFFFFFFFFFFF NOT AND DUP2 PUSH31 0xFFFFFFFFFFFFFFFFFFFFFFFFFFFFFFFFFFFFFFFFFFFFFFFFFFFFFFFFFFFFFF NOT AND EQ PUSH2 0x1017 JUMPI PUSH1 0x40 MLOAD PUSH32 0x8C379A000000000000000000000000000000000000000000000000000000000 DUP2 MSTORE PUSH1 0x4 ADD PUSH2 0x100E SWAP1 PUSH2 0x3F84 JUMP JUMPDEST PUSH1 0x40 MLOAD DUP1 SWAP2 SUB SWAP1 REVERT JUMPDEST POP POP POP POP JUMP JUMPDEST PUSH0 PUSH0 PUSH2 0x1027 PUSH2 0x2068 JUMP JUMPDEST SWAP1 POP PUSH2 0x1034 DUP6 DUP3 DUP6 PUSH2 0x27A2 JUMP JUMPDEST PUSH2 0x103F DUP6 DUP6 DUP6 PUSH2 0x2834 JUMP JUMPDEST PUSH1 0x1 SWAP2 POP POP SWAP4 SWAP3 POP POP POP JUMP JUMPDEST PUSH1 0x8 PUSH0 SWAP1 SLOAD SWAP1 PUSH2 0x100 EXP SWAP1 DIV PUSH20 0xFFFFFFFFFFFFFFFFFFFFFFFFFFFFFFFFFFFFFFFF AND DUP2 JUMP JUMPDEST PUSH2 0x1078 PUSH2 0x24E8 JUMP JUMPDEST DUP1 PUSH1 0xA PUSH1 0x14 PUSH2 0x100 EXP DUP2 SLOAD DUP2 PUSH1 0xFF MUL NOT AND SWAP1 DUP4 PUSH1 0xF8 SHR MUL OR SWAP1 SSTORE POP POP JUMP JUMPDEST PUSH1 0xA PUSH1 0x15 SWAP1 SLOAD SWAP1 PUSH2 0x100 EXP SWAP1 DIV PUSH1 0xF8 SHL DUP2 JUMP JUMPDEST PUSH0 PUSH1 0xA SWAP1 POP SWAP1 JUMP JUMPDEST PUSH2 0x10B9 PUSH2 0x24E8 JUMP JUMPDEST PUSH2 0x10D4 DUP2 PUSH1 0x40 ADD PUSH1 0x20 DUP2 ADD SWAP1 PUSH2 0x10CF SWAP2 SWAP1 PUSH2 0x352A JUMP JUMPDEST PUSH2 0x1F7D JUMP JUMPDEST PUSH0 PUSH2 0x10DD PUSH2 0x20C7 JUMP JUMPDEST PUSH1 0xC0 ADD MLOAD SWAP1 POP DUP1 PUSH20 0xFFFFFFFFFFFFFFFFFFFFFFFFFFFFFFFFFFFFFFFF AND PUSH4 0x7332F2B5 DUP4 DUP1 PUSH0 ADD SWAP1 PUSH2 0x110E SWAP2 SWAP1 PUSH2 0x3FAE JUMP JUMPDEST DUP6 DUP1 PUSH1 0x20 ADD SWAP1 PUSH2 0x111E SWAP2 SWAP1 PUSH2 0x3FAE JUMP JUMPDEST PUSH1 0x40 MLOAD DUP6 PUSH4 0xFFFFFFFF AND PUSH1 0xE0 SHL DUP2 MSTORE PUSH1 0x4 ADD PUSH2 0x113D SWAP5 SWAP4 SWAP3 SWAP2 SWAP1 PUSH2 0x405A JUMP JUMPDEST PUSH0 PUSH1 0x40 MLOAD DUP1 DUP4 SUB DUP2 PUSH0 DUP8 DUP1 EXTCODESIZE ISZERO DUP1 ISZERO PUSH2 0x1154 JUMPI PUSH0 PUSH0 REVERT JUMPDEST POP GAS CALL ISZERO DUP1 ISZERO PUSH2 0x1166 JUMPI RETURNDATASIZE PUSH0 PUSH0 RETURNDATACOPY RETURNDATASIZE PUSH0 REVERT JUMPDEST POP POP POP POP PUSH0 PUSH2 0x1187 DUP4 PUSH1 0x40 ADD PUSH1 0x20 DUP2 ADD SWAP1 PUSH2 0x1181 SWAP2 SWAP1 PUSH2 0x352A JUMP JUMPDEST ADDRESS PUSH2 0x2924 JUMP JUMPDEST SWAP1 POP PUSH0 DUP2 GT PUSH2 0x11CB JUMPI PUSH1 0x40 MLOAD PUSH32 0x8C379A000000000000000000000000000000000000000000000000000000000 DUP2 MSTORE PUSH1 0x4 ADD PUSH2 0x11C2 SWAP1 PUSH2 0x40DD JUMP JUMPDEST PUSH1 0x40 MLOAD DUP1 SWAP2 SUB SWAP1 REVERT JUMPDEST PUSH0 PUSH2 0x11FB DUP5 PUSH1 0x60 ADD PUSH1 0x20 DUP2 ADD SWAP1 PUSH2 0x11E2 SWAP2 SWAP1 PUSH2 0x352A JUMP JUMPDEST DUP6 PUSH1 0x40 ADD PUSH1 0x20 DUP2 ADD SWAP1 PUSH2 0x11F5 SWAP2 SWAP1 PUSH2 0x352A JUMP JUMPDEST DUP5 PUSH2 0x21F2 JUMP JUMPDEST SWAP1 POP PUSH32 0x0 PUSH31 0xFFFFFFFFFFFFFFFFFFFFFFFFFFFFFFFFFFFFFFFFFFFFFFFFFFFFFFFFFFFFFF NOT AND DUP2 PUSH31 0xFFFFFFFFFFFFFFFFFFFFFFFFFFFFFFFFFFFFFFFFFFFFFFFFFFFFFFFFFFFFFF NOT AND EQ PUSH2 0x12A3 JUMPI PUSH1 0x40 MLOAD PUSH32 0x8C379A000000000000000000000000000000000000000000000000000000000 DUP2 MSTORE PUSH1 0x4 ADD PUSH2 0x129A SWAP1 PUSH2 0x4145 JUMP JUMPDEST PUSH1 0x40 MLOAD DUP1 SWAP2 SUB SWAP1 REVERT JUMPDEST POP POP POP POP JUMP JUMPDEST PUSH1 0xB SLOAD DUP2 JUMP JUMPDEST PUSH1 0xA PUSH1 0x14 SWAP1 SLOAD SWAP1 PUSH2 0x100 EXP SWAP1 DIV PUSH1 0xF8 SHL DUP2 JUMP JUMPDEST PUSH1 0xA PUSH0 SWAP1 SLOAD SWAP1 PUSH2 0x100 EXP SWAP1 DIV PUSH20 0xFFFFFFFFFFFFFFFFFFFFFFFFFFFFFFFFFFFFFFFF AND DUP2 JUMP JUMPDEST PUSH2 0x12EF PUSH2 0x23F4 JUMP JUMPDEST DUP1 PUSH1 0x9 PUSH0 PUSH2 0x100 EXP DUP2 SLOAD DUP2 PUSH20 0xFFFFFFFFFFFFFFFFFFFFFFFFFFFFFFFFFFFFFFFF MUL NOT AND SWAP1 DUP4 PUSH20 0xFFFFFFFFFFFFFFFFFFFFFFFFFFFFFFFFFFFFFFFF AND MUL OR SWAP1 SSTORE POP POP JUMP JUMPDEST PUSH2 0x133A PUSH2 0x2081 JUMP JUMPDEST PUSH0 PUSH2 0x1343 PUSH2 0x20C7 JUMP JUMPDEST PUSH1 0x80 ADD MLOAD SWAP1 POP PUSH0 PUSH2 0x1352 PUSH2 0x20C7 JUMP JUMPDEST PUSH1 0x20 ADD MLOAD SWAP1 POP PUSH0 PUSH2 0x1361 PUSH2 0x20C7 JUMP JUMPDEST PUSH1 0x40 ADD MLOAD SWAP1 POP PUSH0 PUSH1 0xC PUSH0 CALLER PUSH20 0xFFFFFFFFFFFFFFFFFFFFFFFFFFFFFFFFFFFFFFFF AND PUSH20 0xFFFFFFFFFFFFFFFFFFFFFFFFFFFFFFFFFFFFFFFF AND DUP2 MSTORE PUSH1 0x20 ADD SWAP1 DUP2 MSTORE PUSH1 0x20 ADD PUSH0 KECCAK256 PUSH0 ADD PUSH1 0x8 SWAP1 SLOAD SWAP1 PUSH2 0x100 EXP SWAP1 DIV PUSH8 0xFFFFFFFFFFFFFFFF AND SWAP1 POP PUSH0 PUSH2 0x13C8 CALLER PUSH2 0x19D3 JUMP JUMPDEST SWAP1 POP PUSH0 PUSH2 0x13D3 PUSH2 0xCAF JUMP JUMPDEST SWAP1 POP PUSH0 PUSH1 0xB SLOAD GT PUSH2 0x1419 JUMPI PUSH1 0x40 MLOAD PUSH32 0x8C379A000000000000000000000000000000000000000000000000000000000 DUP2 MSTORE PUSH1 0x4 ADD PUSH2 0x1410 SWAP1 PUSH2 0x41AD JUMP JUMPDEST PUSH1 0x40 MLOAD DUP1 SWAP2 SUB SWAP1 REVERT JUMPDEST PUSH0 PUSH2 0x1441 DUP7 DUP7 DUP7 PUSH1 0xA PUSH1 0x18 SWAP1 SLOAD SWAP1 PUSH2 0x100 EXP SWAP1 DIV PUSH8 0xFFFFFFFFFFFFFFFF AND DUP8 PUSH1 0xB SLOAD DUP9 PUSH2 0x29A5 JUMP JUMPDEST SWAP1 POP PUSH0 DUP2 GT PUSH2 0x1485 JUMPI PUSH1 0x40 MLOAD PUSH32 0x8C379A000000000000000000000000000000000000000000000000000000000 DUP2 MSTORE PUSH1 0x4 ADD PUSH2 0x147C SWAP1 PUSH2 0x4215 JUMP JUMPDEST PUSH1 0x40 MLOAD DUP1 SWAP2 SUB SWAP1 REVERT JUMPDEST PUSH2 0x14B0 CALLER DUP3 DUP11 PUSH20 0xFFFFFFFFFFFFFFFFFFFFFFFFFFFFFFFFFFFFFFFF AND PUSH2 0x2A7C SWAP1 SWAP3 SWAP2 SWAP1 PUSH4 0xFFFFFFFF AND JUMP JUMPDEST PUSH0 DUP5 PUSH8 0xFFFFFFFFFFFFFFFF AND GT ISZERO PUSH2 0x1574 JUMPI PUSH0 PUSH1 0xC PUSH0 CALLER PUSH20 0xFFFFFFFFFFFFFFFFFFFFFFFFFFFFFFFFFFFFFFFF AND PUSH20 0xFFFFFFFFFFFFFFFFFFFFFFFFFFFFFFFFFFFFFFFF AND DUP2 MSTORE PUSH1 0x20 ADD SWAP1 DUP2 MSTORE PUSH1 0x20 ADD PUSH0 KECCAK256 PUSH0 ADD PUSH1 0x8 PUSH2 0x100 EXP DUP2 SLOAD DUP2 PUSH8 0xFFFFFFFFFFFFFFFF MUL NOT AND SWAP1 DUP4 PUSH8 0xFFFFFFFFFFFFFFFF AND MUL OR SWAP1 SSTORE POP DUP4 PUSH1 0xA PUSH1 0x18 DUP3 DUP3 DUP3 SWAP1 SLOAD SWAP1 PUSH2 0x100 EXP SWAP1 DIV PUSH8 0xFFFFFFFFFFFFFFFF AND PUSH2 0x154D SWAP2 SWAP1 PUSH2 0x3D3C JUMP JUMPDEST SWAP3 POP PUSH2 0x100 EXP DUP2 SLOAD DUP2 PUSH8 0xFFFFFFFFFFFFFFFF MUL NOT AND SWAP1 DUP4 PUSH8 0xFFFFFFFFFFFFFFFF AND MUL OR SWAP1 SSTORE POP JUMPDEST DUP1 CALLER PUSH20 0xFFFFFFFFFFFFFFFFFFFFFFFFFFFFFFFFFFFFFFFF AND PUSH32 0x98824D89D47225910D3E61AA38B640D29D58B43E2DC47B4D986A588C88E0A2A8 PUSH1 0x40 MLOAD PUSH1 0x40 MLOAD DUP1 SWAP2 SUB SWAP1 LOG3 PUSH0 PUSH2 0x15C3 CALLER DUP6 PUSH2 0x2AFB JUMP JUMPDEST SWAP1 POP PUSH32 0x0 PUSH31 0xFFFFFFFFFFFFFFFFFFFFFFFFFFFFFFFFFFFFFFFFFFFFFFFFFFFFFFFFFFFFFF NOT AND DUP2 PUSH31 0xFFFFFFFFFFFFFFFFFFFFFFFFFFFFFFFFFFFFFFFFFFFFFFFFFFFFFFFFFFFFFF NOT AND EQ PUSH2 0x166B JUMPI PUSH1 0x40 MLOAD PUSH32 0x8C379A000000000000000000000000000000000000000000000000000000000 DUP2 MSTORE PUSH1 0x4 ADD PUSH2 0x1662 SWAP1 PUSH2 0x427D JUMP JUMPDEST PUSH1 0x40 MLOAD DUP1 SWAP2 SUB SWAP1 REVERT JUMPDEST POP POP POP POP POP POP POP POP PUSH2 0x167B PUSH2 0x23EA JUMP JUMPDEST POP JUMP JUMPDEST PUSH2 0x1686 PUSH2 0x33BE JUMP JUMPDEST PUSH1 0xC PUSH0 DUP4 PUSH20 0xFFFFFFFFFFFFFFFFFFFFFFFFFFFFFFFFFFFFFFFF AND PUSH20 0xFFFFFFFFFFFFFFFFFFFFFFFFFFFFFFFFFFFFFFFF AND DUP2 MSTORE PUSH1 0x20 ADD SWAP1 DUP2 MSTORE PUSH1 0x20 ADD PUSH0 KECCAK256 PUSH1 0x40 MLOAD DUP1 PUSH1 0x40 ADD PUSH1 0x40 MSTORE SWAP1 DUP2 PUSH0 DUP3 ADD PUSH0 SWAP1 SLOAD SWAP1 PUSH2 0x100 EXP SWAP1 DIV PUSH8 0xFFFFFFFFFFFFFFFF AND PUSH8 0xFFFFFFFFFFFFFFFF AND PUSH8 0xFFFFFFFFFFFFFFFF AND DUP2 MSTORE PUSH1 0x20 ADD PUSH0 DUP3 ADD PUSH1 0x8 SWAP1 SLOAD SWAP1 PUSH2 0x100 EXP SWAP1 DIV PUSH8 0xFFFFFFFFFFFFFFFF AND PUSH8 0xFFFFFFFFFFFFFFFF AND PUSH8 0xFFFFFFFFFFFFFFFF AND DUP2 MSTORE POP POP SWAP1 POP SWAP2 SWAP1 POP JUMP JUMPDEST PUSH2 0x173E PUSH2 0x2081 JUMP JUMPDEST PUSH0 PUSH2 0x1747 PUSH2 0x1EE9 JUMP JUMPDEST SWAP1 POP DUP1 PUSH20 0xFFFFFFFFFFFFFFFFFFFFFFFFFFFFFFFFFFFFFFFF AND CALLER PUSH20 0xFFFFFFFFFFFFFFFFFFFFFFFFFFFFFFFFFFFFFFFF AND EQ PUSH2 0x1780 JUMPI PUSH0 PUSH0 REVERT JUMPDEST PUSH0 PUSH2 0x1789 PUSH2 0x20C7 JUMP JUMPDEST PUSH1 0x40 ADD MLOAD SWAP1 POP PUSH0 PUSH2 0x1798 PUSH2 0x20C7 JUMP JUMPDEST PUSH1 0x80 ADD MLOAD SWAP1 POP PUSH0 PUSH2 0x17A7 PUSH2 0x20C7 JUMP JUMPDEST PUSH2 0x100 ADD MLOAD SWAP1 POP PUSH0 PUSH20 0xFFFFFFFFFFFFFFFFFFFFFFFFFFFFFFFFFFFFFFFF AND DUP2 PUSH20 0xFFFFFFFFFFFFFFFFFFFFFFFFFFFFFFFFFFFFFFFF AND SUB PUSH2 0x17E5 JUMPI PUSH0 PUSH0 REVERT JUMPDEST PUSH0 ISZERO ISZERO PUSH1 0xE PUSH0 DUP7 PUSH20 0xFFFFFFFFFFFFFFFFFFFFFFFFFFFFFFFFFFFFFFFF AND PUSH20 0xFFFFFFFFFFFFFFFFFFFFFFFFFFFFFFFFFFFFFFFF AND DUP2 MSTORE PUSH1 0x20 ADD SWAP1 DUP2 MSTORE PUSH1 0x20 ADD PUSH0 KECCAK256 PUSH0 SWAP1 SLOAD SWAP1 PUSH2 0x100 EXP SWAP1 DIV PUSH1 0xFF AND ISZERO ISZERO EQ PUSH2 0x1874 JUMPI PUSH1 0x40 MLOAD PUSH32 0x8C379A000000000000000000000000000000000000000000000000000000000 DUP2 MSTORE PUSH1 0x4 ADD PUSH2 0x186B SWAP1 PUSH2 0x3EA0 JUMP JUMPDEST PUSH1 0x40 MLOAD DUP1 SWAP2 SUB SWAP1 REVERT JUMPDEST PUSH1 0xA PUSH1 0x18 SWAP1 SLOAD SWAP1 PUSH2 0x100 EXP SWAP1 DIV PUSH8 0xFFFFFFFFFFFFFFFF AND PUSH8 0xFFFFFFFFFFFFFFFF AND PUSH1 0xB SLOAD GT ISZERO PUSH2 0x19C4 JUMPI PUSH0 PUSH2 0x18C2 DUP5 PUSH1 0xA PUSH1 0x18 SWAP1 SLOAD SWAP1 PUSH2 0x100 EXP SWAP1 DIV PUSH8 0xFFFFFFFFFFFFFFFF AND PUSH1 0xB SLOAD PUSH2 0x2485 JUMP JUMPDEST SWAP1 POP DUP6 PUSH20 0xFFFFFFFFFFFFFFFFFFFFFFFFFFFFFFFFFFFFFFFF AND PUSH4 0x95EA7B3 DUP4 DUP4 PUSH1 0x40 MLOAD DUP4 PUSH4 0xFFFFFFFF AND PUSH1 0xE0 SHL DUP2 MSTORE PUSH1 0x4 ADD PUSH2 0x18FF SWAP3 SWAP2 SWAP1 PUSH2 0x3EBE JUMP JUMPDEST PUSH1 0x20 PUSH1 0x40 MLOAD DUP1 DUP4 SUB DUP2 PUSH0 DUP8 GAS CALL ISZERO DUP1 ISZERO PUSH2 0x191B JUMPI RETURNDATASIZE PUSH0 PUSH0 RETURNDATACOPY RETURNDATASIZE PUSH0 REVERT JUMPDEST POP POP POP POP PUSH1 0x40 MLOAD RETURNDATASIZE PUSH1 0x1F NOT PUSH1 0x1F DUP3 ADD AND DUP3 ADD DUP1 PUSH1 0x40 MSTORE POP DUP2 ADD SWAP1 PUSH2 0x193F SWAP2 SWAP1 PUSH2 0x3F0F JUMP JUMPDEST POP PUSH1 0x1 PUSH1 0xE PUSH0 DUP8 PUSH20 0xFFFFFFFFFFFFFFFFFFFFFFFFFFFFFFFFFFFFFFFF AND PUSH20 0xFFFFFFFFFFFFFFFFFFFFFFFFFFFFFFFFFFFFFFFF AND DUP2 MSTORE PUSH1 0x20 ADD SWAP1 DUP2 MSTORE PUSH1 0x20 ADD PUSH0 KECCAK256 PUSH0 PUSH2 0x100 EXP DUP2 SLOAD DUP2 PUSH1 0xFF MUL NOT AND SWAP1 DUP4 ISZERO ISZERO MUL OR SWAP1 SSTORE POP PUSH2 0x19C2 ADDRESS DUP4 DUP4 DUP10 PUSH20 0xFFFFFFFFFFFFFFFFFFFFFFFFFFFFFFFFFFFFFFFF AND PUSH2 0x2170 SWAP1 SWAP4 SWAP3 SWAP2 SWAP1 PUSH4 0xFFFFFFFF AND JUMP JUMPDEST POP JUMPDEST POP POP POP POP PUSH2 0x19D0 PUSH2 0x23EA JUMP JUMPDEST POP JUMP JUMPDEST PUSH0 PUSH0 PUSH0 DUP4 PUSH20 0xFFFFFFFFFFFFFFFFFFFFFFFFFFFFFFFFFFFFFFFF AND PUSH20 0xFFFFFFFFFFFFFFFFFFFFFFFFFFFFFFFFFFFFFFFF AND DUP2 MSTORE PUSH1 0x20 ADD SWAP1 DUP2 MSTORE PUSH1 0x20 ADD PUSH0 KECCAK256 SLOAD SWAP1 POP SWAP2 SWAP1 POP JUMP JUMPDEST PUSH2 0x1A20 PUSH2 0x24E8 JUMP JUMPDEST PUSH0 PUSH2 0x1A2C DUP5 DUP5 DUP5 PUSH2 0x21F2 JUMP JUMPDEST SWAP1 POP PUSH32 0x0 PUSH31 0xFFFFFFFFFFFFFFFFFFFFFFFFFFFFFFFFFFFFFFFFFFFFFFFFFFFFFFFFFFFFFF NOT AND DUP2 PUSH31 0xFFFFFFFFFFFFFFFFFFFFFFFFFFFFFFFFFFFFFFFFFFFFFFFFFFFFFFFFFFFFFF NOT AND EQ PUSH2 0x1AD4 JUMPI PUSH1 0x40 MLOAD PUSH32 0x8C379A000000000000000000000000000000000000000000000000000000000 DUP2 MSTORE PUSH1 0x4 ADD PUSH2 0x1ACB SWAP1 PUSH2 0x4145 JUMP JUMPDEST PUSH1 0x40 MLOAD DUP1 SWAP2 SUB SWAP1 REVERT JUMPDEST POP POP POP POP JUMP JUMPDEST PUSH2 0x1AE2 PUSH2 0x24E8 JUMP JUMPDEST PUSH2 0x1AEA PUSH2 0x2B9D JUMP JUMPDEST PUSH0 PUSH2 0x1B05 DUP3 PUSH0 ADD PUSH1 0x20 DUP2 ADD SWAP1 PUSH2 0x1B00 SWAP2 SWAP1 PUSH2 0x429B JUMP JUMPDEST PUSH2 0x2BFB JUMP JUMPDEST SWAP1 POP PUSH0 PUSH2 0x1B24 DUP4 PUSH1 0x60 ADD PUSH1 0x20 DUP2 ADD SWAP1 PUSH2 0x1B1E SWAP2 SWAP1 PUSH2 0x352A JUMP JUMPDEST ADDRESS PUSH2 0x2924 JUMP JUMPDEST SWAP1 POP PUSH0 DUP2 GT PUSH2 0x1B68 JUMPI PUSH1 0x40 MLOAD PUSH32 0x8C379A000000000000000000000000000000000000000000000000000000000 DUP2 MSTORE PUSH1 0x4 ADD PUSH2 0x1B5F SWAP1 PUSH2 0x4310 JUMP JUMPDEST PUSH1 0x40 MLOAD DUP1 SWAP2 SUB SWAP1 REVERT JUMPDEST PUSH0 PUSH2 0x1B98 DUP5 PUSH1 0x40 ADD PUSH1 0x20 DUP2 ADD SWAP1 PUSH2 0x1B7F SWAP2 SWAP1 PUSH2 0x352A JUMP JUMPDEST DUP6 PUSH1 0x60 ADD PUSH1 0x20 DUP2 ADD SWAP1 PUSH2 0x1B92 SWAP2 SWAP1 PUSH2 0x352A JUMP JUMPDEST DUP5 PUSH2 0x2579 JUMP JUMPDEST SWAP1 POP PUSH32 0x0 PUSH31 0xFFFFFFFFFFFFFFFFFFFFFFFFFFFFFFFFFFFFFFFFFFFFFFFFFFFFFFFFFFFFFF NOT AND DUP2 PUSH31 0xFFFFFFFFFFFFFFFFFFFFFFFFFFFFFFFFFFFFFFFFFFFFFFFFFFFFFFFFFFFFFF NOT AND EQ PUSH2 0x1C40 JUMPI PUSH1 0x40 MLOAD PUSH32 0x8C379A000000000000000000000000000000000000000000000000000000000 DUP2 MSTORE PUSH1 0x4 ADD PUSH2 0x1C37 SWAP1 PUSH2 0x4378 JUMP JUMPDEST PUSH1 0x40 MLOAD DUP1 SWAP2 SUB SWAP1 REVERT JUMPDEST PUSH0 PUSH2 0x1C5D DUP6 PUSH1 0x80 ADD PUSH1 0x20 DUP2 ADD SWAP1 PUSH2 0x1C57 SWAP2 SWAP1 PUSH2 0x352A JUMP JUMPDEST ADDRESS PUSH2 0x2924 JUMP JUMPDEST SWAP1 POP PUSH2 0x1CA1 DUP6 PUSH0 ADD PUSH1 0x20 DUP2 ADD SWAP1 PUSH2 0x1C74 SWAP2 SWAP1 PUSH2 0x429B JUMP JUMPDEST DUP7 PUSH1 0x20 ADD PUSH1 0x20 DUP2 ADD SWAP1 PUSH2 0x1C87 SWAP2 SWAP1 PUSH2 0x4396 JUMP JUMPDEST DUP7 DUP9 PUSH1 0x80 ADD PUSH1 0x20 DUP2 ADD SWAP1 PUSH2 0x1C9B SWAP2 SWAP1 PUSH2 0x352A JUMP JUMPDEST DUP6 PUSH2 0x2CA0 JUMP JUMPDEST POP POP POP POP POP JUMP JUMPDEST PUSH1 0x9 PUSH0 SWAP1 SLOAD SWAP1 PUSH2 0x100 EXP SWAP1 DIV PUSH20 0xFFFFFFFFFFFFFFFFFFFFFFFFFFFFFFFFFFFFFFFF AND DUP2 JUMP JUMPDEST PUSH1 0x60 PUSH1 0x4 DUP1 SLOAD PUSH2 0x1CDC SWAP1 PUSH2 0x3C0F JUMP JUMPDEST DUP1 PUSH1 0x1F ADD PUSH1 0x20 DUP1 SWAP2 DIV MUL PUSH1 0x20 ADD PUSH1 0x40 MLOAD SWAP1 DUP2 ADD PUSH1 0x40 MSTORE DUP1 SWAP3 SWAP2 SWAP1 DUP2 DUP2 MSTORE PUSH1 0x20 ADD DUP3 DUP1 SLOAD PUSH2 0x1D08 SWAP1 PUSH2 0x3C0F JUMP JUMPDEST DUP1 ISZERO PUSH2 0x1D53 JUMPI DUP1 PUSH1 0x1F LT PUSH2 0x1D2A JUMPI PUSH2 0x100 DUP1 DUP4 SLOAD DIV MUL DUP4 MSTORE SWAP2 PUSH1 0x20 ADD SWAP2 PUSH2 0x1D53 JUMP JUMPDEST DUP3 ADD SWAP2 SWAP1 PUSH0 MSTORE PUSH1 0x20 PUSH0 KECCAK256 SWAP1 JUMPDEST DUP2 SLOAD DUP2 MSTORE SWAP1 PUSH1 0x1 ADD SWAP1 PUSH1 0x20 ADD DUP1 DUP4 GT PUSH2 0x1D36 JUMPI DUP3 SWAP1 SUB PUSH1 0x1F AND DUP3 ADD SWAP2 JUMPDEST POP POP POP POP POP SWAP1 POP SWAP1 JUMP JUMPDEST PUSH0 PUSH0 PUSH2 0x1D67 PUSH2 0x2068 JUMP JUMPDEST SWAP1 POP PUSH2 0x1D74 DUP2 DUP6 DUP6 PUSH2 0x2834 JUMP JUMPDEST PUSH1 0x1 SWAP2 POP POP SWAP3 SWAP2 POP POP JUMP JUMPDEST PUSH1 0x6 SLOAD DUP2 JUMP JUMPDEST PUSH2 0x1D8D PUSH2 0x23F4 JUMP JUMPDEST DUP1 PUSH1 0xA PUSH0 PUSH2 0x100 EXP DUP2 SLOAD DUP2 PUSH20 0xFFFFFFFFFFFFFFFFFFFFFFFFFFFFFFFFFFFFFFFF MUL NOT AND SWAP1 DUP4 PUSH20 0xFFFFFFFFFFFFFFFFFFFFFFFFFFFFFFFFFFFFFFFF AND MUL OR SWAP1 SSTORE POP POP JUMP JUMPDEST PUSH1 0xA PUSH1 0x18 SWAP1 SLOAD SWAP1 PUSH2 0x100 EXP SWAP1 DIV PUSH8 0xFFFFFFFFFFFFFFFF AND DUP2 JUMP JUMPDEST PUSH1 0x7 PUSH0 SWAP1 SLOAD SWAP1 PUSH2 0x100 EXP SWAP1 DIV PUSH20 0xFFFFFFFFFFFFFFFFFFFFFFFFFFFFFFFFFFFFFFFF AND DUP2 JUMP JUMPDEST PUSH0 PUSH1 0x1 PUSH0 DUP5 PUSH20 0xFFFFFFFFFFFFFFFFFFFFFFFFFFFFFFFFFFFFFFFF AND PUSH20 0xFFFFFFFFFFFFFFFFFFFFFFFFFFFFFFFFFFFFFFFF AND DUP2 MSTORE PUSH1 0x20 ADD SWAP1 DUP2 MSTORE PUSH1 0x20 ADD PUSH0 KECCAK256 PUSH0 DUP4 PUSH20 0xFFFFFFFFFFFFFFFFFFFFFFFFFFFFFFFFFFFFFFFF AND PUSH20 0xFFFFFFFFFFFFFFFFFFFFFFFFFFFFFFFFFFFFFFFF AND DUP2 MSTORE PUSH1 0x20 ADD SWAP1 DUP2 MSTORE PUSH1 0x20 ADD PUSH0 KECCAK256 SLOAD SWAP1 POP SWAP3 SWAP2 POP POP JUMP JUMPDEST PUSH2 0x1E99 PUSH2 0x24E8 JUMP JUMPDEST PUSH2 0x1EA1 PUSH2 0x2B9D JUMP JUMPDEST PUSH0 PUSH2 0x1EAB DUP6 PUSH2 0x2BFB JUMP JUMPDEST SWAP1 POP PUSH2 0x1EBA DUP6 DUP6 DUP4 DUP7 DUP7 PUSH2 0x2CA0 JUMP JUMPDEST POP POP POP POP POP JUMP JUMPDEST PUSH2 0x1EC9 PUSH2 0x24E8 JUMP JUMPDEST DUP1 PUSH1 0xA PUSH1 0x16 PUSH2 0x100 EXP DUP2 SLOAD DUP2 PUSH2 0xFFFF MUL NOT AND SWAP1 DUP4 PUSH2 0xFFFF AND MUL OR SWAP1 SSTORE POP POP JUMP JUMPDEST PUSH0 PUSH1 0x8 PUSH0 SWAP1 SLOAD SWAP1 PUSH2 0x100 EXP SWAP1 DIV PUSH20 0xFFFFFFFFFFFFFFFFFFFFFFFFFFFFFFFFFFFFFFFF AND PUSH20 0xFFFFFFFFFFFFFFFFFFFFFFFFFFFFFFFFFFFFFFFF AND PUSH4 0x481C6A75 PUSH1 0x40 MLOAD DUP2 PUSH4 0xFFFFFFFF AND PUSH1 0xE0 SHL DUP2 MSTORE PUSH1 0x4 ADD PUSH1 0x20 PUSH1 0x40 MLOAD DUP1 DUP4 SUB DUP2 DUP7 GAS STATICCALL ISZERO DUP1 ISZERO PUSH2 0x1F54 JUMPI RETURNDATASIZE PUSH0 PUSH0 RETURNDATACOPY RETURNDATASIZE PUSH0 REVERT JUMPDEST POP POP POP POP PUSH1 0x40 MLOAD RETURNDATASIZE PUSH1 0x1F NOT PUSH1 0x1F DUP3 ADD AND DUP3 ADD DUP1 PUSH1 0x40 MSTORE POP DUP2 ADD SWAP1 PUSH2 0x1F78 SWAP2 SWAP1 PUSH2 0x43D5 JUMP JUMPDEST SWAP1 POP SWAP1 JUMP JUMPDEST PUSH0 PUSH2 0x1F86 PUSH2 0x20C7 JUMP JUMPDEST PUSH1 0x80 ADD MLOAD SWAP1 POP DUP1 PUSH8 0xFFFFFFFFFFFFFFFF AND TIMESTAMP LT PUSH2 0x2064 JUMPI PUSH32 0x0 PUSH31 0xFFFFFFFFFFFFFFFFFFFFFFFFFFFFFFFFFFFFFFFFFFFFFFFFFFFFFFFFFFFFFF NOT AND PUSH1 0xA PUSH1 0x15 SWAP1 SLOAD SWAP1 PUSH2 0x100 EXP SWAP1 DIV PUSH1 0xF8 SHL PUSH31 0xFFFFFFFFFFFFFFFFFFFFFFFFFFFFFFFFFFFFFFFFFFFFFFFFFFFFFFFFFFFFFF NOT AND SUB PUSH2 0x2063 JUMPI PUSH2 0x2021 DUP3 ADDRESS PUSH2 0x2924 JUMP JUMPDEST PUSH1 0xB DUP2 SWAP1 SSTORE POP PUSH32 0x0 PUSH1 0xA PUSH1 0x15 PUSH2 0x100 EXP DUP2 SLOAD DUP2 PUSH1 0xFF MUL NOT AND SWAP1 DUP4 PUSH1 0xF8 SHR MUL OR SWAP1 SSTORE POP JUMPDEST JUMPDEST POP POP JUMP JUMPDEST PUSH0 CALLER SWAP1 POP SWAP1 JUMP JUMPDEST PUSH2 0x207C DUP4 DUP4 DUP4 PUSH1 0x1 PUSH2 0x2DA9 JUMP JUMPDEST POP POP POP JUMP JUMPDEST PUSH1 0x2 PUSH1 0x5 SLOAD SUB PUSH2 0x20BD JUMPI PUSH1 0x40 MLOAD PUSH32 0x3EE5AEB500000000000000000000000000000000000000000000000000000000 DUP2 MSTORE PUSH1 0x4 ADD PUSH1 0x40 MLOAD DUP1 SWAP2 SUB SWAP1 REVERT JUMPDEST PUSH1 0x2 PUSH1 0x5 DUP2 SWAP1 SSTORE POP JUMP JUMPDEST PUSH2 0x20CF PUSH2 0x33EA JUMP JUMPDEST PUSH1 0x8 PUSH0 SWAP1 SLOAD SWAP1 PUSH2 0x100 EXP SWAP1 DIV PUSH20 0xFFFFFFFFFFFFFFFFFFFFFFFFFFFFFFFFFFFFFFFF AND PUSH20 0xFFFFFFFFFFFFFFFFFFFFFFFFFFFFFFFFFFFFFFFF AND PUSH4 0x3EC79193 PUSH1 0x6 SLOAD PUSH1 0x40 MLOAD DUP3 PUSH4 0xFFFFFFFF AND PUSH1 0xE0 SHL DUP2 MSTORE PUSH1 0x4 ADD PUSH2 0x212B SWAP2 SWAP1 PUSH2 0x3739 JUMP JUMPDEST PUSH2 0x140 PUSH1 0x40 MLOAD DUP1 DUP4 SUB DUP2 DUP7 GAS STATICCALL ISZERO DUP1 ISZERO PUSH2 0x2147 JUMPI RETURNDATASIZE PUSH0 PUSH0 RETURNDATACOPY RETURNDATASIZE PUSH0 REVERT JUMPDEST POP POP POP POP PUSH1 0x40 MLOAD RETURNDATASIZE PUSH1 0x1F NOT PUSH1 0x1F DUP3 ADD AND DUP3 ADD DUP1 PUSH1 0x40 MSTORE POP DUP2 ADD SWAP1 PUSH2 0x216B SWAP2 SWAP1 PUSH2 0x4597 JUMP JUMPDEST SWAP1 POP SWAP1 JUMP JUMPDEST PUSH2 0x21EC DUP5 DUP6 PUSH20 0xFFFFFFFFFFFFFFFFFFFFFFFFFFFFFFFFFFFFFFFF AND PUSH4 0x23B872DD DUP7 DUP7 DUP7 PUSH1 0x40 MLOAD PUSH1 0x24 ADD PUSH2 0x21A5 SWAP4 SWAP3 SWAP2 SWAP1 PUSH2 0x45C3 JUMP JUMPDEST PUSH1 0x40 MLOAD PUSH1 0x20 DUP2 DUP4 SUB SUB DUP2 MSTORE SWAP1 PUSH1 0x40 MSTORE SWAP2 POP PUSH1 0xE0 SHL PUSH1 0x20 DUP3 ADD DUP1 MLOAD PUSH28 0xFFFFFFFFFFFFFFFFFFFFFFFFFFFFFFFFFFFFFFFFFFFFFFFFFFFFFFFF DUP4 DUP2 DUP4 AND OR DUP4 MSTORE POP POP POP POP PUSH2 0x2F78 JUMP JUMPDEST POP POP POP POP JUMP JUMPDEST PUSH0 DUP3 PUSH20 0xFFFFFFFFFFFFFFFFFFFFFFFFFFFFFFFFFFFFFFFF AND PUSH4 0x95EA7B3 DUP6 DUP5 PUSH1 0x40 MLOAD DUP4 PUSH4 0xFFFFFFFF AND PUSH1 0xE0 SHL DUP2 MSTORE PUSH1 0x4 ADD PUSH2 0x222E SWAP3 SWAP2 SWAP1 PUSH2 0x3EBE JUMP JUMPDEST PUSH1 0x20 PUSH1 0x40 MLOAD DUP1 DUP4 SUB DUP2 PUSH0 DUP8 GAS CALL ISZERO DUP1 ISZERO PUSH2 0x224A JUMPI RETURNDATASIZE PUSH0 PUSH0 RETURNDATACOPY RETURNDATASIZE PUSH0 REVERT JUMPDEST POP POP POP POP PUSH1 0x40 MLOAD RETURNDATASIZE PUSH1 0x1F NOT PUSH1 0x1F DUP3 ADD AND DUP3 ADD DUP1 PUSH1 0x40 MSTORE POP DUP2 ADD SWAP1 PUSH2 0x226E SWAP2 SWAP1 PUSH2 0x3F0F JUMP JUMPDEST POP PUSH0 PUSH2 0x2278 PUSH2 0x3013 JUMP JUMPDEST SWAP1 POP PUSH0 DUP2 PUSH20 0xFFFFFFFFFFFFFFFFFFFFFFFFFFFFFFFFFFFFFFFF AND PUSH4 0xB76398E4 DUP7 DUP7 PUSH1 0xA PUSH1 0x16 SWAP1 SLOAD SWAP1 PUSH2 0x100 EXP SWAP1 DIV PUSH2 0xFFFF AND PUSH1 0x40 MLOAD DUP5 PUSH4 0xFFFFFFFF AND PUSH1 0xE0 SHL DUP2 MSTORE PUSH1 0x4 ADD PUSH2 0x22C8 SWAP4 SWAP3 SWAP2 SWAP1 PUSH2 0x4607 JUMP JUMPDEST PUSH1 0x20 PUSH1 0x40 MLOAD DUP1 DUP4 SUB DUP2 DUP7 GAS STATICCALL ISZERO DUP1 ISZERO PUSH2 0x22E3 JUMPI RETURNDATASIZE PUSH0 PUSH0 RETURNDATACOPY RETURNDATASIZE PUSH0 REVERT JUMPDEST POP POP POP POP PUSH1 0x40 MLOAD RETURNDATASIZE PUSH1 0x1F NOT PUSH1 0x1F DUP3 ADD AND DUP3 ADD DUP1 PUSH1 0x40 MSTORE POP DUP2 ADD SWAP1 PUSH2 0x2307 SWAP2 SWAP1 PUSH2 0x466F JUMP JUMPDEST SWAP1 POP DUP6 PUSH20 0xFFFFFFFFFFFFFFFFFFFFFFFFFFFFFFFFFFFFFFFF AND PUSH4 0xF7A73840 DUP3 PUSH1 0x40 MLOAD DUP3 PUSH4 0xFFFFFFFF AND PUSH1 0xE0 SHL DUP2 MSTORE PUSH1 0x4 ADD PUSH2 0x2342 SWAP2 SWAP1 PUSH2 0x46A9 JUMP JUMPDEST PUSH0 PUSH1 0x40 MLOAD DUP1 DUP4 SUB DUP2 PUSH0 DUP8 DUP1 EXTCODESIZE ISZERO DUP1 ISZERO PUSH2 0x2359 JUMPI PUSH0 PUSH0 REVERT JUMPDEST POP GAS CALL ISZERO DUP1 ISZERO PUSH2 0x236B JUMPI RETURNDATASIZE PUSH0 PUSH0 RETURNDATACOPY RETURNDATASIZE PUSH0 REVERT JUMPDEST POP POP POP POP PUSH32 0x6FC8A16D4B8D9A104FB940A7CE2E4A92EF3A57C2D1350923AF278AB30D85F4E DUP5 PUSH1 0x40 MLOAD PUSH2 0x239E SWAP2 SWAP1 PUSH2 0x3739 JUMP JUMPDEST PUSH1 0x40 MLOAD DUP1 SWAP2 SUB SWAP1 LOG1 PUSH32 0x0 SWAP3 POP POP POP SWAP4 SWAP3 POP POP POP JUMP JUMPDEST PUSH0 PUSH2 0x23DD DUP4 DUP4 PUSH2 0x30A7 JUMP JUMPDEST PUSH1 0x1 PUSH1 0xF8 SHL SWAP1 POP SWAP3 SWAP2 POP POP JUMP JUMPDEST PUSH1 0x1 PUSH1 0x5 DUP2 SWAP1 SSTORE POP JUMP JUMPDEST PUSH1 0x9 PUSH0 SWAP1 SLOAD SWAP1 PUSH2 0x100 EXP SWAP1 DIV PUSH20 0xFFFFFFFFFFFFFFFFFFFFFFFFFFFFFFFFFFFFFFFF AND PUSH20 0xFFFFFFFFFFFFFFFFFFFFFFFFFFFFFFFFFFFFFFFF AND CALLER PUSH20 0xFFFFFFFFFFFFFFFFFFFFFFFFFFFFFFFFFFFFFFFF AND EQ PUSH2 0x2483 JUMPI PUSH1 0x40 MLOAD PUSH32 0x8C379A000000000000000000000000000000000000000000000000000000000 DUP2 MSTORE PUSH1 0x4 ADD PUSH2 0x247A SWAP1 PUSH2 0x470C JUMP JUMPDEST PUSH1 0x40 MLOAD DUP1 SWAP2 SUB SWAP1 REVERT JUMPDEST JUMP JUMPDEST PUSH0 PUSH2 0x2710 DUP4 PUSH2 0x2494 SWAP2 SWAP1 PUSH2 0x3DB3 JUMP JUMPDEST PUSH8 0xFFFFFFFFFFFFFFFF AND DUP3 LT PUSH2 0x24DD JUMPI PUSH2 0x2710 DUP5 PUSH2 0xFFFF AND DUP5 PUSH8 0xFFFFFFFFFFFFFFFF AND DUP5 PUSH2 0x24C2 SWAP2 SWAP1 PUSH2 0x472A JUMP JUMPDEST PUSH2 0x24CC SWAP2 SWAP1 PUSH2 0x475D JUMP JUMPDEST PUSH2 0x24D6 SWAP2 SWAP1 PUSH2 0x47CB JUMP JUMPDEST SWAP1 POP PUSH2 0x24E1 JUMP JUMPDEST PUSH0 SWAP1 POP JUMPDEST SWAP4 SWAP3 POP POP POP JUMP JUMPDEST PUSH1 0xA PUSH0 SWAP1 SLOAD SWAP1 PUSH2 0x100 EXP SWAP1 DIV PUSH20 0xFFFFFFFFFFFFFFFFFFFFFFFFFFFFFFFFFFFFFFFF AND PUSH20 0xFFFFFFFFFFFFFFFFFFFFFFFFFFFFFFFFFFFFFFFF AND CALLER PUSH20 0xFFFFFFFFFFFFFFFFFFFFFFFFFFFFFFFFFFFFFFFF AND EQ PUSH2 0x2577 JUMPI PUSH1 0x40 MLOAD PUSH32 0x8C379A000000000000000000000000000000000000000000000000000000000 DUP2 MSTORE PUSH1 0x4 ADD PUSH2 0x256E SWAP1 PUSH2 0x4845 JUMP JUMPDEST PUSH1 0x40 MLOAD DUP1 SWAP2 SUB SWAP1 REVERT JUMPDEST JUMP JUMPDEST PUSH0 PUSH0 DUP3 GT PUSH2 0x25BC JUMPI PUSH1 0x40 MLOAD PUSH32 0x8C379A000000000000000000000000000000000000000000000000000000000 DUP2 MSTORE PUSH1 0x4 ADD PUSH2 0x25B3 SWAP1 PUSH2 0x48AD JUMP JUMPDEST PUSH1 0x40 MLOAD DUP1 SWAP2 SUB SWAP1 REVERT JUMPDEST PUSH0 PUSH2 0x25C5 PUSH2 0x3013 JUMP JUMPDEST SWAP1 POP PUSH0 DUP2 PUSH20 0xFFFFFFFFFFFFFFFFFFFFFFFFFFFFFFFFFFFFFFFF AND PUSH4 0x5CC7BC10 DUP7 DUP7 PUSH1 0x40 MLOAD DUP4 PUSH4 0xFFFFFFFF AND PUSH1 0xE0 SHL DUP2 MSTORE PUSH1 0x4 ADD PUSH2 0x2603 SWAP3 SWAP2 SWAP1 PUSH2 0x3EBE JUMP JUMPDEST PUSH1 0x20 PUSH1 0x40 MLOAD DUP1 DUP4 SUB DUP2 DUP7 GAS STATICCALL ISZERO DUP1 ISZERO PUSH2 0x261E JUMPI RETURNDATASIZE PUSH0 PUSH0 RETURNDATACOPY RETURNDATASIZE PUSH0 REVERT JUMPDEST POP POP POP POP PUSH1 0x40 MLOAD RETURNDATASIZE PUSH1 0x1F NOT PUSH1 0x1F DUP3 ADD AND DUP3 ADD DUP1 PUSH1 0x40 MSTORE POP DUP2 ADD SWAP1 PUSH2 0x2642 SWAP2 SWAP1 PUSH2 0x466F JUMP JUMPDEST SWAP1 POP DUP5 PUSH20 0xFFFFFFFFFFFFFFFFFFFFFFFFFFFFFFFFFFFFFFFF AND PUSH4 0x95EA7B3 DUP8 DUP7 PUSH1 0x40 MLOAD DUP4 PUSH4 0xFFFFFFFF AND PUSH1 0xE0 SHL DUP2 MSTORE PUSH1 0x4 ADD PUSH2 0x267F SWAP3 SWAP2 SWAP1 PUSH2 0x3EBE JUMP JUMPDEST PUSH1 0x20 PUSH1 0x40 MLOAD DUP1 DUP4 SUB DUP2 PUSH0 DUP8 GAS CALL ISZERO DUP1 ISZERO PUSH2 0x269B JUMPI RETURNDATASIZE PUSH0 PUSH0 RETURNDATACOPY RETURNDATASIZE PUSH0 REVERT JUMPDEST POP POP POP POP PUSH1 0x40 MLOAD RETURNDATASIZE PUSH1 0x1F NOT PUSH1 0x1F DUP3 ADD AND DUP3 ADD DUP1 PUSH1 0x40 MSTORE POP DUP2 ADD SWAP1 PUSH2 0x26BF SWAP2 SWAP1 PUSH2 0x3F0F JUMP JUMPDEST POP PUSH0 DUP7 PUSH20 0xFFFFFFFFFFFFFFFFFFFFFFFFFFFFFFFFFFFFFFFF AND PUSH4 0x8E19899E DUP4 PUSH1 0x40 MLOAD DUP3 PUSH4 0xFFFFFFFF AND PUSH1 0xE0 SHL DUP2 MSTORE PUSH1 0x4 ADD PUSH2 0x26FA SWAP2 SWAP1 PUSH2 0x46A9 JUMP JUMPDEST PUSH1 0x20 PUSH1 0x40 MLOAD DUP1 DUP4 SUB DUP2 PUSH0 DUP8 GAS CALL ISZERO DUP1 ISZERO PUSH2 0x2716 JUMPI RETURNDATASIZE PUSH0 PUSH0 RETURNDATACOPY RETURNDATASIZE PUSH0 REVERT JUMPDEST POP POP POP POP PUSH1 0x40 MLOAD RETURNDATASIZE PUSH1 0x1F NOT PUSH1 0x1F DUP3 ADD AND DUP3 ADD DUP1 PUSH1 0x40 MSTORE POP DUP2 ADD SWAP1 PUSH2 0x273A SWAP2 SWAP1 PUSH2 0x48DF JUMP JUMPDEST SWAP1 POP PUSH32 0x5F8861D7F28ECA31BB813F4C03FCB457E2E56A7BF99CC46ED1A2576DBA5953EA DUP2 DUP7 PUSH1 0x40 MLOAD PUSH2 0x276D SWAP3 SWAP2 SWAP1 PUSH2 0x490A JUMP JUMPDEST PUSH1 0x40 MLOAD DUP1 SWAP2 SUB SWAP1 LOG1 PUSH32 0x0 SWAP4 POP POP POP POP SWAP4 SWAP3 POP POP POP JUMP JUMPDEST PUSH0 PUSH2 0x27AD DUP5 DUP5 PUSH2 0x1E0F JUMP JUMPDEST SWAP1 POP PUSH32 0xFFFFFFFFFFFFFFFFFFFFFFFFFFFFFFFFFFFFFFFFFFFFFFFFFFFFFFFFFFFFFFFF DUP2 EQ PUSH2 0x282E JUMPI DUP2 DUP2 LT ISZERO PUSH2 0x281F JUMPI DUP3 DUP2 DUP4 PUSH1 0x40 MLOAD PUSH32 0xFB8F41B200000000000000000000000000000000000000000000000000000000 DUP2 MSTORE PUSH1 0x4 ADD PUSH2 0x2816 SWAP4 SWAP3 SWAP2 SWAP1 PUSH2 0x4931 JUMP JUMPDEST PUSH1 0x40 MLOAD DUP1 SWAP2 SUB SWAP1 REVERT JUMPDEST PUSH2 0x282D DUP5 DUP5 DUP5 DUP5 SUB PUSH0 PUSH2 0x2DA9 JUMP JUMPDEST JUMPDEST POP POP POP POP JUMP JUMPDEST PUSH0 PUSH20 0xFFFFFFFFFFFFFFFFFFFFFFFFFFFFFFFFFFFFFFFF AND DUP4 PUSH20 0xFFFFFFFFFFFFFFFFFFFFFFFFFFFFFFFFFFFFFFFF AND SUB PUSH2 0x28A4 JUMPI PUSH0 PUSH1 0x40 MLOAD PUSH32 0x96C6FD1E00000000000000000000000000000000000000000000000000000000 DUP2 MSTORE PUSH1 0x4 ADD PUSH2 0x289B SWAP2 SWAP1 PUSH2 0x37B1 JUMP JUMPDEST PUSH1 0x40 MLOAD DUP1 SWAP2 SUB SWAP1 REVERT JUMPDEST PUSH0 PUSH20 0xFFFFFFFFFFFFFFFFFFFFFFFFFFFFFFFFFFFFFFFF AND DUP3 PUSH20 0xFFFFFFFFFFFFFFFFFFFFFFFFFFFFFFFFFFFFFFFF AND SUB PUSH2 0x2914 JUMPI PUSH0 PUSH1 0x40 MLOAD PUSH32 0xEC442F0500000000000000000000000000000000000000000000000000000000 DUP2 MSTORE PUSH1 0x4 ADD PUSH2 0x290B SWAP2 SWAP1 PUSH2 0x37B1 JUMP JUMPDEST PUSH1 0x40 MLOAD DUP1 SWAP2 SUB SWAP1 REVERT JUMPDEST PUSH2 0x291F DUP4 DUP4 DUP4 PUSH2 0x3126 JUMP JUMPDEST POP POP POP JUMP JUMPDEST PUSH0 DUP3 PUSH20 0xFFFFFFFFFFFFFFFFFFFFFFFFFFFFFFFFFFFFFFFF AND PUSH4 0x70A08231 DUP4 PUSH1 0x40 MLOAD DUP3 PUSH4 0xFFFFFFFF AND PUSH1 0xE0 SHL DUP2 MSTORE PUSH1 0x4 ADD PUSH2 0x295E SWAP2 SWAP1 PUSH2 0x37B1 JUMP JUMPDEST PUSH1 0x20 PUSH1 0x40 MLOAD DUP1 DUP4 SUB DUP2 DUP7 GAS STATICCALL ISZERO DUP1 ISZERO PUSH2 0x2979 JUMPI RETURNDATASIZE PUSH0 PUSH0 RETURNDATACOPY RETURNDATASIZE PUSH0 REVERT JUMPDEST POP POP POP POP PUSH1 0x40 MLOAD RETURNDATASIZE PUSH1 0x1F NOT PUSH1 0x1F DUP3 ADD AND DUP3 ADD DUP1 PUSH1 0x40 MSTORE POP DUP2 ADD SWAP1 PUSH2 0x299D SWAP2 SWAP1 PUSH2 0x48DF JUMP JUMPDEST SWAP1 POP SWAP3 SWAP2 POP POP JUMP JUMPDEST PUSH0 DUP5 PUSH8 0xFFFFFFFFFFFFFFFF AND DUP4 GT PUSH2 0x29F9 JUMPI PUSH0 DUP4 SUB PUSH2 0x29C6 JUMPI PUSH0 SWAP1 POP PUSH2 0x29F4 JUMP JUMPDEST DUP5 PUSH8 0xFFFFFFFFFFFFFFFF AND DUP4 DUP8 PUSH8 0xFFFFFFFFFFFFFFFF AND PUSH2 0x29E7 SWAP2 SWAP1 PUSH2 0x475D JUMP JUMPDEST PUSH2 0x29F1 SWAP2 SWAP1 PUSH2 0x47CB JUMP JUMPDEST SWAP1 POP JUMPDEST PUSH2 0x2A71 JUMP JUMPDEST DUP2 PUSH2 0x2710 DUP9 DUP11 PUSH2 0x2710 PUSH2 0x2A0C SWAP2 SWAP1 PUSH2 0x4966 JUMP JUMPDEST PUSH2 0x2A16 SWAP2 SWAP1 PUSH2 0x4966 JUMP JUMPDEST PUSH2 0xFFFF AND DUP8 PUSH8 0xFFFFFFFFFFFFFFFF AND DUP7 PUSH2 0x2A30 SWAP2 SWAP1 PUSH2 0x472A JUMP JUMPDEST DUP8 PUSH2 0x2A3B SWAP2 SWAP1 PUSH2 0x475D JUMP JUMPDEST PUSH2 0x2A45 SWAP2 SWAP1 PUSH2 0x475D JUMP JUMPDEST PUSH2 0x2A4F SWAP2 SWAP1 PUSH2 0x47CB JUMP JUMPDEST PUSH2 0x2A59 SWAP2 SWAP1 PUSH2 0x47CB JUMP JUMPDEST DUP7 PUSH8 0xFFFFFFFFFFFFFFFF AND PUSH2 0x2A6E SWAP2 SWAP1 PUSH2 0x499B JUMP JUMPDEST SWAP1 POP JUMPDEST SWAP8 SWAP7 POP POP POP POP POP POP POP JUMP JUMPDEST PUSH2 0x2AF6 DUP4 DUP5 PUSH20 0xFFFFFFFFFFFFFFFFFFFFFFFFFFFFFFFFFFFFFFFF AND PUSH4 0xA9059CBB DUP6 DUP6 PUSH1 0x40 MLOAD PUSH1 0x24 ADD PUSH2 0x2AAF SWAP3 SWAP2 SWAP1 PUSH2 0x3EBE JUMP JUMPDEST PUSH1 0x40 MLOAD PUSH1 0x20 DUP2 DUP4 SUB SUB DUP2 MSTORE SWAP1 PUSH1 0x40 MSTORE SWAP2 POP PUSH1 0xE0 SHL PUSH1 0x20 DUP3 ADD DUP1 MLOAD PUSH28 0xFFFFFFFFFFFFFFFFFFFFFFFFFFFFFFFFFFFFFFFFFFFFFFFFFFFFFFFF DUP4 DUP2 DUP4 AND OR DUP4 MSTORE POP POP POP POP PUSH2 0x2F78 JUMP JUMPDEST POP POP POP JUMP JUMPDEST PUSH0 PUSH0 PUSH0 PUSH0 DUP6 PUSH20 0xFFFFFFFFFFFFFFFFFFFFFFFFFFFFFFFFFFFFFFFF AND PUSH20 0xFFFFFFFFFFFFFFFFFFFFFFFFFFFFFFFFFFFFFFFF AND DUP2 MSTORE PUSH1 0x20 ADD SWAP1 DUP2 MSTORE PUSH1 0x20 ADD PUSH0 KECCAK256 SLOAD SWAP1 POP DUP3 DUP2 LT ISZERO PUSH2 0x2B85 JUMPI DUP4 DUP2 DUP5 PUSH1 0x40 MLOAD PUSH32 0xE450D38C00000000000000000000000000000000000000000000000000000000 DUP2 MSTORE PUSH1 0x4 ADD PUSH2 0x2B7C SWAP4 SWAP3 SWAP2 SWAP1 PUSH2 0x4931 JUMP JUMPDEST PUSH1 0x40 MLOAD DUP1 SWAP2 SUB SWAP1 REVERT JUMPDEST PUSH2 0x2B8F DUP5 DUP5 PUSH2 0x333F JUMP JUMPDEST PUSH1 0x1 PUSH1 0xF8 SHL SWAP2 POP POP SWAP3 SWAP2 POP POP JUMP JUMPDEST PUSH0 PUSH2 0x2BA6 PUSH2 0x20C7 JUMP JUMPDEST PUSH1 0x80 ADD MLOAD SWAP1 POP DUP1 PUSH8 0xFFFFFFFFFFFFFFFF AND TIMESTAMP LT PUSH2 0x2BF8 JUMPI PUSH1 0x40 MLOAD PUSH32 0x8C379A000000000000000000000000000000000000000000000000000000000 DUP2 MSTORE PUSH1 0x4 ADD PUSH2 0x2BEF SWAP1 PUSH2 0x4A18 JUMP JUMPDEST PUSH1 0x40 MLOAD DUP1 SWAP2 SUB SWAP1 REVERT JUMPDEST POP JUMP JUMPDEST PUSH0 PUSH1 0x8 PUSH0 SWAP1 SLOAD SWAP1 PUSH2 0x100 EXP SWAP1 DIV PUSH20 0xFFFFFFFFFFFFFFFFFFFFFFFFFFFFFFFFFFFFFFFF AND PUSH20 0xFFFFFFFFFFFFFFFFFFFFFFFFFFFFFFFFFFFFFFFF AND PUSH4 0x57B30C98 PUSH1 0x6 SLOAD DUP5 PUSH1 0x40 MLOAD DUP4 PUSH4 0xFFFFFFFF AND PUSH1 0xE0 SHL DUP2 MSTORE PUSH1 0x4 ADD PUSH2 0x2C5A SWAP3 SWAP2 SWAP1 PUSH2 0x4A45 JUMP JUMPDEST PUSH1 0x20 PUSH1 0x40 MLOAD DUP1 DUP4 SUB DUP2 DUP7 GAS STATICCALL ISZERO DUP1 ISZERO PUSH2 0x2C75 JUMPI RETURNDATASIZE PUSH0 PUSH0 RETURNDATACOPY RETURNDATASIZE PUSH0 REVERT JUMPDEST POP POP POP POP PUSH1 0x40 MLOAD RETURNDATASIZE PUSH1 0x1F NOT PUSH1 0x1F DUP3 ADD AND DUP3 ADD DUP1 PUSH1 0x40 MSTORE POP DUP2 ADD SWAP1 PUSH2 0x2C99 SWAP2 SWAP1 PUSH2 0x466F JUMP JUMPDEST SWAP1 POP SWAP2 SWAP1 POP JUMP JUMPDEST PUSH2 0x2CA8 PUSH2 0x2B9D JUMP JUMPDEST PUSH0 PUSH2 0x2CB1 PUSH2 0x20C7 JUMP JUMPDEST PUSH1 0xC0 ADD MLOAD SWAP1 POP DUP3 PUSH20 0xFFFFFFFFFFFFFFFFFFFFFFFFFFFFFFFFFFFFFFFF AND PUSH4 0x95EA7B3 DUP3 DUP5 PUSH1 0x40 MLOAD DUP4 PUSH4 0xFFFFFFFF AND PUSH1 0xE0 SHL DUP2 MSTORE PUSH1 0x4 ADD PUSH2 0x2CF2 SWAP3 SWAP2 SWAP1 PUSH2 0x3EBE JUMP JUMPDEST PUSH1 0x20 PUSH1 0x40 MLOAD DUP1 DUP4 SUB DUP2 PUSH0 DUP8 GAS CALL ISZERO DUP1 ISZERO PUSH2 0x2D0E JUMPI RETURNDATASIZE PUSH0 PUSH0 RETURNDATACOPY RETURNDATASIZE PUSH0 REVERT JUMPDEST POP POP POP POP PUSH1 0x40 MLOAD RETURNDATASIZE PUSH1 0x1F NOT PUSH1 0x1F DUP3 ADD AND DUP3 ADD DUP1 PUSH1 0x40 MSTORE POP DUP2 ADD SWAP1 PUSH2 0x2D32 SWAP2 SWAP1 PUSH2 0x3F0F JUMP JUMPDEST POP DUP1 PUSH20 0xFFFFFFFFFFFFFFFFFFFFFFFFFFFFFFFFFFFFFFFF AND PUSH4 0x65887A9D DUP8 DUP8 DUP8 DUP8 DUP8 PUSH1 0x40 MLOAD DUP7 PUSH4 0xFFFFFFFF AND PUSH1 0xE0 SHL DUP2 MSTORE PUSH1 0x4 ADD PUSH2 0x2D74 SWAP6 SWAP5 SWAP4 SWAP3 SWAP2 SWAP1 PUSH2 0x4A6C JUMP JUMPDEST PUSH0 PUSH1 0x40 MLOAD DUP1 DUP4 SUB DUP2 PUSH0 DUP8 DUP1 EXTCODESIZE ISZERO DUP1 ISZERO PUSH2 0x2D8B JUMPI PUSH0 PUSH0 REVERT JUMPDEST POP GAS CALL ISZERO DUP1 ISZERO PUSH2 0x2D9D JUMPI RETURNDATASIZE PUSH0 PUSH0 RETURNDATACOPY RETURNDATASIZE PUSH0 REVERT JUMPDEST POP POP POP POP POP POP POP POP POP POP JUMP JUMPDEST PUSH0 PUSH20 0xFFFFFFFFFFFFFFFFFFFFFFFFFFFFFFFFFFFFFFFF AND DUP5 PUSH20 0xFFFFFFFFFFFFFFFFFFFFFFFFFFFFFFFFFFFFFFFF AND SUB PUSH2 0x2E19 JUMPI PUSH0 PUSH1 0x40 MLOAD PUSH32 0xE602DF0500000000000000000000000000000000000000000000000000000000 DUP2 MSTORE PUSH1 0x4 ADD PUSH2 0x2E10 SWAP2 SWAP1 PUSH2 0x37B1 JUMP JUMPDEST PUSH1 0x40 MLOAD DUP1 SWAP2 SUB SWAP1 REVERT JUMPDEST PUSH0 PUSH20 0xFFFFFFFFFFFFFFFFFFFFFFFFFFFFFFFFFFFFFFFF AND DUP4 PUSH20 0xFFFFFFFFFFFFFFFFFFFFFFFFFFFFFFFFFFFFFFFF AND SUB PUSH2 0x2E89 JUMPI PUSH0 PUSH1 0x40 MLOAD PUSH32 0x94280D6200000000000000000000000000000000000000000000000000000000 DUP2 MSTORE PUSH1 0x4 ADD PUSH2 0x2E80 SWAP2 SWAP1 PUSH2 0x37B1 JUMP JUMPDEST PUSH1 0x40 MLOAD DUP1 SWAP2 SUB SWAP1 REVERT JUMPDEST DUP2 PUSH1 0x1 PUSH0 DUP7 PUSH20 0xFFFFFFFFFFFFFFFFFFFFFFFFFFFFFFFFFFFFFFFF AND PUSH20 0xFFFFFFFFFFFFFFFFFFFFFFFFFFFFFFFFFFFFFFFF AND DUP2 MSTORE PUSH1 0x20 ADD SWAP1 DUP2 MSTORE PUSH1 0x20 ADD PUSH0 KECCAK256 PUSH0 DUP6 PUSH20 0xFFFFFFFFFFFFFFFFFFFFFFFFFFFFFFFFFFFFFFFF AND PUSH20 0xFFFFFFFFFFFFFFFFFFFFFFFFFFFFFFFFFFFFFFFF AND DUP2 MSTORE PUSH1 0x20 ADD SWAP1 DUP2 MSTORE PUSH1 0x20 ADD PUSH0 KECCAK256 DUP2 SWAP1 SSTORE POP DUP1 ISZERO PUSH2 0x2F72 JUMPI DUP3 PUSH20 0xFFFFFFFFFFFFFFFFFFFFFFFFFFFFFFFFFFFFFFFF AND DUP5 PUSH20 0xFFFFFFFFFFFFFFFFFFFFFFFFFFFFFFFFFFFFFFFF AND PUSH32 0x8C5BE1E5EBEC7D5BD14F71427D1E84F3DD0314C0F7B2291E5B200AC8C7C3B925 DUP5 PUSH1 0x40 MLOAD PUSH2 0x2F69 SWAP2 SWAP1 PUSH2 0x3739 JUMP JUMPDEST PUSH1 0x40 MLOAD DUP1 SWAP2 SUB SWAP1 LOG3 JUMPDEST POP POP POP POP JUMP JUMPDEST PUSH0 PUSH0 PUSH1 0x20 PUSH0 DUP5 MLOAD PUSH1 0x20 DUP7 ADD PUSH0 DUP9 GAS CALL DUP1 PUSH2 0x2F97 JUMPI PUSH1 0x40 MLOAD RETURNDATASIZE PUSH0 DUP3 RETURNDATACOPY RETURNDATASIZE DUP2 REVERT JUMPDEST RETURNDATASIZE SWAP3 POP PUSH0 MLOAD SWAP2 POP POP PUSH0 DUP3 EQ PUSH2 0x2FB0 JUMPI PUSH1 0x1 DUP2 EQ ISZERO PUSH2 0x2FCB JUMP JUMPDEST PUSH0 DUP5 PUSH20 0xFFFFFFFFFFFFFFFFFFFFFFFFFFFFFFFFFFFFFFFF AND EXTCODESIZE EQ JUMPDEST ISZERO PUSH2 0x300D JUMPI DUP4 PUSH1 0x40 MLOAD PUSH32 0x5274AFE700000000000000000000000000000000000000000000000000000000 DUP2 MSTORE PUSH1 0x4 ADD PUSH2 0x3004 SWAP2 SWAP1 PUSH2 0x37B1 JUMP JUMPDEST PUSH1 0x40 MLOAD DUP1 SWAP2 SUB SWAP1 REVERT JUMPDEST POP POP POP POP JUMP JUMPDEST PUSH0 PUSH1 0x8 PUSH0 SWAP1 SLOAD SWAP1 PUSH2 0x100 EXP SWAP1 DIV PUSH20 0xFFFFFFFFFFFFFFFFFFFFFFFFFFFFFFFFFFFFFFFF AND PUSH20 0xFFFFFFFFFFFFFFFFFFFFFFFFFFFFFFFFFFFFFFFF AND PUSH4 0xE2A40582 PUSH1 0x40 MLOAD DUP2 PUSH4 0xFFFFFFFF AND PUSH1 0xE0 SHL DUP2 MSTORE PUSH1 0x4 ADD PUSH1 0x20 PUSH1 0x40 MLOAD DUP1 DUP4 SUB DUP2 DUP7 GAS STATICCALL ISZERO DUP1 ISZERO PUSH2 0x307E JUMPI RETURNDATASIZE PUSH0 PUSH0 RETURNDATACOPY RETURNDATASIZE PUSH0 REVERT JUMPDEST POP POP POP POP PUSH1 0x40 MLOAD RETURNDATASIZE PUSH1 0x1F NOT PUSH1 0x1F DUP3 ADD AND DUP3 ADD DUP1 PUSH1 0x40 MSTORE POP DUP2 ADD SWAP1 PUSH2 0x30A2 SWAP2 SWAP1 PUSH2 0x43D5 JUMP JUMPDEST SWAP1 POP SWAP1 JUMP JUMPDEST PUSH0 PUSH20 0xFFFFFFFFFFFFFFFFFFFFFFFFFFFFFFFFFFFFFFFF AND DUP3 PUSH20 0xFFFFFFFFFFFFFFFFFFFFFFFFFFFFFFFFFFFFFFFF AND SUB PUSH2 0x3117 JUMPI PUSH0 PUSH1 0x40 MLOAD PUSH32 0xEC442F0500000000000000000000000000000000000000000000000000000000 DUP2 MSTORE PUSH1 0x4 ADD PUSH2 0x310E SWAP2 SWAP1 PUSH2 0x37B1 JUMP JUMPDEST PUSH1 0x40 MLOAD DUP1 SWAP2 SUB SWAP1 REVERT JUMPDEST PUSH2 0x3122 PUSH0 DUP4 DUP4 PUSH2 0x3126 JUMP JUMPDEST POP POP JUMP JUMPDEST PUSH0 PUSH20 0xFFFFFFFFFFFFFFFFFFFFFFFFFFFFFFFFFFFFFFFF AND DUP4 PUSH20 0xFFFFFFFFFFFFFFFFFFFFFFFFFFFFFFFFFFFFFFFF AND SUB PUSH2 0x3176 JUMPI DUP1 PUSH1 0x2 PUSH0 DUP3 DUP3 SLOAD PUSH2 0x316A SWAP2 SWAP1 PUSH2 0x499B JUMP JUMPDEST SWAP3 POP POP DUP2 SWAP1 SSTORE POP PUSH2 0x3244 JUMP JUMPDEST PUSH0 PUSH0 PUSH0 DUP6 PUSH20 0xFFFFFFFFFFFFFFFFFFFFFFFFFFFFFFFFFFFFFFFF AND PUSH20 0xFFFFFFFFFFFFFFFFFFFFFFFFFFFFFFFFFFFFFFFF AND DUP2 MSTORE PUSH1 0x20 ADD SWAP1 DUP2 MSTORE PUSH1 0x20 ADD PUSH0 KECCAK256 SLOAD SWAP1 POP DUP2 DUP2 LT ISZERO PUSH2 0x31FF JUMPI DUP4 DUP2 DUP4 PUSH1 0x40 MLOAD PUSH32 0xE450D38C00000000000000000000000000000000000000000000000000000000 DUP2 MSTORE PUSH1 0x4 ADD PUSH2 0x31F6 SWAP4 SWAP3 SWAP2 SWAP1 PUSH2 0x4931 JUMP JUMPDEST PUSH1 0x40 MLOAD DUP1 SWAP2 SUB SWAP1 REVERT JUMPDEST DUP2 DUP2 SUB PUSH0 PUSH0 DUP7 PUSH20 0xFFFFFFFFFFFFFFFFFFFFFFFFFFFFFFFFFFFFFFFF AND PUSH20 0xFFFFFFFFFFFFFFFFFFFFFFFFFFFFFFFFFFFFFFFF AND DUP2 MSTORE PUSH1 0x20 ADD SWAP1 DUP2 MSTORE PUSH1 0x20 ADD PUSH0 KECCAK256 DUP2 SWAP1 SSTORE POP POP JUMPDEST PUSH0 PUSH20 0xFFFFFFFFFFFFFFFFFFFFFFFFFFFFFFFFFFFFFFFF AND DUP3 PUSH20 0xFFFFFFFFFFFFFFFFFFFFFFFFFFFFFFFFFFFFFFFF AND SUB PUSH2 0x328B JUMPI DUP1 PUSH1 0x2 PUSH0 DUP3 DUP3 SLOAD SUB SWAP3 POP POP DUP2 SWAP1 SSTORE POP PUSH2 0x32D5 JUMP JUMPDEST DUP1 PUSH0 PUSH0 DUP5 PUSH20 0xFFFFFFFFFFFFFFFFFFFFFFFFFFFFFFFFFFFFFFFF AND PUSH20 0xFFFFFFFFFFFFFFFFFFFFFFFFFFFFFFFFFFFFFFFF AND DUP2 MSTORE PUSH1 0x20 ADD SWAP1 DUP2 MSTORE PUSH1 0x20 ADD PUSH0 KECCAK256 PUSH0 DUP3 DUP3 SLOAD ADD SWAP3 POP POP DUP2 SWAP1 SSTORE POP JUMPDEST DUP2 PUSH20 0xFFFFFFFFFFFFFFFFFFFFFFFFFFFFFFFFFFFFFFFF AND DUP4 PUSH20 0xFFFFFFFFFFFFFFFFFFFFFFFFFFFFFFFFFFFFFFFF AND PUSH32 0xDDF252AD1BE2C89B69C2B068FC378DAA952BA7F163C4A11628F55A4DF523B3EF DUP4 PUSH1 0x40 MLOAD PUSH2 0x3332 SWAP2 SWAP1 PUSH2 0x3739 JUMP JUMPDEST PUSH1 0x40 MLOAD DUP1 SWAP2 SUB SWAP1 LOG3 POP POP POP JUMP JUMPDEST PUSH0 PUSH20 0xFFFFFFFFFFFFFFFFFFFFFFFFFFFFFFFFFFFFFFFF AND DUP3 PUSH20 0xFFFFFFFFFFFFFFFFFFFFFFFFFFFFFFFFFFFFFFFF AND SUB PUSH2 0x33AF JUMPI PUSH0 PUSH1 0x40 MLOAD PUSH32 0x96C6FD1E00000000000000000000000000000000000000000000000000000000 DUP2 MSTORE PUSH1 0x4 ADD PUSH2 0x33A6 SWAP2 SWAP1 PUSH2 0x37B1 JUMP JUMPDEST PUSH1 0x40 MLOAD DUP1 SWAP2 SUB SWAP1 REVERT JUMPDEST PUSH2 0x33BA DUP3 PUSH0 DUP4 PUSH2 0x3126 JUMP JUMPDEST POP POP JUMP JUMPDEST PUSH1 0x40 MLOAD DUP1 PUSH1 0x40 ADD PUSH1 0x40 MSTORE DUP1 PUSH0 PUSH8 0xFFFFFFFFFFFFFFFF AND DUP2 MSTORE PUSH1 0x20 ADD PUSH0 PUSH8 0xFFFFFFFFFFFFFFFF AND DUP2 MSTORE POP SWAP1 JUMP JUMPDEST PUSH1 0x40 MLOAD DUP1 PUSH2 0x140 ADD PUSH1 0x40 MSTORE DUP1 PUSH0 ISZERO ISZERO DUP2 MSTORE PUSH1 0x20 ADD PUSH0 PUSH2 0xFFFF AND DUP2 MSTORE PUSH1 0x20 ADD PUSH0 PUSH2 0xFFFF AND DUP2 MSTORE PUSH1 0x20 ADD PUSH0 PUSH8 0xFFFFFFFFFFFFFFFF AND DUP2 MSTORE PUSH1 0x20 ADD PUSH0 PUSH8 0xFFFFFFFFFFFFFFFF AND DUP2 MSTORE PUSH1 0x20 ADD PUSH0 PUSH20 0xFFFFFFFFFFFFFFFFFFFFFFFFFFFFFFFFFFFFFFFF AND DUP2 MSTORE PUSH1 0x20 ADD PUSH0 PUSH20 0xFFFFFFFFFFFFFFFFFFFFFFFFFFFFFFFFFFFFFFFF AND DUP2 MSTORE PUSH1 0x20 ADD PUSH0 PUSH20 0xFFFFFFFFFFFFFFFFFFFFFFFFFFFFFFFFFFFFFFFF AND DUP2 MSTORE PUSH1 0x20 ADD PUSH0 PUSH20 0xFFFFFFFFFFFFFFFFFFFFFFFFFFFFFFFFFFFFFFFF AND DUP2 MSTORE PUSH1 0x20 ADD PUSH0 PUSH20 0xFFFFFFFFFFFFFFFFFFFFFFFFFFFFFFFFFFFFFFFF AND DUP2 MSTORE POP SWAP1 JUMP JUMPDEST PUSH0 PUSH1 0x40 MLOAD SWAP1 POP SWAP1 JUMP JUMPDEST PUSH0 PUSH0 REVERT JUMPDEST PUSH0 PUSH0 REVERT JUMPDEST PUSH0 PUSH20 0xFFFFFFFFFFFFFFFFFFFFFFFFFFFFFFFFFFFFFFFF DUP3 AND SWAP1 POP SWAP2 SWAP1 POP JUMP JUMPDEST PUSH0 PUSH2 0x34F9 DUP3 PUSH2 0x34D0 JUMP JUMPDEST SWAP1 POP SWAP2 SWAP1 POP JUMP JUMPDEST PUSH2 0x3509 DUP2 PUSH2 0x34EF JUMP JUMPDEST DUP2 EQ PUSH2 0x3513 JUMPI PUSH0 PUSH0 REVERT JUMPDEST POP JUMP JUMPDEST PUSH0 DUP2 CALLDATALOAD SWAP1 POP PUSH2 0x3524 DUP2 PUSH2 0x3500 JUMP JUMPDEST SWAP3 SWAP2 POP POP JUMP JUMPDEST PUSH0 PUSH1 0x20 DUP3 DUP5 SUB SLT ISZERO PUSH2 0x353F JUMPI PUSH2 0x353E PUSH2 0x34C8 JUMP JUMPDEST JUMPDEST PUSH0 PUSH2 0x354C DUP5 DUP3 DUP6 ADD PUSH2 0x3516 JUMP JUMPDEST SWAP2 POP POP SWAP3 SWAP2 POP POP JUMP JUMPDEST PUSH0 DUP2 MLOAD SWAP1 POP SWAP2 SWAP1 POP JUMP JUMPDEST PUSH0 DUP3 DUP3 MSTORE PUSH1 0x20 DUP3 ADD SWAP1 POP SWAP3 SWAP2 POP POP JUMP JUMPDEST DUP3 DUP2 DUP4 MCOPY PUSH0 DUP4 DUP4 ADD MSTORE POP POP POP JUMP JUMPDEST PUSH0 PUSH1 0x1F NOT PUSH1 0x1F DUP4 ADD AND SWAP1 POP SWAP2 SWAP1 POP JUMP JUMPDEST PUSH0 PUSH2 0x3597 DUP3 PUSH2 0x3555 JUMP JUMPDEST PUSH2 0x35A1 DUP2 DUP6 PUSH2 0x355F JUMP JUMPDEST SWAP4 POP PUSH2 0x35B1 DUP2 DUP6 PUSH1 0x20 DUP7 ADD PUSH2 0x356F JUMP JUMPDEST PUSH2 0x35BA DUP2 PUSH2 0x357D JUMP JUMPDEST DUP5 ADD SWAP2 POP POP SWAP3 SWAP2 POP POP JUMP JUMPDEST PUSH0 PUSH1 0x20 DUP3 ADD SWAP1 POP DUP2 DUP2 SUB PUSH0 DUP4 ADD MSTORE PUSH2 0x35DD DUP2 DUP5 PUSH2 0x358D JUMP JUMPDEST SWAP1 POP SWAP3 SWAP2 POP POP JUMP JUMPDEST PUSH0 DUP2 SWAP1 POP SWAP2 SWAP1 POP JUMP JUMPDEST PUSH2 0x35F7 DUP2 PUSH2 0x35E5 JUMP JUMPDEST DUP2 EQ PUSH2 0x3601 JUMPI PUSH0 PUSH0 REVERT JUMPDEST POP JUMP JUMPDEST PUSH0 DUP2 CALLDATALOAD SWAP1 POP PUSH2 0x3612 DUP2 PUSH2 0x35EE JUMP JUMPDEST SWAP3 SWAP2 POP POP JUMP JUMPDEST PUSH0 PUSH0 PUSH1 0x40 DUP4 DUP6 SUB SLT ISZERO PUSH2 0x362E JUMPI PUSH2 0x362D PUSH2 0x34C8 JUMP JUMPDEST JUMPDEST PUSH0 PUSH2 0x363B DUP6 DUP3 DUP7 ADD PUSH2 0x3516 JUMP JUMPDEST SWAP3 POP POP PUSH1 0x20 PUSH2 0x364C DUP6 DUP3 DUP7 ADD PUSH2 0x3604 JUMP JUMPDEST SWAP2 POP POP SWAP3 POP SWAP3 SWAP1 POP JUMP JUMPDEST PUSH0 DUP2 ISZERO ISZERO SWAP1 POP SWAP2 SWAP1 POP JUMP JUMPDEST PUSH2 0x366A DUP2 PUSH2 0x3656 JUMP JUMPDEST DUP3 MSTORE POP POP JUMP JUMPDEST PUSH0 PUSH1 0x20 DUP3 ADD SWAP1 POP PUSH2 0x3683 PUSH0 DUP4 ADD DUP5 PUSH2 0x3661 JUMP JUMPDEST SWAP3 SWAP2 POP POP JUMP JUMPDEST PUSH0 PUSH8 0xFFFFFFFFFFFFFFFF DUP3 AND SWAP1 POP SWAP2 SWAP1 POP JUMP JUMPDEST PUSH2 0x36A5 DUP2 PUSH2 0x3689 JUMP JUMPDEST DUP2 EQ PUSH2 0x36AF JUMPI PUSH0 PUSH0 REVERT JUMPDEST POP JUMP JUMPDEST PUSH0 DUP2 CALLDATALOAD SWAP1 POP PUSH2 0x36C0 DUP2 PUSH2 0x369C JUMP JUMPDEST SWAP3 SWAP2 POP POP JUMP JUMPDEST PUSH0 PUSH0 PUSH0 PUSH0 PUSH1 0x80 DUP6 DUP8 SUB SLT ISZERO PUSH2 0x36DE JUMPI PUSH2 0x36DD PUSH2 0x34C8 JUMP JUMPDEST JUMPDEST PUSH0 PUSH2 0x36EB DUP8 DUP3 DUP9 ADD PUSH2 0x36B2 JUMP JUMPDEST SWAP5 POP POP PUSH1 0x20 PUSH2 0x36FC DUP8 DUP3 DUP9 ADD PUSH2 0x3516 JUMP JUMPDEST SWAP4 POP POP PUSH1 0x40 PUSH2 0x370D DUP8 DUP3 DUP9 ADD PUSH2 0x3516 JUMP JUMPDEST SWAP3 POP POP PUSH1 0x60 PUSH2 0x371E DUP8 DUP3 DUP9 ADD PUSH2 0x3516 JUMP JUMPDEST SWAP2 POP POP SWAP3 SWAP6 SWAP2 SWAP5 POP SWAP3 POP JUMP JUMPDEST PUSH2 0x3733 DUP2 PUSH2 0x35E5 JUMP JUMPDEST DUP3 MSTORE POP POP JUMP JUMPDEST PUSH0 PUSH1 0x20 DUP3 ADD SWAP1 POP PUSH2 0x374C PUSH0 DUP4 ADD DUP5 PUSH2 0x372A JUMP JUMPDEST SWAP3 SWAP2 POP POP JUMP JUMPDEST PUSH0 PUSH0 PUSH0 PUSH1 0x60 DUP5 DUP7 SUB SLT ISZERO PUSH2 0x3769 JUMPI PUSH2 0x3768 PUSH2 0x34C8 JUMP JUMPDEST JUMPDEST PUSH0 PUSH2 0x3776 DUP7 DUP3 DUP8 ADD PUSH2 0x3516 JUMP JUMPDEST SWAP4 POP POP PUSH1 0x20 PUSH2 0x3787 DUP7 DUP3 DUP8 ADD PUSH2 0x3516 JUMP JUMPDEST SWAP3 POP POP PUSH1 0x40 PUSH2 0x3798 DUP7 DUP3 DUP8 ADD PUSH2 0x3604 JUMP JUMPDEST SWAP2 POP POP SWAP3 POP SWAP3 POP SWAP3 JUMP JUMPDEST PUSH2 0x37AB DUP2 PUSH2 0x34EF JUMP JUMPDEST DUP3 MSTORE POP POP JUMP JUMPDEST PUSH0 PUSH1 0x20 DUP3 ADD SWAP1 POP PUSH2 0x37C4 PUSH0 DUP4 ADD DUP5 PUSH2 0x37A2 JUMP JUMPDEST SWAP3 SWAP2 POP POP JUMP JUMPDEST PUSH0 PUSH32 0xFF00000000000000000000000000000000000000000000000000000000000000 DUP3 AND SWAP1 POP SWAP2 SWAP1 POP JUMP JUMPDEST PUSH2 0x37FE DUP2 PUSH2 0x37CA JUMP JUMPDEST DUP2 EQ PUSH2 0x3808 JUMPI PUSH0 PUSH0 REVERT JUMPDEST POP JUMP JUMPDEST PUSH0 DUP2 CALLDATALOAD SWAP1 POP PUSH2 0x3819 DUP2 PUSH2 0x37F5 JUMP JUMPDEST SWAP3 SWAP2 POP POP JUMP JUMPDEST PUSH0 PUSH1 0x20 DUP3 DUP5 SUB SLT ISZERO PUSH2 0x3834 JUMPI PUSH2 0x3833 PUSH2 0x34C8 JUMP JUMPDEST JUMPDEST PUSH0 PUSH2 0x3841 DUP5 DUP3 DUP6 ADD PUSH2 0x380B JUMP JUMPDEST SWAP2 POP POP SWAP3 SWAP2 POP POP JUMP JUMPDEST PUSH2 0x3853 DUP2 PUSH2 0x37CA JUMP JUMPDEST DUP3 MSTORE POP POP JUMP JUMPDEST PUSH0 PUSH1 0x20 DUP3 ADD SWAP1 POP PUSH2 0x386C PUSH0 DUP4 ADD DUP5 PUSH2 0x384A JUMP JUMPDEST SWAP3 SWAP2 POP POP JUMP JUMPDEST PUSH0 PUSH1 0xFF DUP3 AND SWAP1 POP SWAP2 SWAP1 POP JUMP JUMPDEST PUSH2 0x3887 DUP2 PUSH2 0x3872 JUMP JUMPDEST DUP3 MSTORE POP POP JUMP JUMPDEST PUSH0 PUSH1 0x20 DUP3 ADD SWAP1 POP PUSH2 0x38A0 PUSH0 DUP4 ADD DUP5 PUSH2 0x387E JUMP JUMPDEST SWAP3 SWAP2 POP POP JUMP JUMPDEST PUSH0 PUSH0 REVERT JUMPDEST PUSH0 PUSH1 0x80 DUP3 DUP5 SUB SLT ISZERO PUSH2 0x38BF JUMPI PUSH2 0x38BE PUSH2 0x38A6 JUMP JUMPDEST JUMPDEST DUP2 SWAP1 POP SWAP3 SWAP2 POP POP JUMP JUMPDEST PUSH0 PUSH1 0x20 DUP3 DUP5 SUB SLT ISZERO PUSH2 0x38DD JUMPI PUSH2 0x38DC PUSH2 0x34C8 JUMP JUMPDEST JUMPDEST PUSH0 DUP3 ADD CALLDATALOAD PUSH8 0xFFFFFFFFFFFFFFFF DUP2 GT ISZERO PUSH2 0x38FA JUMPI PUSH2 0x38F9 PUSH2 0x34CC JUMP JUMPDEST JUMPDEST PUSH2 0x3906 DUP5 DUP3 DUP6 ADD PUSH2 0x38AA JUMP JUMPDEST SWAP2 POP POP SWAP3 SWAP2 POP POP JUMP JUMPDEST PUSH2 0x3918 DUP2 PUSH2 0x3689 JUMP JUMPDEST DUP3 MSTORE POP POP JUMP JUMPDEST PUSH1 0x40 DUP3 ADD PUSH0 DUP3 ADD MLOAD PUSH2 0x3932 PUSH0 DUP6 ADD DUP3 PUSH2 0x390F JUMP JUMPDEST POP PUSH1 0x20 DUP3 ADD MLOAD PUSH2 0x3945 PUSH1 0x20 DUP6 ADD DUP3 PUSH2 0x390F JUMP JUMPDEST POP POP POP POP JUMP JUMPDEST PUSH0 PUSH1 0x40 DUP3 ADD SWAP1 POP PUSH2 0x395E PUSH0 DUP4 ADD DUP5 PUSH2 0x391E JUMP JUMPDEST SWAP3 SWAP2 POP POP JUMP JUMPDEST PUSH0 PUSH1 0xA0 DUP3 DUP5 SUB SLT ISZERO PUSH2 0x3979 JUMPI PUSH2 0x3978 PUSH2 0x38A6 JUMP JUMPDEST JUMPDEST DUP2 SWAP1 POP SWAP3 SWAP2 POP POP JUMP JUMPDEST PUSH0 PUSH1 0xA0 DUP3 DUP5 SUB SLT ISZERO PUSH2 0x3997 JUMPI PUSH2 0x3996 PUSH2 0x34C8 JUMP JUMPDEST JUMPDEST PUSH0 PUSH2 0x39A4 DUP5 DUP3 DUP6 ADD PUSH2 0x3964 JUMP JUMPDEST SWAP2 POP POP SWAP3 SWAP2 POP POP JUMP JUMPDEST PUSH2 0x39B6 DUP2 PUSH2 0x3689 JUMP JUMPDEST DUP3 MSTORE POP POP JUMP JUMPDEST PUSH0 PUSH1 0x20 DUP3 ADD SWAP1 POP PUSH2 0x39CF PUSH0 DUP4 ADD DUP5 PUSH2 0x39AD JUMP JUMPDEST SWAP3 SWAP2 POP POP JUMP JUMPDEST PUSH0 PUSH0 PUSH1 0x40 DUP4 DUP6 SUB SLT ISZERO PUSH2 0x39EB JUMPI PUSH2 0x39EA PUSH2 0x34C8 JUMP JUMPDEST JUMPDEST PUSH0 PUSH2 0x39F8 DUP6 DUP3 DUP7 ADD PUSH2 0x3516 JUMP JUMPDEST SWAP3 POP POP PUSH1 0x20 PUSH2 0x3A09 DUP6 DUP3 DUP7 ADD PUSH2 0x3516 JUMP JUMPDEST SWAP2 POP POP SWAP3 POP SWAP3 SWAP1 POP JUMP JUMPDEST PUSH0 PUSH4 0xFFFFFFFF DUP3 AND SWAP1 POP SWAP2 SWAP1 POP JUMP JUMPDEST PUSH2 0x3A2B DUP2 PUSH2 0x3A13 JUMP JUMPDEST DUP2 EQ PUSH2 0x3A35 JUMPI PUSH0 PUSH0 REVERT JUMPDEST POP JUMP JUMPDEST PUSH0 DUP2 CALLDATALOAD SWAP1 POP PUSH2 0x3A46 DUP2 PUSH2 0x3A22 JUMP JUMPDEST SWAP3 SWAP2 POP POP JUMP JUMPDEST PUSH0 PUSH0 PUSH0 PUSH0 PUSH1 0x80 DUP6 DUP8 SUB SLT ISZERO PUSH2 0x3A64 JUMPI PUSH2 0x3A63 PUSH2 0x34C8 JUMP JUMPDEST JUMPDEST PUSH0 PUSH2 0x3A71 DUP8 DUP3 DUP9 ADD PUSH2 0x3A38 JUMP JUMPDEST SWAP5 POP POP PUSH1 0x20 PUSH2 0x3A82 DUP8 DUP3 DUP9 ADD PUSH2 0x36B2 JUMP JUMPDEST SWAP4 POP POP PUSH1 0x40 PUSH2 0x3A93 DUP8 DUP3 DUP9 ADD PUSH2 0x3516 JUMP JUMPDEST SWAP3 POP POP PUSH1 0x60 PUSH2 0x3AA4 DUP8 DUP3 DUP9 ADD PUSH2 0x3604 JUMP JUMPDEST SWAP2 POP POP SWAP3 SWAP6 SWAP2 SWAP5 POP SWAP3 POP JUMP JUMPDEST PUSH0 PUSH2 0xFFFF DUP3 AND SWAP1 POP SWAP2 SWAP1 POP JUMP JUMPDEST PUSH2 0x3AC6 DUP2 PUSH2 0x3AB0 JUMP JUMPDEST DUP2 EQ PUSH2 0x3AD0 JUMPI PUSH0 PUSH0 REVERT JUMPDEST POP JUMP JUMPDEST PUSH0 DUP2 CALLDATALOAD SWAP1 POP PUSH2 0x3AE1 DUP2 PUSH2 0x3ABD JUMP JUMPDEST SWAP3 SWAP2 POP POP JUMP JUMPDEST PUSH0 PUSH1 0x20 DUP3 DUP5 SUB SLT ISZERO PUSH2 0x3AFC JUMPI PUSH2 0x3AFB PUSH2 0x34C8 JUMP JUMPDEST JUMPDEST PUSH0 PUSH2 0x3B09 DUP5 DUP3 DUP6 ADD PUSH2 0x3AD3 JUMP JUMPDEST SWAP2 POP POP SWAP3 SWAP2 POP POP JUMP JUMPDEST PUSH32 0x416C726561647920757064617465000000000000000000000000000000000000 PUSH0 DUP3 ADD MSTORE POP JUMP JUMPDEST PUSH0 PUSH2 0x3B46 PUSH1 0xE DUP4 PUSH2 0x355F JUMP JUMPDEST SWAP2 POP PUSH2 0x3B51 DUP3 PUSH2 0x3B12 JUMP JUMPDEST PUSH1 0x20 DUP3 ADD SWAP1 POP SWAP2 SWAP1 POP JUMP JUMPDEST PUSH0 PUSH1 0x20 DUP3 ADD SWAP1 POP DUP2 DUP2 SUB PUSH0 DUP4 ADD MSTORE PUSH2 0x3B73 DUP2 PUSH2 0x3B3A JUMP JUMPDEST SWAP1 POP SWAP2 SWAP1 POP JUMP JUMPDEST PUSH32 0x4E6F6E2073757065722075736572000000000000000000000000000000000000 PUSH0 DUP3 ADD MSTORE POP JUMP JUMPDEST PUSH0 PUSH2 0x3BAE PUSH1 0xE DUP4 PUSH2 0x355F JUMP JUMPDEST SWAP2 POP PUSH2 0x3BB9 DUP3 PUSH2 0x3B7A JUMP JUMPDEST PUSH1 0x20 DUP3 ADD SWAP1 POP SWAP2 SWAP1 POP JUMP JUMPDEST PUSH0 PUSH1 0x20 DUP3 ADD SWAP1 POP DUP2 DUP2 SUB PUSH0 DUP4 ADD MSTORE PUSH2 0x3BDB DUP2 PUSH2 0x3BA2 JUMP JUMPDEST SWAP1 POP SWAP2 SWAP1 POP JUMP JUMPDEST PUSH32 0x4E487B7100000000000000000000000000000000000000000000000000000000 PUSH0 MSTORE PUSH1 0x22 PUSH1 0x4 MSTORE PUSH1 0x24 PUSH0 REVERT JUMPDEST PUSH0 PUSH1 0x2 DUP3 DIV SWAP1 POP PUSH1 0x1 DUP3 AND DUP1 PUSH2 0x3C26 JUMPI PUSH1 0x7F DUP3 AND SWAP2 POP JUMPDEST PUSH1 0x20 DUP3 LT DUP2 SUB PUSH2 0x3C39 JUMPI PUSH2 0x3C38 PUSH2 0x3BE2 JUMP JUMPDEST JUMPDEST POP SWAP2 SWAP1 POP JUMP JUMPDEST PUSH32 0x4C6F636B00000000000000000000000000000000000000000000000000000000 PUSH0 DUP3 ADD MSTORE POP JUMP JUMPDEST PUSH0 PUSH2 0x3C73 PUSH1 0x4 DUP4 PUSH2 0x355F JUMP JUMPDEST SWAP2 POP PUSH2 0x3C7E DUP3 PUSH2 0x3C3F JUMP JUMPDEST PUSH1 0x20 DUP3 ADD SWAP1 POP SWAP2 SWAP1 POP JUMP JUMPDEST PUSH0 PUSH1 0x20 DUP3 ADD SWAP1 POP DUP2 DUP2 SUB PUSH0 DUP4 ADD MSTORE PUSH2 0x3CA0 DUP2 PUSH2 0x3C67 JUMP JUMPDEST SWAP1 POP SWAP2 SWAP1 POP JUMP JUMPDEST PUSH32 0x537570706C79206661696C000000000000000000000000000000000000000000 PUSH0 DUP3 ADD MSTORE POP JUMP JUMPDEST PUSH0 PUSH2 0x3CDB PUSH1 0xB DUP4 PUSH2 0x355F JUMP JUMPDEST SWAP2 POP PUSH2 0x3CE6 DUP3 PUSH2 0x3CA7 JUMP JUMPDEST PUSH1 0x20 DUP3 ADD SWAP1 POP SWAP2 SWAP1 POP JUMP JUMPDEST PUSH0 PUSH1 0x20 DUP3 ADD SWAP1 POP DUP2 DUP2 SUB PUSH0 DUP4 ADD MSTORE PUSH2 0x3D08 DUP2 PUSH2 0x3CCF JUMP JUMPDEST SWAP1 POP SWAP2 SWAP1 POP JUMP JUMPDEST PUSH32 0x4E487B7100000000000000000000000000000000000000000000000000000000 PUSH0 MSTORE PUSH1 0x11 PUSH1 0x4 MSTORE PUSH1 0x24 PUSH0 REVERT JUMPDEST PUSH0 PUSH2 0x3D46 DUP3 PUSH2 0x3689 JUMP JUMPDEST SWAP2 POP PUSH2 0x3D51 DUP4 PUSH2 0x3689 JUMP JUMPDEST SWAP3 POP DUP3 DUP3 SUB SWAP1 POP PUSH8 0xFFFFFFFFFFFFFFFF DUP2 GT ISZERO PUSH2 0x3D71 JUMPI PUSH2 0x3D70 PUSH2 0x3D0F JUMP JUMPDEST JUMPDEST SWAP3 SWAP2 POP POP JUMP JUMPDEST PUSH0 PUSH2 0x3D81 DUP3 PUSH2 0x3689 JUMP JUMPDEST SWAP2 POP PUSH2 0x3D8C DUP4 PUSH2 0x3689 JUMP JUMPDEST SWAP3 POP DUP3 DUP3 MUL PUSH2 0x3D9A DUP2 PUSH2 0x3689 JUMP JUMPDEST SWAP2 POP DUP1 DUP3 EQ PUSH2 0x3DAC JUMPI PUSH2 0x3DAB PUSH2 0x3D0F JUMP JUMPDEST JUMPDEST POP SWAP3 SWAP2 POP POP JUMP JUMPDEST PUSH0 PUSH2 0x3DBD DUP3 PUSH2 0x3689 JUMP JUMPDEST SWAP2 POP PUSH2 0x3DC8 DUP4 PUSH2 0x3689 JUMP JUMPDEST SWAP3 POP DUP3 DUP3 ADD SWAP1 POP PUSH8 0xFFFFFFFFFFFFFFFF DUP2 GT ISZERO PUSH2 0x3DE8 JUMPI PUSH2 0x3DE7 PUSH2 0x3D0F JUMP JUMPDEST JUMPDEST SWAP3 SWAP2 POP POP JUMP JUMPDEST PUSH32 0x4D696E74206661696C0000000000000000000000000000000000000000000000 PUSH0 DUP3 ADD MSTORE POP JUMP JUMPDEST PUSH0 PUSH2 0x3E22 PUSH1 0x9 DUP4 PUSH2 0x355F JUMP JUMPDEST SWAP2 POP PUSH2 0x3E2D DUP3 PUSH2 0x3DEE JUMP JUMPDEST PUSH1 0x20 DUP3 ADD SWAP1 POP SWAP2 SWAP1 POP JUMP JUMPDEST PUSH0 PUSH1 0x20 DUP3 ADD SWAP1 POP DUP2 DUP2 SUB PUSH0 DUP4 ADD MSTORE PUSH2 0x3E4F DUP2 PUSH2 0x3E16 JUMP JUMPDEST SWAP1 POP SWAP2 SWAP1 POP JUMP JUMPDEST PUSH32 0x416C726561647920776974686472617700000000000000000000000000000000 PUSH0 DUP3 ADD MSTORE POP JUMP JUMPDEST PUSH0 PUSH2 0x3E8A PUSH1 0x10 DUP4 PUSH2 0x355F JUMP JUMPDEST SWAP2 POP PUSH2 0x3E95 DUP3 PUSH2 0x3E56 JUMP JUMPDEST PUSH1 0x20 DUP3 ADD SWAP1 POP SWAP2 SWAP1 POP JUMP JUMPDEST PUSH0 PUSH1 0x20 DUP3 ADD SWAP1 POP DUP2 DUP2 SUB PUSH0 DUP4 ADD MSTORE PUSH2 0x3EB7 DUP2 PUSH2 0x3E7E JUMP JUMPDEST SWAP1 POP SWAP2 SWAP1 POP JUMP JUMPDEST PUSH0 PUSH1 0x40 DUP3 ADD SWAP1 POP PUSH2 0x3ED1 PUSH0 DUP4 ADD DUP6 PUSH2 0x37A2 JUMP JUMPDEST PUSH2 0x3EDE PUSH1 0x20 DUP4 ADD DUP5 PUSH2 0x372A JUMP JUMPDEST SWAP4 SWAP3 POP POP POP JUMP JUMPDEST PUSH2 0x3EEE DUP2 PUSH2 0x3656 JUMP JUMPDEST DUP2 EQ PUSH2 0x3EF8 JUMPI PUSH0 PUSH0 REVERT JUMPDEST POP JUMP JUMPDEST PUSH0 DUP2 MLOAD SWAP1 POP PUSH2 0x3F09 DUP2 PUSH2 0x3EE5 JUMP JUMPDEST SWAP3 SWAP2 POP POP JUMP JUMPDEST PUSH0 PUSH1 0x20 DUP3 DUP5 SUB SLT ISZERO PUSH2 0x3F24 JUMPI PUSH2 0x3F23 PUSH2 0x34C8 JUMP JUMPDEST JUMPDEST PUSH0 PUSH2 0x3F31 DUP5 DUP3 DUP6 ADD PUSH2 0x3EFB JUMP JUMPDEST SWAP2 POP POP SWAP3 SWAP2 POP POP JUMP JUMPDEST PUSH32 0x4C325769746864726177206661696C0000000000000000000000000000000000 PUSH0 DUP3 ADD MSTORE POP JUMP JUMPDEST PUSH0 PUSH2 0x3F6E PUSH1 0xF DUP4 PUSH2 0x355F JUMP JUMPDEST SWAP2 POP PUSH2 0x3F79 DUP3 PUSH2 0x3F3A JUMP JUMPDEST PUSH1 0x20 DUP3 ADD SWAP1 POP SWAP2 SWAP1 POP JUMP JUMPDEST PUSH0 PUSH1 0x20 DUP3 ADD SWAP1 POP DUP2 DUP2 SUB PUSH0 DUP4 ADD MSTORE PUSH2 0x3F9B DUP2 PUSH2 0x3F62 JUMP JUMPDEST SWAP1 POP SWAP2 SWAP1 POP JUMP JUMPDEST PUSH0 PUSH0 REVERT JUMPDEST PUSH0 PUSH0 REVERT JUMPDEST PUSH0 PUSH0 REVERT JUMPDEST PUSH0 PUSH0 DUP4 CALLDATALOAD PUSH1 0x1 PUSH1 0x20 SUB DUP5 CALLDATASIZE SUB SUB DUP2 SLT PUSH2 0x3FCA JUMPI PUSH2 0x3FC9 PUSH2 0x3FA2 JUMP JUMPDEST JUMPDEST DUP1 DUP5 ADD SWAP3 POP DUP3 CALLDATALOAD SWAP2 POP PUSH8 0xFFFFFFFFFFFFFFFF DUP3 GT ISZERO PUSH2 0x3FEC JUMPI PUSH2 0x3FEB PUSH2 0x3FA6 JUMP JUMPDEST JUMPDEST PUSH1 0x20 DUP4 ADD SWAP3 POP PUSH1 0x1 DUP3 MUL CALLDATASIZE SUB DUP4 SGT ISZERO PUSH2 0x4008 JUMPI PUSH2 0x4007 PUSH2 0x3FAA JUMP JUMPDEST JUMPDEST POP SWAP3 POP SWAP3 SWAP1 POP JUMP JUMPDEST PUSH0 DUP3 DUP3 MSTORE PUSH1 0x20 DUP3 ADD SWAP1 POP SWAP3 SWAP2 POP POP JUMP JUMPDEST DUP3 DUP2 DUP4 CALLDATACOPY PUSH0 DUP4 DUP4 ADD MSTORE POP POP POP JUMP JUMPDEST PUSH0 PUSH2 0x4039 DUP4 DUP6 PUSH2 0x4010 JUMP JUMPDEST SWAP4 POP PUSH2 0x4046 DUP4 DUP6 DUP5 PUSH2 0x4020 JUMP JUMPDEST PUSH2 0x404F DUP4 PUSH2 0x357D JUMP JUMPDEST DUP5 ADD SWAP1 POP SWAP4 SWAP3 POP POP POP JUMP JUMPDEST PUSH0 PUSH1 0x40 DUP3 ADD SWAP1 POP DUP2 DUP2 SUB PUSH0 DUP4 ADD MSTORE PUSH2 0x4073 DUP2 DUP7 DUP9 PUSH2 0x402E JUMP JUMPDEST SWAP1 POP DUP2 DUP2 SUB PUSH1 0x20 DUP4 ADD MSTORE PUSH2 0x4088 DUP2 DUP5 DUP7 PUSH2 0x402E JUMP JUMPDEST SWAP1 POP SWAP6 SWAP5 POP POP POP POP POP JUMP JUMPDEST PUSH32 0x55534443207A65726F2062616C616E6365000000000000000000000000000000 PUSH0 DUP3 ADD MSTORE POP JUMP JUMPDEST PUSH0 PUSH2 0x40C7 PUSH1 0x11 DUP4 PUSH2 0x355F JUMP JUMPDEST SWAP2 POP PUSH2 0x40D2 DUP3 PUSH2 0x4093 JUMP JUMPDEST PUSH1 0x20 DUP3 ADD SWAP1 POP SWAP2 SWAP1 POP JUMP JUMPDEST PUSH0 PUSH1 0x20 DUP3 ADD SWAP1 POP DUP2 DUP2 SUB PUSH0 DUP4 ADD MSTORE PUSH2 0x40F4 DUP2 PUSH2 0x40BB JUMP JUMPDEST SWAP1 POP SWAP2 SWAP1 POP JUMP JUMPDEST PUSH32 0x4C324465706F73697465206661696C0000000000000000000000000000000000 PUSH0 DUP3 ADD MSTORE POP JUMP JUMPDEST PUSH0 PUSH2 0x412F PUSH1 0xF DUP4 PUSH2 0x355F JUMP JUMPDEST SWAP2 POP PUSH2 0x413A DUP3 PUSH2 0x40FB JUMP JUMPDEST PUSH1 0x20 DUP3 ADD SWAP1 POP SWAP2 SWAP1 POP JUMP JUMPDEST PUSH0 PUSH1 0x20 DUP3 ADD SWAP1 POP DUP2 DUP2 SUB PUSH0 DUP4 ADD MSTORE PUSH2 0x415C DUP2 PUSH2 0x4123 JUMP JUMPDEST SWAP1 POP SWAP2 SWAP1 POP JUMP JUMPDEST PUSH32 0x5A65726F20776974686472617720616D6F756E74000000000000000000000000 PUSH0 DUP3 ADD MSTORE POP JUMP JUMPDEST PUSH0 PUSH2 0x4197 PUSH1 0x14 DUP4 PUSH2 0x355F JUMP JUMPDEST SWAP2 POP PUSH2 0x41A2 DUP3 PUSH2 0x4163 JUMP JUMPDEST PUSH1 0x20 DUP3 ADD SWAP1 POP SWAP2 SWAP1 POP JUMP JUMPDEST PUSH0 PUSH1 0x20 DUP3 ADD SWAP1 POP DUP2 DUP2 SUB PUSH0 DUP4 ADD MSTORE PUSH2 0x41C4 DUP2 PUSH2 0x418B JUMP JUMPDEST SWAP1 POP SWAP2 SWAP1 POP JUMP JUMPDEST PUSH32 0x5A65726F00000000000000000000000000000000000000000000000000000000 PUSH0 DUP3 ADD MSTORE POP JUMP JUMPDEST PUSH0 PUSH2 0x41FF PUSH1 0x4 DUP4 PUSH2 0x355F JUMP JUMPDEST SWAP2 POP PUSH2 0x420A DUP3 PUSH2 0x41CB JUMP JUMPDEST PUSH1 0x20 DUP3 ADD SWAP1 POP SWAP2 SWAP1 POP JUMP JUMPDEST PUSH0 PUSH1 0x20 DUP3 ADD SWAP1 POP DUP2 DUP2 SUB PUSH0 DUP4 ADD MSTORE PUSH2 0x422C DUP2 PUSH2 0x41F3 JUMP JUMPDEST SWAP1 POP SWAP2 SWAP1 POP JUMP JUMPDEST PUSH32 0x4275726E206661696C0000000000000000000000000000000000000000000000 PUSH0 DUP3 ADD MSTORE POP JUMP JUMPDEST PUSH0 PUSH2 0x4267 PUSH1 0x9 DUP4 PUSH2 0x355F JUMP JUMPDEST SWAP2 POP PUSH2 0x4272 DUP3 PUSH2 0x4233 JUMP JUMPDEST PUSH1 0x20 DUP3 ADD SWAP1 POP SWAP2 SWAP1 POP JUMP JUMPDEST PUSH0 PUSH1 0x20 DUP3 ADD SWAP1 POP DUP2 DUP2 SUB PUSH0 DUP4 ADD MSTORE PUSH2 0x4294 DUP2 PUSH2 0x425B JUMP JUMPDEST SWAP1 POP SWAP2 SWAP1 POP JUMP JUMPDEST PUSH0 PUSH1 0x20 DUP3 DUP5 SUB SLT ISZERO PUSH2 0x42B0 JUMPI PUSH2 0x42AF PUSH2 0x34C8 JUMP JUMPDEST JUMPDEST PUSH0 PUSH2 0x42BD DUP5 DUP3 DUP6 ADD PUSH2 0x3A38 JUMP JUMPDEST SWAP2 POP POP SWAP3 SWAP2 POP POP JUMP JUMPDEST PUSH32 0x41555344435A65726F2062616C616E6365000000000000000000000000000000 PUSH0 DUP3 ADD MSTORE POP JUMP JUMPDEST PUSH0 PUSH2 0x42FA PUSH1 0x11 DUP4 PUSH2 0x355F JUMP JUMPDEST SWAP2 POP PUSH2 0x4305 DUP3 PUSH2 0x42C6 JUMP JUMPDEST PUSH1 0x20 DUP3 ADD SWAP1 POP SWAP2 SWAP1 POP JUMP JUMPDEST PUSH0 PUSH1 0x20 DUP3 ADD SWAP1 POP DUP2 DUP2 SUB PUSH0 DUP4 ADD MSTORE PUSH2 0x4327 DUP2 PUSH2 0x42EE JUMP JUMPDEST SWAP1 POP SWAP2 SWAP1 POP JUMP JUMPDEST PUSH32 0x5769746864726177206661696C00000000000000000000000000000000000000 PUSH0 DUP3 ADD MSTORE POP JUMP JUMPDEST PUSH0 PUSH2 0x4362 PUSH1 0xD DUP4 PUSH2 0x355F JUMP JUMPDEST SWAP2 POP PUSH2 0x436D DUP3 PUSH2 0x432E JUMP JUMPDEST PUSH1 0x20 DUP3 ADD SWAP1 POP SWAP2 SWAP1 POP JUMP JUMPDEST PUSH0 PUSH1 0x20 DUP3 ADD SWAP1 POP DUP2 DUP2 SUB PUSH0 DUP4 ADD MSTORE PUSH2 0x438F DUP2 PUSH2 0x4356 JUMP JUMPDEST SWAP1 POP SWAP2 SWAP1 POP JUMP JUMPDEST PUSH0 PUSH1 0x20 DUP3 DUP5 SUB SLT ISZERO PUSH2 0x43AB JUMPI PUSH2 0x43AA PUSH2 0x34C8 JUMP JUMPDEST JUMPDEST PUSH0 PUSH2 0x43B8 DUP5 DUP3 DUP6 ADD PUSH2 0x36B2 JUMP JUMPDEST SWAP2 POP POP SWAP3 SWAP2 POP POP JUMP JUMPDEST PUSH0 DUP2 MLOAD SWAP1 POP PUSH2 0x43CF DUP2 PUSH2 0x3500 JUMP JUMPDEST SWAP3 SWAP2 POP POP JUMP JUMPDEST PUSH0 PUSH1 0x20 DUP3 DUP5 SUB SLT ISZERO PUSH2 0x43EA JUMPI PUSH2 0x43E9 PUSH2 0x34C8 JUMP JUMPDEST JUMPDEST PUSH0 PUSH2 0x43F7 DUP5 DUP3 DUP6 ADD PUSH2 0x43C1 JUMP JUMPDEST SWAP2 POP POP SWAP3 SWAP2 POP POP JUMP JUMPDEST PUSH0 PUSH0 REVERT JUMPDEST PUSH32 0x4E487B7100000000000000000000000000000000000000000000000000000000 PUSH0 MSTORE PUSH1 0x41 PUSH1 0x4 MSTORE PUSH1 0x24 PUSH0 REVERT JUMPDEST PUSH2 0x443A DUP3 PUSH2 0x357D JUMP JUMPDEST DUP2 ADD DUP2 DUP2 LT PUSH8 0xFFFFFFFFFFFFFFFF DUP3 GT OR ISZERO PUSH2 0x4459 JUMPI PUSH2 0x4458 PUSH2 0x4404 JUMP JUMPDEST JUMPDEST DUP1 PUSH1 0x40 MSTORE POP POP POP JUMP JUMPDEST PUSH0 PUSH2 0x446B PUSH2 0x34BF JUMP JUMPDEST SWAP1 POP PUSH2 0x4477 DUP3 DUP3 PUSH2 0x4431 JUMP JUMPDEST SWAP2 SWAP1 POP JUMP JUMPDEST PUSH0 DUP2 MLOAD SWAP1 POP PUSH2 0x448A DUP2 PUSH2 0x3ABD JUMP JUMPDEST SWAP3 SWAP2 POP POP JUMP JUMPDEST PUSH0 DUP2 MLOAD SWAP1 POP PUSH2 0x449E DUP2 PUSH2 0x369C JUMP JUMPDEST SWAP3 SWAP2 POP POP JUMP JUMPDEST PUSH0 PUSH2 0x140 DUP3 DUP5 SUB SLT ISZERO PUSH2 0x44BA JUMPI PUSH2 0x44B9 PUSH2 0x4400 JUMP JUMPDEST JUMPDEST PUSH2 0x44C5 PUSH2 0x140 PUSH2 0x4462 JUMP JUMPDEST SWAP1 POP PUSH0 PUSH2 0x44D4 DUP5 DUP3 DUP6 ADD PUSH2 0x3EFB JUMP JUMPDEST PUSH0 DUP4 ADD MSTORE POP PUSH1 0x20 PUSH2 0x44E7 DUP5 DUP3 DUP6 ADD PUSH2 0x447C JUMP JUMPDEST PUSH1 0x20 DUP4 ADD MSTORE POP PUSH1 0x40 PUSH2 0x44FB DUP5 DUP3 DUP6 ADD PUSH2 0x447C JUMP JUMPDEST PUSH1 0x40 DUP4 ADD MSTORE POP PUSH1 0x60 PUSH2 0x450F DUP5 DUP3 DUP6 ADD PUSH2 0x4490 JUMP JUMPDEST PUSH1 0x60 DUP4 ADD MSTORE POP PUSH1 0x80 PUSH2 0x4523 DUP5 DUP3 DUP6 ADD PUSH2 0x4490 JUMP JUMPDEST PUSH1 0x80 DUP4 ADD MSTORE POP PUSH1 0xA0 PUSH2 0x4537 DUP5 DUP3 DUP6 ADD PUSH2 0x43C1 JUMP JUMPDEST PUSH1 0xA0 DUP4 ADD MSTORE POP PUSH1 0xC0 PUSH2 0x454B DUP5 DUP3 DUP6 ADD PUSH2 0x43C1 JUMP JUMPDEST PUSH1 0xC0 DUP4 ADD MSTORE POP PUSH1 0xE0 PUSH2 0x455F DUP5 DUP3 DUP6 ADD PUSH2 0x43C1 JUMP JUMPDEST PUSH1 0xE0 DUP4 ADD MSTORE POP PUSH2 0x100 PUSH2 0x4574 DUP5 DUP3 DUP6 ADD PUSH2 0x43C1 JUMP JUMPDEST PUSH2 0x100 DUP4 ADD MSTORE POP PUSH2 0x120 PUSH2 0x458A DUP5 DUP3 DUP6 ADD PUSH2 0x43C1 JUMP JUMPDEST PUSH2 0x120 DUP4 ADD MSTORE POP SWAP3 SWAP2 POP POP JUMP JUMPDEST PUSH0 PUSH2 0x140 DUP3 DUP5 SUB SLT ISZERO PUSH2 0x45AD JUMPI PUSH2 0x45AC PUSH2 0x34C8 JUMP JUMPDEST JUMPDEST PUSH0 PUSH2 0x45BA DUP5 DUP3 DUP6 ADD PUSH2 0x44A4 JUMP JUMPDEST SWAP2 POP POP SWAP3 SWAP2 POP POP JUMP JUMPDEST PUSH0 PUSH1 0x60 DUP3 ADD SWAP1 POP PUSH2 0x45D6 PUSH0 DUP4 ADD DUP7 PUSH2 0x37A2 JUMP JUMPDEST PUSH2 0x45E3 PUSH1 0x20 DUP4 ADD DUP6 PUSH2 0x37A2 JUMP JUMPDEST PUSH2 0x45F0 PUSH1 0x40 DUP4 ADD DUP5 PUSH2 0x372A JUMP JUMPDEST SWAP5 SWAP4 POP POP POP POP JUMP JUMPDEST PUSH2 0x4601 DUP2 PUSH2 0x3AB0 JUMP JUMPDEST DUP3 MSTORE POP POP JUMP JUMPDEST PUSH0 PUSH1 0x60 DUP3 ADD SWAP1 POP PUSH2 0x461A PUSH0 DUP4 ADD DUP7 PUSH2 0x37A2 JUMP JUMPDEST PUSH2 0x4627 PUSH1 0x20 DUP4 ADD DUP6 PUSH2 0x372A JUMP JUMPDEST PUSH2 0x4634 PUSH1 0x40 DUP4 ADD DUP5 PUSH2 0x45F8 JUMP JUMPDEST SWAP5 SWAP4 POP POP POP POP JUMP JUMPDEST PUSH0 DUP2 SWAP1 POP SWAP2 SWAP1 POP JUMP JUMPDEST PUSH2 0x464E DUP2 PUSH2 0x463C JUMP JUMPDEST DUP2 EQ PUSH2 0x4658 JUMPI PUSH0 PUSH0 REVERT JUMPDEST POP JUMP JUMPDEST PUSH0 DUP2 MLOAD SWAP1 POP PUSH2 0x4669 DUP2 PUSH2 0x4645 JUMP JUMPDEST SWAP3 SWAP2 POP POP JUMP JUMPDEST PUSH0 PUSH1 0x20 DUP3 DUP5 SUB SLT ISZERO PUSH2 0x4684 JUMPI PUSH2 0x4683 PUSH2 0x34C8 JUMP JUMPDEST JUMPDEST PUSH0 PUSH2 0x4691 DUP5 DUP3 DUP6 ADD PUSH2 0x465B JUMP JUMPDEST SWAP2 POP POP SWAP3 SWAP2 POP POP JUMP JUMPDEST PUSH2 0x46A3 DUP2 PUSH2 0x463C JUMP JUMPDEST DUP3 MSTORE POP POP JUMP JUMPDEST PUSH0 PUSH1 0x20 DUP3 ADD SWAP1 POP PUSH2 0x46BC PUSH0 DUP4 ADD DUP5 PUSH2 0x469A JUMP JUMPDEST SWAP3 SWAP2 POP POP JUMP JUMPDEST PUSH32 0x4E6F6E206F776E65720000000000000000000000000000000000000000000000 PUSH0 DUP3 ADD MSTORE POP JUMP JUMPDEST PUSH0 PUSH2 0x46F6 PUSH1 0x9 DUP4 PUSH2 0x355F JUMP JUMPDEST SWAP2 POP PUSH2 0x4701 DUP3 PUSH2 0x46C2 JUMP JUMPDEST PUSH1 0x20 DUP3 ADD SWAP1 POP SWAP2 SWAP1 POP JUMP JUMPDEST PUSH0 PUSH1 0x20 DUP3 ADD SWAP1 POP DUP2 DUP2 SUB PUSH0 DUP4 ADD MSTORE PUSH2 0x4723 DUP2 PUSH2 0x46EA JUMP JUMPDEST SWAP1 POP SWAP2 SWAP1 POP JUMP JUMPDEST PUSH0 PUSH2 0x4734 DUP3 PUSH2 0x35E5 JUMP JUMPDEST SWAP2 POP PUSH2 0x473F DUP4 PUSH2 0x35E5 JUMP JUMPDEST SWAP3 POP DUP3 DUP3 SUB SWAP1 POP DUP2 DUP2 GT ISZERO PUSH2 0x4757 JUMPI PUSH2 0x4756 PUSH2 0x3D0F JUMP JUMPDEST JUMPDEST SWAP3 SWAP2 POP POP JUMP JUMPDEST PUSH0 PUSH2 0x4767 DUP3 PUSH2 0x35E5 JUMP JUMPDEST SWAP2 POP PUSH2 0x4772 DUP4 PUSH2 0x35E5 JUMP JUMPDEST SWAP3 POP DUP3 DUP3 MUL PUSH2 0x4780 DUP2 PUSH2 0x35E5 JUMP JUMPDEST SWAP2 POP DUP3 DUP3 DIV DUP5 EQ DUP4 ISZERO OR PUSH2 0x4797 JUMPI PUSH2 0x4796 PUSH2 0x3D0F JUMP JUMPDEST JUMPDEST POP SWAP3 SWAP2 POP POP JUMP JUMPDEST PUSH32 0x4E487B7100000000000000000000000000000000000000000000000000000000 PUSH0 MSTORE PUSH1 0x12 PUSH1 0x4 MSTORE PUSH1 0x24 PUSH0 REVERT JUMPDEST PUSH0 PUSH2 0x47D5 DUP3 PUSH2 0x35E5 JUMP JUMPDEST SWAP2 POP PUSH2 0x47E0 DUP4 PUSH2 0x35E5 JUMP JUMPDEST SWAP3 POP DUP3 PUSH2 0x47F0 JUMPI PUSH2 0x47EF PUSH2 0x479E JUMP JUMPDEST JUMPDEST DUP3 DUP3 DIV SWAP1 POP SWAP3 SWAP2 POP POP JUMP JUMPDEST PUSH32 0x4E6F6E206D616E61676572000000000000000000000000000000000000000000 PUSH0 DUP3 ADD MSTORE POP JUMP JUMPDEST PUSH0 PUSH2 0x482F PUSH1 0xB DUP4 PUSH2 0x355F JUMP JUMPDEST SWAP2 POP PUSH2 0x483A DUP3 PUSH2 0x47FB JUMP JUMPDEST PUSH1 0x20 DUP3 ADD SWAP1 POP SWAP2 SWAP1 POP JUMP JUMPDEST PUSH0 PUSH1 0x20 DUP3 ADD SWAP1 POP DUP2 DUP2 SUB PUSH0 DUP4 ADD MSTORE PUSH2 0x485C DUP2 PUSH2 0x4823 JUMP JUMPDEST SWAP1 POP SWAP2 SWAP1 POP JUMP JUMPDEST PUSH32 0x415553444320616D6F756E74207A65726F000000000000000000000000000000 PUSH0 DUP3 ADD MSTORE POP JUMP JUMPDEST PUSH0 PUSH2 0x4897 PUSH1 0x11 DUP4 PUSH2 0x355F JUMP JUMPDEST SWAP2 POP PUSH2 0x48A2 DUP3 PUSH2 0x4863 JUMP JUMPDEST PUSH1 0x20 DUP3 ADD SWAP1 POP SWAP2 SWAP1 POP JUMP JUMPDEST PUSH0 PUSH1 0x20 DUP3 ADD SWAP1 POP DUP2 DUP2 SUB PUSH0 DUP4 ADD MSTORE PUSH2 0x48C4 DUP2 PUSH2 0x488B JUMP JUMPDEST SWAP1 POP SWAP2 SWAP1 POP JUMP JUMPDEST PUSH0 DUP2 MLOAD SWAP1 POP PUSH2 0x48D9 DUP2 PUSH2 0x35EE JUMP JUMPDEST SWAP3 SWAP2 POP POP JUMP JUMPDEST PUSH0 PUSH1 0x20 DUP3 DUP5 SUB SLT ISZERO PUSH2 0x48F4 JUMPI PUSH2 0x48F3 PUSH2 0x34C8 JUMP JUMPDEST JUMPDEST PUSH0 PUSH2 0x4901 DUP5 DUP3 DUP6 ADD PUSH2 0x48CB JUMP JUMPDEST SWAP2 POP POP SWAP3 SWAP2 POP POP JUMP JUMPDEST PUSH0 PUSH1 0x40 DUP3 ADD SWAP1 POP PUSH2 0x491D PUSH0 DUP4 ADD DUP6 PUSH2 0x372A JUMP JUMPDEST PUSH2 0x492A PUSH1 0x20 DUP4 ADD DUP5 PUSH2 0x372A JUMP JUMPDEST SWAP4 SWAP3 POP POP POP JUMP JUMPDEST PUSH0 PUSH1 0x60 DUP3 ADD SWAP1 POP PUSH2 0x4944 PUSH0 DUP4 ADD DUP7 PUSH2 0x37A2 JUMP JUMPDEST PUSH2 0x4951 PUSH1 0x20 DUP4 ADD DUP6 PUSH2 0x372A JUMP JUMPDEST PUSH2 0x495E PUSH1 0x40 DUP4 ADD DUP5 PUSH2 0x372A JUMP JUMPDEST SWAP5 SWAP4 POP POP POP POP JUMP JUMPDEST PUSH0 PUSH2 0x4970 DUP3 PUSH2 0x3AB0 JUMP JUMPDEST SWAP2 POP PUSH2 0x497B DUP4 PUSH2 0x3AB0 JUMP JUMPDEST SWAP3 POP DUP3 DUP3 SUB SWAP1 POP PUSH2 0xFFFF DUP2 GT ISZERO PUSH2 0x4995 JUMPI PUSH2 0x4994 PUSH2 0x3D0F JUMP JUMPDEST JUMPDEST SWAP3 SWAP2 POP POP JUMP JUMPDEST PUSH0 PUSH2 0x49A5 DUP3 PUSH2 0x35E5 JUMP JUMPDEST SWAP2 POP PUSH2 0x49B0 DUP4 PUSH2 0x35E5 JUMP JUMPDEST SWAP3 POP DUP3 DUP3 ADD SWAP1 POP DUP1 DUP3 GT ISZERO PUSH2 0x49C8 JUMPI PUSH2 0x49C7 PUSH2 0x3D0F JUMP JUMPDEST JUMPDEST SWAP3 SWAP2 POP POP JUMP JUMPDEST PUSH32 0x4E6F6E2063726F73732074696D65000000000000000000000000000000000000 PUSH0 DUP3 ADD MSTORE POP JUMP JUMPDEST PUSH0 PUSH2 0x4A02 PUSH1 0xE DUP4 PUSH2 0x355F JUMP JUMPDEST SWAP2 POP PUSH2 0x4A0D DUP3 PUSH2 0x49CE JUMP JUMPDEST PUSH1 0x20 DUP3 ADD SWAP1 POP SWAP2 SWAP1 POP JUMP JUMPDEST PUSH0 PUSH1 0x20 DUP3 ADD SWAP1 POP DUP2 DUP2 SUB PUSH0 DUP4 ADD MSTORE PUSH2 0x4A2F DUP2 PUSH2 0x49F6 JUMP JUMPDEST SWAP1 POP SWAP2 SWAP1 POP JUMP JUMPDEST PUSH2 0x4A3F DUP2 PUSH2 0x3A13 JUMP JUMPDEST DUP3 MSTORE POP POP JUMP JUMPDEST PUSH0 PUSH1 0x40 DUP3 ADD SWAP1 POP PUSH2 0x4A58 PUSH0 DUP4 ADD DUP6 PUSH2 0x372A JUMP JUMPDEST PUSH2 0x4A65 PUSH1 0x20 DUP4 ADD DUP5 PUSH2 0x4A36 JUMP JUMPDEST SWAP4 SWAP3 POP POP POP JUMP JUMPDEST PUSH0 PUSH1 0xA0 DUP3 ADD SWAP1 POP PUSH2 0x4A7F PUSH0 DUP4 ADD DUP9 PUSH2 0x4A36 JUMP JUMPDEST PUSH2 0x4A8C PUSH1 0x20 DUP4 ADD DUP8 PUSH2 0x39AD JUMP JUMPDEST PUSH2 0x4A99 PUSH1 0x40 DUP4 ADD DUP7 PUSH2 0x469A JUMP JUMPDEST PUSH2 0x4AA6 PUSH1 0x60 DUP4 ADD DUP6 PUSH2 0x37A2 JUMP JUMPDEST PUSH2 0x4AB3 PUSH1 0x80 DUP4 ADD DUP5 PUSH2 0x372A JUMP JUMPDEST SWAP7 SWAP6 POP POP POP POP POP POP JUMP INVALID LOG2 PUSH5 0x6970667358 0x22 SLT KECCAK256 BLOBHASH SWAP10 SIGNEXTEND PUSH32 0xC8B00A9D84EA6E3B5F880E28A73605DADD831F63694339339AC22ACC64736F6C PUSH4 0x4300081C STOP CALLER "
		},
		"gasEstimates": {
			"creation": {
				"codeDepositCost": "3837400",
				"executionCost": "infinite",
				"totalCost": "infinite"
			},
			"external": {
				"allowance(address,address)": "infinite",
				"approve(address,uint256)": "infinite",
				"balanceOf(address)": "2873",
				"crossUSDC(uint32,uint64,address,uint256)": "infinite",
				"decimals()": "450",
				"deposite(uint64,address,address,address)": "infinite",
				"depositeTotalAmount()": "2561",
				"factory()": "2574",
				"finallyAmount()": "2492",
				"finallyState()": "2607",
				"getUserSupply(address)": "infinite",
				"govern()": "2554",
				"id()": "2514",
				"inL2Supply(address,address,uint256)": "infinite",
				"inL2Withdraw(address,address,uint256)": "infinite",
				"l2WithdrawAndCrossUSDC((uint32,uint64,address,address,address))": "infinite",
				"lockState()": "2606",
				"manager()": "2619",
				"name()": "infinite",
				"owner()": "2619",
				"receiveUSDCAndL2Supply((bytes,bytes,address,address))": "infinite",
				"setLock(bytes1)": "26985",
				"setReferralCode(uint16)": "27049",
				"symbol()": "infinite",
				"totalSupply()": "2478",
				"transfer(address,uint256)": "infinite",
				"transferFrom(address,address,uint256)": "infinite",
				"transferManager(address)": "27019",
				"transferOwner(address)": "26954",
				"updateFinallyAmount(address)": "infinite",
				"withdraw(address)": "infinite",
				"withdrawFee(address)": "infinite",
				"withdrawProtocolFee(address)": "infinite"
			},
			"internal": {
				"_checkManager()": "infinite",
				"_checkOwner()": "infinite",
				"_checkValidEndTime()": "infinite",
				"_crossUsdc(uint32,uint64,bytes32,address,uint256)": "infinite",
				"_getL2Encode()": "infinite",
				"_getMarketInfo()": "infinite",
				"_getValidHook(uint32)": "infinite",
				"_l2Deposite(address,address,uint256)": "infinite",
				"_l2Withdraw(address,address,uint256)": "infinite",
				"_officialManager()": "infinite",
				"_tokenBalance(address,address)": "infinite",
				"_updateFinallyAmount(address)": "infinite"
			}
		},
		"methodIdentifiers": {
			"allowance(address,address)": "dd62ed3e",
			"approve(address,uint256)": "095ea7b3",
			"balanceOf(address)": "70a08231",
			"crossUSDC(uint32,uint64,address,uint256)": "e1a8b76c",
			"decimals()": "313ce567",
			"deposite(uint64,address,address,address)": "11dc2bba",
			"depositeTotalAmount()": "bc2c13a4",
			"factory()": "c45a0155",
			"finallyAmount()": "40cfce1b",
			"finallyState()": "2d1ecd21",
			"getUserSupply(address)": "5236908b",
			"govern()": "2757d58c",
			"id()": "af640d0f",
			"inL2Supply(address,address,uint256)": "724aa479",
			"inL2Withdraw(address,address,uint256)": "2266c1ab",
			"l2WithdrawAndCrossUSDC((uint32,uint64,address,address,address))": "8475e033",
			"lockState()": "46be9c48",
			"manager()": "481c6a75",
			"name()": "06fdde03",
			"owner()": "8da5cb5b",
			"receiveUSDCAndL2Supply((bytes,bytes,address,address))": "39a15647",
			"setLock(bytes1)": "294e3305",
			"setReferralCode(uint16)": "fa43b69c",
			"symbol()": "95d89b41",
			"totalSupply()": "18160ddd",
			"transfer(address,uint256)": "a9059cbb",
			"transferFrom(address,address,uint256)": "23b872dd",
			"transferManager(address)": "ba0e930a",
			"transferOwner(address)": "4fb2e45d",
			"updateFinallyAmount(address)": "02d95251",
			"withdraw(address)": "51cff8d9",
			"withdrawFee(address)": "1ac3ddeb",
			"withdrawProtocolFee(address)": "668fb6dc"
		}
	},
	"abi": [
		{
			"inputs": [
				{
					"internalType": "address",
					"name": "_govern",
					"type": "address"
				},
				{
					"internalType": "address",
					"name": "_owner",
					"type": "address"
				},
				{
					"internalType": "address",
					"name": "_manager",
					"type": "address"
				},
				{
					"internalType": "uint256",
					"name": "_id",
					"type": "uint256"
				},
				{
					"internalType": "string",
					"name": "name_",
					"type": "string"
				},
				{
					"internalType": "string",
					"name": "symbol_",
					"type": "string"
				}
			],
			"stateMutability": "nonpayable",
			"type": "constructor"
		},
		{
			"inputs": [
				{
					"internalType": "address",
					"name": "spender",
					"type": "address"
				},
				{
					"internalType": "uint256",
					"name": "allowance",
					"type": "uint256"
				},
				{
					"internalType": "uint256",
					"name": "needed",
					"type": "uint256"
				}
			],
			"name": "ERC20InsufficientAllowance",
			"type": "error"
		},
		{
			"inputs": [
				{
					"internalType": "address",
					"name": "sender",
					"type": "address"
				},
				{
					"internalType": "uint256",
					"name": "balance",
					"type": "uint256"
				},
				{
					"internalType": "uint256",
					"name": "needed",
					"type": "uint256"
				}
			],
			"name": "ERC20InsufficientBalance",
			"type": "error"
		},
		{
			"inputs": [
				{
					"internalType": "address",
					"name": "approver",
					"type": "address"
				}
			],
			"name": "ERC20InvalidApprover",
			"type": "error"
		},
		{
			"inputs": [
				{
					"internalType": "address",
					"name": "receiver",
					"type": "address"
				}
			],
			"name": "ERC20InvalidReceiver",
			"type": "error"
		},
		{
			"inputs": [
				{
					"internalType": "address",
					"name": "sender",
					"type": "address"
				}
			],
			"name": "ERC20InvalidSender",
			"type": "error"
		},
		{
			"inputs": [
				{
					"internalType": "address",
					"name": "spender",
					"type": "address"
				}
			],
			"name": "ERC20InvalidSpender",
			"type": "error"
		},
		{
			"inputs": [],
			"name": "ReentrancyGuardReentrantCall",
			"type": "error"
		},
		{
			"inputs": [
				{
					"internalType": "address",
					"name": "token",
					"type": "address"
				}
			],
			"name": "SafeERC20FailedOperation",
			"type": "error"
		},
		{
			"anonymous": false,
			"inputs": [
				{
					"indexed": true,
					"internalType": "address",
					"name": "owner",
					"type": "address"
				},
				{
					"indexed": true,
					"internalType": "address",
					"name": "spender",
					"type": "address"
				},
				{
					"indexed": false,
					"internalType": "uint256",
					"name": "value",
					"type": "uint256"
				}
			],
			"name": "Approval",
			"type": "event"
		},
		{
			"anonymous": false,
			"inputs": [
				{
					"indexed": true,
					"internalType": "address",
					"name": "_receiver",
					"type": "address"
				},
				{
					"indexed": false,
					"internalType": "uint256",
					"name": "amount",
					"type": "uint256"
				}
			],
			"name": "CrossUSDC",
			"type": "event"
		},
		{
			"anonymous": false,
			"inputs": [
				{
					"indexed": false,
					"internalType": "uint256",
					"name": "amount",
					"type": "uint256"
				}
			],
			"name": "L2Supply",
			"type": "event"
		},
		{
			"anonymous": false,
			"inputs": [
				{
					"indexed": false,
					"internalType": "uint256",
					"name": "_usdcAmount",
					"type": "uint256"
				},
				{
					"indexed": false,
					"internalType": "uint256",
					"name": "_ausdcAmount",
					"type": "uint256"
				}
			],
			"name": "L2withdraw",
			"type": "event"
		},
		{
			"anonymous": false,
			"inputs": [
				{
					"indexed": true,
					"internalType": "address",
					"name": "receiver",
					"type": "address"
				},
				{
					"indexed": true,
					"internalType": "address",
					"name": "token",
					"type": "address"
				},
				{
					"indexed": true,
					"internalType": "uint256",
					"name": "amount",
					"type": "uint256"
				}
			],
			"name": "ReceiveMessage",
			"type": "event"
		},
		{
			"anonymous": false,
			"inputs": [
				{
					"indexed": true,
					"internalType": "address",
					"name": "from",
					"type": "address"
				},
				{
					"indexed": true,
					"internalType": "address",
					"name": "to",
					"type": "address"
				},
				{
					"indexed": false,
					"internalType": "uint256",
					"name": "value",
					"type": "uint256"
				}
			],
			"name": "Transfer",
			"type": "event"
		},
		{
			"anonymous": false,
			"inputs": [
				{
					"indexed": false,
					"internalType": "uint16",
					"name": "oldFee",
					"type": "uint16"
				},
				{
					"indexed": false,
					"internalType": "uint16",
					"name": "newFee",
					"type": "uint16"
				}
			],
			"name": "UpdateFee",
			"type": "event"
		},
		{
			"anonymous": false,
			"inputs": [
				{
					"indexed": false,
					"internalType": "uint64",
					"name": "_bufferTime",
					"type": "uint64"
				},
				{
					"indexed": false,
					"internalType": "uint64",
					"name": "_endTime",
					"type": "uint64"
				}
			],
			"name": "UpdateTime",
			"type": "event"
		},
		{
			"anonymous": false,
			"inputs": [
				{
					"indexed": true,
					"internalType": "address",
					"name": "_user",
					"type": "address"
				},
				{
					"indexed": true,
					"internalType": "uint256",
					"name": "_amount",
					"type": "uint256"
				}
			],
			"name": "UserDeposite",
			"type": "event"
		},
		{
			"anonymous": false,
			"inputs": [
				{
					"indexed": true,
					"internalType": "address",
					"name": "_user",
					"type": "address"
				},
				{
					"indexed": true,
					"internalType": "uint256",
					"name": "_amount",
					"type": "uint256"
				}
			],
			"name": "UserWithdraw",
			"type": "event"
		},
		{
			"inputs": [
				{
					"internalType": "address",
					"name": "owner",
					"type": "address"
				},
				{
					"internalType": "address",
					"name": "spender",
					"type": "address"
				}
			],
			"name": "allowance",
			"outputs": [
				{
					"internalType": "uint256",
					"name": "",
					"type": "uint256"
				}
			],
			"stateMutability": "view",
			"type": "function"
		},
		{
			"inputs": [
				{
					"internalType": "address",
					"name": "spender",
					"type": "address"
				},
				{
					"internalType": "uint256",
					"name": "value",
					"type": "uint256"
				}
			],
			"name": "approve",
			"outputs": [
				{
					"internalType": "bool",
					"name": "",
					"type": "bool"
				}
			],
			"stateMutability": "nonpayable",
			"type": "function"
		},
		{
			"inputs": [
				{
					"internalType": "address",
					"name": "account",
					"type": "address"
				}
			],
			"name": "balanceOf",
			"outputs": [
				{
					"internalType": "uint256",
					"name": "",
					"type": "uint256"
				}
			],
			"stateMutability": "view",
			"type": "function"
		},
		{
			"inputs": [
				{
					"internalType": "uint32",
					"name": "destinationDomain",
					"type": "uint32"
				},
				{
					"internalType": "uint64",
					"name": "inputBlock",
					"type": "uint64"
				},
				{
					"internalType": "address",
					"name": "usdc",
					"type": "address"
				},
				{
					"internalType": "uint256",
					"name": "amount",
					"type": "uint256"
				}
			],
			"name": "crossUSDC",
			"outputs": [],
			"stateMutability": "nonpayable",
			"type": "function"
		},
		{
			"inputs": [],
			"name": "decimals",
			"outputs": [
				{
					"internalType": "uint8",
					"name": "",
					"type": "uint8"
				}
			],
			"stateMutability": "view",
			"type": "function"
		},
		{
			"inputs": [
				{
					"internalType": "uint64",
					"name": "amount",
					"type": "uint64"
				},
				{
					"internalType": "address",
					"name": "usdc",
					"type": "address"
				},
				{
					"internalType": "address",
					"name": "l2Pool",
					"type": "address"
				},
				{
					"internalType": "address",
					"name": "receiver",
					"type": "address"
				}
			],
			"name": "deposite",
			"outputs": [],
			"stateMutability": "nonpayable",
			"type": "function"
		},
		{
			"inputs": [],
			"name": "depositeTotalAmount",
			"outputs": [
				{
					"internalType": "uint64",
					"name": "",
					"type": "uint64"
				}
			],
			"stateMutability": "view",
			"type": "function"
		},
		{
			"inputs": [],
			"name": "factory",
			"outputs": [
				{
					"internalType": "address",
					"name": "",
					"type": "address"
				}
			],
			"stateMutability": "view",
			"type": "function"
		},
		{
			"inputs": [],
			"name": "finallyAmount",
			"outputs": [
				{
					"internalType": "uint256",
					"name": "",
					"type": "uint256"
				}
			],
			"stateMutability": "view",
			"type": "function"
		},
		{
			"inputs": [],
			"name": "finallyState",
			"outputs": [
				{
					"internalType": "bytes1",
					"name": "",
					"type": "bytes1"
				}
			],
			"stateMutability": "view",
			"type": "function"
		},
		{
			"inputs": [
				{
					"internalType": "address",
					"name": "user",
					"type": "address"
				}
			],
			"name": "getUserSupply",
			"outputs": [
				{
					"components": [
						{
							"internalType": "uint64",
							"name": "supplyTime",
							"type": "uint64"
						},
						{
							"internalType": "uint64",
							"name": "pledgeAmount",
							"type": "uint64"
						}
					],
					"internalType": "struct IVineStruct.UserSupplyInfo",
					"name": "",
					"type": "tuple"
				}
			],
			"stateMutability": "view",
			"type": "function"
		},
		{
			"inputs": [],
			"name": "govern",
			"outputs": [
				{
					"internalType": "address",
					"name": "",
					"type": "address"
				}
			],
			"stateMutability": "view",
			"type": "function"
		},
		{
			"inputs": [],
			"name": "id",
			"outputs": [
				{
					"internalType": "uint256",
					"name": "",
					"type": "uint256"
				}
			],
			"stateMutability": "view",
			"type": "function"
		},
		{
			"inputs": [
				{
					"internalType": "address",
					"name": "l2Pool",
					"type": "address"
				},
				{
					"internalType": "address",
					"name": "usdc",
					"type": "address"
				},
				{
					"internalType": "uint256",
					"name": "amount",
					"type": "uint256"
				}
			],
			"name": "inL2Supply",
			"outputs": [],
			"stateMutability": "nonpayable",
			"type": "function"
		},
		{
			"inputs": [
				{
					"internalType": "address",
					"name": "l2Pool",
					"type": "address"
				},
				{
					"internalType": "address",
					"name": "ausdc",
					"type": "address"
				},
				{
					"internalType": "uint256",
					"name": "ausdcAmount",
					"type": "uint256"
				}
			],
			"name": "inL2Withdraw",
			"outputs": [],
			"stateMutability": "nonpayable",
			"type": "function"
		},
		{
			"inputs": [
				{
					"components": [
						{
							"internalType": "uint32",
							"name": "destinationDomain",
							"type": "uint32"
						},
						{
							"internalType": "uint64",
							"name": "inputBlock",
							"type": "uint64"
						},
						{
							"internalType": "address",
							"name": "l2Pool",
							"type": "address"
						},
						{
							"internalType": "address",
							"name": "ausdc",
							"type": "address"
						},
						{
							"internalType": "address",
							"name": "usdc",
							"type": "address"
						}
					],
					"internalType": "struct IVineStruct.L2WithdrawAndCrossUSDCParams",
					"name": "params",
					"type": "tuple"
				}
			],
			"name": "l2WithdrawAndCrossUSDC",
			"outputs": [],
			"stateMutability": "nonpayable",
			"type": "function"
		},
		{
			"inputs": [],
			"name": "lockState",
			"outputs": [
				{
					"internalType": "bytes1",
					"name": "",
					"type": "bytes1"
				}
			],
			"stateMutability": "view",
			"type": "function"
		},
		{
			"inputs": [],
			"name": "manager",
			"outputs": [
				{
					"internalType": "address",
					"name": "",
					"type": "address"
				}
			],
			"stateMutability": "view",
			"type": "function"
		},
		{
			"inputs": [],
			"name": "name",
			"outputs": [
				{
					"internalType": "string",
					"name": "",
					"type": "string"
				}
			],
			"stateMutability": "view",
			"type": "function"
		},
		{
			"inputs": [],
			"name": "owner",
			"outputs": [
				{
					"internalType": "address",
					"name": "",
					"type": "address"
				}
			],
			"stateMutability": "view",
			"type": "function"
		},
		{
			"inputs": [
				{
					"components": [
						{
							"internalType": "bytes",
							"name": "message",
							"type": "bytes"
						},
						{
							"internalType": "bytes",
							"name": "attestation",
							"type": "bytes"
						},
						{
							"internalType": "address",
							"name": "usdc",
							"type": "address"
						},
						{
							"internalType": "address",
							"name": "l2Pool",
							"type": "address"
						}
					],
					"internalType": "struct IVineStruct.ReceiveUSDCAndL2SupplyParams",
					"name": "params",
					"type": "tuple"
				}
			],
			"name": "receiveUSDCAndL2Supply",
			"outputs": [],
			"stateMutability": "nonpayable",
			"type": "function"
		},
		{
			"inputs": [
				{
					"internalType": "bytes1",
					"name": "state",
					"type": "bytes1"
				}
			],
			"name": "setLock",
			"outputs": [],
			"stateMutability": "nonpayable",
			"type": "function"
		},
		{
			"inputs": [
				{
					"internalType": "uint16",
					"name": "_referralCode",
					"type": "uint16"
				}
			],
			"name": "setReferralCode",
			"outputs": [],
			"stateMutability": "nonpayable",
			"type": "function"
		},
		{
			"inputs": [],
			"name": "symbol",
			"outputs": [
				{
					"internalType": "string",
					"name": "",
					"type": "string"
				}
			],
			"stateMutability": "view",
			"type": "function"
		},
		{
			"inputs": [],
			"name": "totalSupply",
			"outputs": [
				{
					"internalType": "uint256",
					"name": "",
					"type": "uint256"
				}
			],
			"stateMutability": "view",
			"type": "function"
		},
		{
			"inputs": [
				{
					"internalType": "address",
					"name": "to",
					"type": "address"
				},
				{
					"internalType": "uint256",
					"name": "value",
					"type": "uint256"
				}
			],
			"name": "transfer",
			"outputs": [
				{
					"internalType": "bool",
					"name": "",
					"type": "bool"
				}
			],
			"stateMutability": "nonpayable",
			"type": "function"
		},
		{
			"inputs": [
				{
					"internalType": "address",
					"name": "from",
					"type": "address"
				},
				{
					"internalType": "address",
					"name": "to",
					"type": "address"
				},
				{
					"internalType": "uint256",
					"name": "value",
					"type": "uint256"
				}
			],
			"name": "transferFrom",
			"outputs": [
				{
					"internalType": "bool",
					"name": "",
					"type": "bool"
				}
			],
			"stateMutability": "nonpayable",
			"type": "function"
		},
		{
			"inputs": [
				{
					"internalType": "address",
					"name": "newManager",
					"type": "address"
				}
			],
			"name": "transferManager",
			"outputs": [],
			"stateMutability": "nonpayable",
			"type": "function"
		},
		{
			"inputs": [
				{
					"internalType": "address",
					"name": "newOwner",
					"type": "address"
				}
			],
			"name": "transferOwner",
			"outputs": [],
			"stateMutability": "nonpayable",
			"type": "function"
		},
		{
			"inputs": [
				{
					"internalType": "address",
					"name": "usdc",
					"type": "address"
				}
			],
			"name": "updateFinallyAmount",
			"outputs": [],
			"stateMutability": "nonpayable",
			"type": "function"
		},
		{
			"inputs": [
				{
					"internalType": "address",
					"name": "usdc",
					"type": "address"
				}
			],
			"name": "withdraw",
			"outputs": [],
			"stateMutability": "nonpayable",
			"type": "function"
		},
		{
			"inputs": [
				{
					"internalType": "address",
					"name": "usdc",
					"type": "address"
				}
			],
			"name": "withdrawFee",
			"outputs": [],
			"stateMutability": "nonpayable",
			"type": "function"
		},
		{
			"inputs": [
				{
					"internalType": "address",
					"name": "usdc",
					"type": "address"
				}
			],
			"name": "withdrawProtocolFee",
			"outputs": [],
			"stateMutability": "nonpayable",
			"type": "function"
		}
	]
}